{"abi":[{"inputs":[{"internalType":"uint256","name":"minimum","type":"uint256"},{"internalType":"string","name":"name","type":"string"},{"internalType":"string","name":"description","type":"string"},{"internalType":"string","name":"image","type":"string"},{"internalType":"uint256","name":"target","type":"uint256"}],"name":"createCampaign","outputs":[],"stateMutability":"nonpayable","type":"function"},{"inputs":[{"internalType":"uint256","name":"","type":"uint256"}],"name":"deployedCampaigns","outputs":[{"internalType":"address payable","name":"","type":"address"}],"stateMutability":"view","type":"function"},{"inputs":[],"name":"getDeployedCampaigns","outputs":[{"internalType":"address payable[]","name":"","type":"address[]"}],"stateMutability":"view","type":"function"}],"devdoc":{"kind":"dev","methods":{},"version":1},"evm":{"assembly":"    /* \"Campaign.sol\":58:553  contract CampaignFactory {... */\n  mstore(0x40, 0x80)\n  callvalue\n  dup1\n  iszero\n  tag_1\n  jumpi\n  0x00\n  dup1\n  revert\ntag_1:\n  pop\n  dataSize(sub_0)\n  dup1\n  dataOffset(sub_0)\n  0x00\n  codecopy\n  0x00\n  return\nstop\n\nsub_0: assembly {\n        /* \"Campaign.sol\":58:553  contract CampaignFactory {... */\n      mstore(0x40, 0x80)\n      callvalue\n      dup1\n      iszero\n      tag_1\n      jumpi\n      0x00\n      dup1\n      revert\n    tag_1:\n      pop\n      jumpi(tag_2, lt(calldatasize, 0x04))\n      shr(0xe0, calldataload(0x00))\n      dup1\n      0x339d50a5\n      eq\n      tag_3\n      jumpi\n      dup1\n      0x4acb9d4f\n      eq\n      tag_4\n      jumpi\n      dup1\n      0xd4ddd71a\n      eq\n      tag_5\n      jumpi\n    tag_2:\n      0x00\n      dup1\n      revert\n        /* \"Campaign.sol\":89:131  address payable[] public deployedCampaigns */\n    tag_3:\n      tag_6\n      0x04\n      dup1\n      calldatasize\n      sub\n      dup2\n      add\n      swap1\n      tag_7\n      swap2\n      swap1\n      tag_8\n      jump\t// in\n    tag_7:\n      tag_9\n      jump\t// in\n    tag_6:\n      mload(0x40)\n      tag_10\n      swap2\n      swap1\n      tag_11\n      jump\t// in\n    tag_10:\n      mload(0x40)\n      dup1\n      swap2\n      sub\n      swap1\n      return\n        /* \"Campaign.sol\":431:551  function getDeployedCampaigns() public view returns (address payable[] memory) {... */\n    tag_4:\n      tag_12\n      tag_13\n      jump\t// in\n    tag_12:\n      mload(0x40)\n      tag_14\n      swap2\n      swap1\n      tag_15\n      jump\t// in\n    tag_14:\n      mload(0x40)\n      dup1\n      swap2\n      sub\n      swap1\n      return\n        /* \"Campaign.sol\":138:425  function createCampaign(uint minimum,string memory name,string memory description,string memory image,uint target) public {... */\n    tag_5:\n      tag_16\n      0x04\n      dup1\n      calldatasize\n      sub\n      dup2\n      add\n      swap1\n      tag_17\n      swap2\n      swap1\n      tag_18\n      jump\t// in\n    tag_17:\n      tag_19\n      jump\t// in\n    tag_16:\n      stop\n        /* \"Campaign.sol\":89:131  address payable[] public deployedCampaigns */\n    tag_9:\n      0x00\n      dup2\n      dup2\n      sload\n      dup2\n      lt\n      tag_20\n      jumpi\n      0x00\n      dup1\n      revert\n    tag_20:\n      swap1\n      0x00\n      mstore\n      keccak256(0x00, 0x20)\n      add\n      0x00\n      swap2\n      pop\n      sload\n      swap1\n      0x0100\n      exp\n      swap1\n      div\n      0xffffffffffffffffffffffffffffffffffffffff\n      and\n      dup2\n      jump\t// out\n        /* \"Campaign.sol\":431:551  function getDeployedCampaigns() public view returns (address payable[] memory) {... */\n    tag_13:\n        /* \"Campaign.sol\":484:508  address payable[] memory */\n      0x60\n        /* \"Campaign.sol\":527:544  deployedCampaigns */\n      0x00\n        /* \"Campaign.sol\":520:544  return deployedCampaigns */\n      dup1\n      sload\n      dup1\n      0x20\n      mul\n      0x20\n      add\n      mload(0x40)\n      swap1\n      dup2\n      add\n      0x40\n      mstore\n      dup1\n      swap3\n      swap2\n      swap1\n      dup2\n      dup2\n      mstore\n      0x20\n      add\n      dup3\n      dup1\n      sload\n      dup1\n      iszero\n      tag_23\n      jumpi\n      0x20\n      mul\n      dup3\n      add\n      swap2\n      swap1\n      0x00\n      mstore\n      keccak256(0x00, 0x20)\n      swap1\n    tag_24:\n      dup2\n      0x00\n      swap1\n      sload\n      swap1\n      0x0100\n      exp\n      swap1\n      div\n      0xffffffffffffffffffffffffffffffffffffffff\n      and\n      0xffffffffffffffffffffffffffffffffffffffff\n      and\n      dup2\n      mstore\n      0x20\n      add\n      swap1\n      0x01\n      add\n      swap1\n      dup1\n      dup4\n      gt\n      tag_24\n      jumpi\n    tag_23:\n      pop\n      pop\n      pop\n      pop\n      pop\n      swap1\n      pop\n        /* \"Campaign.sol\":431:551  function getDeployedCampaigns() public view returns (address payable[] memory) {... */\n      swap1\n      jump\t// out\n        /* \"Campaign.sol\":138:425  function createCampaign(uint minimum,string memory name,string memory description,string memory image,uint target) public {... */\n    tag_19:\n        /* \"Campaign.sol\":270:289  address newCampaign */\n      0x00\n        /* \"Campaign.sol\":313:320  minimum */\n      dup6\n        /* \"Campaign.sol\":322:332  msg.sender */\n      caller\n        /* \"Campaign.sol\":333:337  name */\n      dup7\n        /* \"Campaign.sol\":338:349  description */\n      dup7\n        /* \"Campaign.sol\":350:355  image */\n      dup7\n        /* \"Campaign.sol\":356:362  target */\n      dup7\n        /* \"Campaign.sol\":300:363  new Campaign(minimum, msg.sender,name,description,image,target) */\n      mload(0x40)\n      tag_26\n      swap1\n      tag_27\n      jump\t// in\n    tag_26:\n      tag_28\n      swap7\n      swap6\n      swap5\n      swap4\n      swap3\n      swap2\n      swap1\n      tag_29\n      jump\t// in\n    tag_28:\n      mload(0x40)\n      dup1\n      swap2\n      sub\n      swap1\n      0x00\n      create\n      dup1\n      iszero\n      dup1\n      iszero\n      tag_30\n      jumpi\n      returndatasize\n      0x00\n      dup1\n      returndatacopy\n      revert(0x00, returndatasize)\n    tag_30:\n      pop\n        /* \"Campaign.sol\":270:364  address newCampaign = address(new Campaign(minimum, msg.sender,name,description,image,target)) */\n      swap1\n      pop\n        /* \"Campaign.sol\":374:391  deployedCampaigns */\n      0x00\n        /* \"Campaign.sol\":405:416  newCampaign */\n      dup2\n        /* \"Campaign.sol\":374:418  deployedCampaigns.push(payable(newCampaign)) */\n      swap1\n      dup1\n      0x01\n      dup2\n      sload\n      add\n      dup1\n      dup3\n      sstore\n      dup1\n      swap2\n      pop\n      pop\n      0x01\n      swap1\n      sub\n      swap1\n      0x00\n      mstore\n      keccak256(0x00, 0x20)\n      add\n      0x00\n      swap1\n      swap2\n      swap1\n      swap2\n      swap1\n      swap2\n      0x0100\n      exp\n      dup2\n      sload\n      dup2\n      0xffffffffffffffffffffffffffffffffffffffff\n      mul\n      not\n      and\n      swap1\n      dup4\n      0xffffffffffffffffffffffffffffffffffffffff\n      and\n      mul\n      or\n      swap1\n      sstore\n      pop\n        /* \"Campaign.sol\":260:425  {... */\n      pop\n        /* \"Campaign.sol\":138:425  function createCampaign(uint minimum,string memory name,string memory description,string memory image,uint target) public {... */\n      pop\n      pop\n      pop\n      pop\n      pop\n      jump\t// out\n    tag_27:\n      dataSize(sub_0)\n      dup1\n      dataOffset(sub_0)\n      dup4\n      codecopy\n      add\n      swap1\n      jump\t// out\n        /* \"#utility.yul\":7:82   */\n    tag_32:\n        /* \"#utility.yul\":40:46   */\n      0x00\n        /* \"#utility.yul\":73:75   */\n      0x40\n        /* \"#utility.yul\":67:76   */\n      mload\n        /* \"#utility.yul\":57:76   */\n      swap1\n      pop\n        /* \"#utility.yul\":7:82   */\n      swap1\n      jump\t// out\n        /* \"#utility.yul\":88:205   */\n    tag_33:\n        /* \"#utility.yul\":197:198   */\n      0x00\n        /* \"#utility.yul\":194:195   */\n      dup1\n        /* \"#utility.yul\":187:199   */\n      revert\n        /* \"#utility.yul\":211:328   */\n    tag_34:\n        /* \"#utility.yul\":320:321   */\n      0x00\n        /* \"#utility.yul\":317:318   */\n      dup1\n        /* \"#utility.yul\":310:322   */\n      revert\n        /* \"#utility.yul\":334:411   */\n    tag_35:\n        /* \"#utility.yul\":371:378   */\n      0x00\n        /* \"#utility.yul\":400:405   */\n      dup2\n        /* \"#utility.yul\":389:405   */\n      swap1\n      pop\n        /* \"#utility.yul\":334:411   */\n      swap2\n      swap1\n      pop\n      jump\t// out\n        /* \"#utility.yul\":417:539   */\n    tag_36:\n        /* \"#utility.yul\":490:514   */\n      tag_71\n        /* \"#utility.yul\":508:513   */\n      dup2\n        /* \"#utility.yul\":490:514   */\n      tag_35\n      jump\t// in\n    tag_71:\n        /* \"#utility.yul\":483:488   */\n      dup2\n        /* \"#utility.yul\":480:515   */\n      eq\n        /* \"#utility.yul\":470:533   */\n      tag_72\n      jumpi\n        /* \"#utility.yul\":529:530   */\n      0x00\n        /* \"#utility.yul\":526:527   */\n      dup1\n        /* \"#utility.yul\":519:531   */\n      revert\n        /* \"#utility.yul\":470:533   */\n    tag_72:\n        /* \"#utility.yul\":417:539   */\n      pop\n      jump\t// out\n        /* \"#utility.yul\":545:684   */\n    tag_37:\n        /* \"#utility.yul\":591:596   */\n      0x00\n        /* \"#utility.yul\":629:635   */\n      dup2\n        /* \"#utility.yul\":616:636   */\n      calldataload\n        /* \"#utility.yul\":607:636   */\n      swap1\n      pop\n        /* \"#utility.yul\":645:678   */\n      tag_74\n        /* \"#utility.yul\":672:677   */\n      dup2\n        /* \"#utility.yul\":645:678   */\n      tag_36\n      jump\t// in\n    tag_74:\n        /* \"#utility.yul\":545:684   */\n      swap3\n      swap2\n      pop\n      pop\n      jump\t// out\n        /* \"#utility.yul\":690:1019   */\n    tag_8:\n        /* \"#utility.yul\":749:755   */\n      0x00\n        /* \"#utility.yul\":798:800   */\n      0x20\n        /* \"#utility.yul\":786:795   */\n      dup3\n        /* \"#utility.yul\":777:784   */\n      dup5\n        /* \"#utility.yul\":773:796   */\n      sub\n        /* \"#utility.yul\":769:801   */\n      slt\n        /* \"#utility.yul\":766:885   */\n      iszero\n      tag_76\n      jumpi\n        /* \"#utility.yul\":804:883   */\n      tag_77\n      tag_33\n      jump\t// in\n    tag_77:\n        /* \"#utility.yul\":766:885   */\n    tag_76:\n        /* \"#utility.yul\":924:925   */\n      0x00\n        /* \"#utility.yul\":949:1002   */\n      tag_78\n        /* \"#utility.yul\":994:1001   */\n      dup5\n        /* \"#utility.yul\":985:991   */\n      dup3\n        /* \"#utility.yul\":974:983   */\n      dup6\n        /* \"#utility.yul\":970:992   */\n      add\n        /* \"#utility.yul\":949:1002   */\n      tag_37\n      jump\t// in\n    tag_78:\n        /* \"#utility.yul\":939:1002   */\n      swap2\n      pop\n        /* \"#utility.yul\":895:1012   */\n      pop\n        /* \"#utility.yul\":690:1019   */\n      swap3\n      swap2\n      pop\n      pop\n      jump\t// out\n        /* \"#utility.yul\":1025:1151   */\n    tag_38:\n        /* \"#utility.yul\":1062:1069   */\n      0x00\n        /* \"#utility.yul\":1102:1144   */\n      0xffffffffffffffffffffffffffffffffffffffff\n        /* \"#utility.yul\":1095:1100   */\n      dup3\n        /* \"#utility.yul\":1091:1145   */\n      and\n        /* \"#utility.yul\":1080:1145   */\n      swap1\n      pop\n        /* \"#utility.yul\":1025:1151   */\n      swap2\n      swap1\n      pop\n      jump\t// out\n        /* \"#utility.yul\":1157:1261   */\n    tag_39:\n        /* \"#utility.yul\":1202:1209   */\n      0x00\n        /* \"#utility.yul\":1231:1255   */\n      tag_81\n        /* \"#utility.yul\":1249:1254   */\n      dup3\n        /* \"#utility.yul\":1231:1255   */\n      tag_38\n      jump\t// in\n    tag_81:\n        /* \"#utility.yul\":1220:1255   */\n      swap1\n      pop\n        /* \"#utility.yul\":1157:1261   */\n      swap2\n      swap1\n      pop\n      jump\t// out\n        /* \"#utility.yul\":1267:1409   */\n    tag_40:\n        /* \"#utility.yul\":1370:1402   */\n      tag_83\n        /* \"#utility.yul\":1396:1401   */\n      dup2\n        /* \"#utility.yul\":1370:1402   */\n      tag_39\n      jump\t// in\n    tag_83:\n        /* \"#utility.yul\":1365:1368   */\n      dup3\n        /* \"#utility.yul\":1358:1403   */\n      mstore\n        /* \"#utility.yul\":1267:1409   */\n      pop\n      pop\n      jump\t// out\n        /* \"#utility.yul\":1415:1669   */\n    tag_11:\n        /* \"#utility.yul\":1524:1528   */\n      0x00\n        /* \"#utility.yul\":1562:1564   */\n      0x20\n        /* \"#utility.yul\":1551:1560   */\n      dup3\n        /* \"#utility.yul\":1547:1565   */\n      add\n        /* \"#utility.yul\":1539:1565   */\n      swap1\n      pop\n        /* \"#utility.yul\":1575:1662   */\n      tag_85\n        /* \"#utility.yul\":1659:1660   */\n      0x00\n        /* \"#utility.yul\":1648:1657   */\n      dup4\n        /* \"#utility.yul\":1644:1661   */\n      add\n        /* \"#utility.yul\":1635:1641   */\n      dup5\n        /* \"#utility.yul\":1575:1662   */\n      tag_40\n      jump\t// in\n    tag_85:\n        /* \"#utility.yul\":1415:1669   */\n      swap3\n      swap2\n      pop\n      pop\n      jump\t// out\n        /* \"#utility.yul\":1675:1797   */\n    tag_41:\n        /* \"#utility.yul\":1750:1756   */\n      0x00\n        /* \"#utility.yul\":1784:1789   */\n      dup2\n        /* \"#utility.yul\":1778:1790   */\n      mload\n        /* \"#utility.yul\":1768:1790   */\n      swap1\n      pop\n        /* \"#utility.yul\":1675:1797   */\n      swap2\n      swap1\n      pop\n      jump\t// out\n        /* \"#utility.yul\":1803:1995   */\n    tag_42:\n        /* \"#utility.yul\":1910:1921   */\n      0x00\n        /* \"#utility.yul\":1944:1950   */\n      dup3\n        /* \"#utility.yul\":1939:1942   */\n      dup3\n        /* \"#utility.yul\":1932:1951   */\n      mstore\n        /* \"#utility.yul\":1984:1988   */\n      0x20\n        /* \"#utility.yul\":1979:1982   */\n      dup3\n        /* \"#utility.yul\":1975:1989   */\n      add\n        /* \"#utility.yul\":1960:1989   */\n      swap1\n      pop\n        /* \"#utility.yul\":1803:1995   */\n      swap3\n      swap2\n      pop\n      pop\n      jump\t// out\n        /* \"#utility.yul\":2001:2141   */\n    tag_43:\n        /* \"#utility.yul\":2076:2080   */\n      0x00\n        /* \"#utility.yul\":2099:2102   */\n      dup2\n        /* \"#utility.yul\":2091:2102   */\n      swap1\n      pop\n        /* \"#utility.yul\":2129:2133   */\n      0x20\n        /* \"#utility.yul\":2124:2127   */\n      dup3\n        /* \"#utility.yul\":2120:2134   */\n      add\n        /* \"#utility.yul\":2112:2134   */\n      swap1\n      pop\n        /* \"#utility.yul\":2001:2141   */\n      swap2\n      swap1\n      pop\n      jump\t// out\n        /* \"#utility.yul\":2147:2279   */\n    tag_44:\n        /* \"#utility.yul\":2240:2272   */\n      tag_90\n        /* \"#utility.yul\":2266:2271   */\n      dup2\n        /* \"#utility.yul\":2240:2272   */\n      tag_39\n      jump\t// in\n    tag_90:\n        /* \"#utility.yul\":2235:2238   */\n      dup3\n        /* \"#utility.yul\":2228:2273   */\n      mstore\n        /* \"#utility.yul\":2147:2279   */\n      pop\n      pop\n      jump\t// out\n        /* \"#utility.yul\":2285:2496   */\n    tag_45:\n        /* \"#utility.yul\":2370:2380   */\n      0x00\n        /* \"#utility.yul\":2391:2453   */\n      tag_92\n        /* \"#utility.yul\":2449:2452   */\n      dup4\n        /* \"#utility.yul\":2441:2447   */\n      dup4\n        /* \"#utility.yul\":2391:2453   */\n      tag_44\n      jump\t// in\n    tag_92:\n        /* \"#utility.yul\":2485:2489   */\n      0x20\n        /* \"#utility.yul\":2480:2483   */\n      dup4\n        /* \"#utility.yul\":2476:2490   */\n      add\n        /* \"#utility.yul\":2462:2490   */\n      swap1\n      pop\n        /* \"#utility.yul\":2285:2496   */\n      swap3\n      swap2\n      pop\n      pop\n      jump\t// out\n        /* \"#utility.yul\":2502:2623   */\n    tag_46:\n        /* \"#utility.yul\":2580:2584   */\n      0x00\n        /* \"#utility.yul\":2612:2616   */\n      0x20\n        /* \"#utility.yul\":2607:2610   */\n      dup3\n        /* \"#utility.yul\":2603:2617   */\n      add\n        /* \"#utility.yul\":2595:2617   */\n      swap1\n      pop\n        /* \"#utility.yul\":2502:2623   */\n      swap2\n      swap1\n      pop\n      jump\t// out\n        /* \"#utility.yul\":2675:3471   */\n    tag_47:\n        /* \"#utility.yul\":2810:2813   */\n      0x00\n        /* \"#utility.yul\":2839:2901   */\n      tag_95\n        /* \"#utility.yul\":2895:2900   */\n      dup3\n        /* \"#utility.yul\":2839:2901   */\n      tag_41\n      jump\t// in\n    tag_95:\n        /* \"#utility.yul\":2917:3011   */\n      tag_96\n        /* \"#utility.yul\":3004:3010   */\n      dup2\n        /* \"#utility.yul\":2999:3002   */\n      dup6\n        /* \"#utility.yul\":2917:3011   */\n      tag_42\n      jump\t// in\n    tag_96:\n        /* \"#utility.yul\":2910:3011   */\n      swap4\n      pop\n        /* \"#utility.yul\":3035:3099   */\n      tag_97\n        /* \"#utility.yul\":3093:3098   */\n      dup4\n        /* \"#utility.yul\":3035:3099   */\n      tag_43\n      jump\t// in\n    tag_97:\n        /* \"#utility.yul\":3122:3129   */\n      dup1\n        /* \"#utility.yul\":3153:3154   */\n      0x00\n        /* \"#utility.yul\":3138:3446   */\n    tag_98:\n        /* \"#utility.yul\":3163:3169   */\n      dup4\n        /* \"#utility.yul\":3160:3161   */\n      dup2\n        /* \"#utility.yul\":3157:3170   */\n      lt\n        /* \"#utility.yul\":3138:3446   */\n      iszero\n      tag_100\n      jumpi\n        /* \"#utility.yul\":3239:3245   */\n      dup2\n        /* \"#utility.yul\":3233:3246   */\n      mload\n        /* \"#utility.yul\":3266:3345   */\n      tag_101\n        /* \"#utility.yul\":3341:3344   */\n      dup9\n        /* \"#utility.yul\":3326:3339   */\n      dup3\n        /* \"#utility.yul\":3266:3345   */\n      tag_45\n      jump\t// in\n    tag_101:\n        /* \"#utility.yul\":3259:3345   */\n      swap8\n      pop\n        /* \"#utility.yul\":3368:3436   */\n      tag_102\n        /* \"#utility.yul\":3429:3435   */\n      dup4\n        /* \"#utility.yul\":3368:3436   */\n      tag_46\n      jump\t// in\n    tag_102:\n        /* \"#utility.yul\":3358:3436   */\n      swap3\n      pop\n        /* \"#utility.yul\":3198:3446   */\n      pop\n        /* \"#utility.yul\":3185:3186   */\n      0x01\n        /* \"#utility.yul\":3182:3183   */\n      dup2\n        /* \"#utility.yul\":3178:3187   */\n      add\n        /* \"#utility.yul\":3173:3187   */\n      swap1\n      pop\n        /* \"#utility.yul\":3138:3446   */\n      jump(tag_98)\n    tag_100:\n        /* \"#utility.yul\":3142:3156   */\n      pop\n        /* \"#utility.yul\":3462:3465   */\n      dup6\n        /* \"#utility.yul\":3455:3465   */\n      swap4\n      pop\n        /* \"#utility.yul\":2815:3471   */\n      pop\n      pop\n      pop\n        /* \"#utility.yul\":2675:3471   */\n      swap3\n      swap2\n      pop\n      pop\n      jump\t// out\n        /* \"#utility.yul\":3477:3882   */\n    tag_15:\n        /* \"#utility.yul\":3636:3640   */\n      0x00\n        /* \"#utility.yul\":3674:3676   */\n      0x20\n        /* \"#utility.yul\":3663:3672   */\n      dup3\n        /* \"#utility.yul\":3659:3677   */\n      add\n        /* \"#utility.yul\":3651:3677   */\n      swap1\n      pop\n        /* \"#utility.yul\":3723:3732   */\n      dup2\n        /* \"#utility.yul\":3717:3721   */\n      dup2\n        /* \"#utility.yul\":3713:3733   */\n      sub\n        /* \"#utility.yul\":3709:3710   */\n      0x00\n        /* \"#utility.yul\":3698:3707   */\n      dup4\n        /* \"#utility.yul\":3694:3711   */\n      add\n        /* \"#utility.yul\":3687:3734   */\n      mstore\n        /* \"#utility.yul\":3751:3875   */\n      tag_104\n        /* \"#utility.yul\":3870:3874   */\n      dup2\n        /* \"#utility.yul\":3861:3867   */\n      dup5\n        /* \"#utility.yul\":3751:3875   */\n      tag_47\n      jump\t// in\n    tag_104:\n        /* \"#utility.yul\":3743:3875   */\n      swap1\n      pop\n        /* \"#utility.yul\":3477:3882   */\n      swap3\n      swap2\n      pop\n      pop\n      jump\t// out\n        /* \"#utility.yul\":3888:4005   */\n    tag_48:\n        /* \"#utility.yul\":3997:3998   */\n      0x00\n        /* \"#utility.yul\":3994:3995   */\n      dup1\n        /* \"#utility.yul\":3987:3999   */\n      revert\n        /* \"#utility.yul\":4011:4128   */\n    tag_49:\n        /* \"#utility.yul\":4120:4121   */\n      0x00\n        /* \"#utility.yul\":4117:4118   */\n      dup1\n        /* \"#utility.yul\":4110:4122   */\n      revert\n        /* \"#utility.yul\":4134:4236   */\n    tag_50:\n        /* \"#utility.yul\":4175:4181   */\n      0x00\n        /* \"#utility.yul\":4226:4228   */\n      0x1f\n        /* \"#utility.yul\":4222:4229   */\n      not\n        /* \"#utility.yul\":4217:4219   */\n      0x1f\n        /* \"#utility.yul\":4210:4215   */\n      dup4\n        /* \"#utility.yul\":4206:4220   */\n      add\n        /* \"#utility.yul\":4202:4230   */\n      and\n        /* \"#utility.yul\":4192:4230   */\n      swap1\n      pop\n        /* \"#utility.yul\":4134:4236   */\n      swap2\n      swap1\n      pop\n      jump\t// out\n        /* \"#utility.yul\":4242:4422   */\n    tag_51:\n        /* \"#utility.yul\":4290:4367   */\n      0x4e487b7100000000000000000000000000000000000000000000000000000000\n        /* \"#utility.yul\":4287:4288   */\n      0x00\n        /* \"#utility.yul\":4280:4368   */\n      mstore\n        /* \"#utility.yul\":4387:4391   */\n      0x41\n        /* \"#utility.yul\":4384:4385   */\n      0x04\n        /* \"#utility.yul\":4377:4392   */\n      mstore\n        /* \"#utility.yul\":4411:4415   */\n      0x24\n        /* \"#utility.yul\":4408:4409   */\n      0x00\n        /* \"#utility.yul\":4401:4416   */\n      revert\n        /* \"#utility.yul\":4428:4709   */\n    tag_52:\n        /* \"#utility.yul\":4511:4538   */\n      tag_110\n        /* \"#utility.yul\":4533:4537   */\n      dup3\n        /* \"#utility.yul\":4511:4538   */\n      tag_50\n      jump\t// in\n    tag_110:\n        /* \"#utility.yul\":4503:4509   */\n      dup2\n        /* \"#utility.yul\":4499:4539   */\n      add\n        /* \"#utility.yul\":4641:4647   */\n      dup2\n        /* \"#utility.yul\":4629:4639   */\n      dup2\n        /* \"#utility.yul\":4626:4648   */\n      lt\n        /* \"#utility.yul\":4605:4623   */\n      0xffffffffffffffff\n        /* \"#utility.yul\":4593:4603   */\n      dup3\n        /* \"#utility.yul\":4590:4624   */\n      gt\n        /* \"#utility.yul\":4587:4649   */\n      or\n        /* \"#utility.yul\":4584:4672   */\n      iszero\n      tag_111\n      jumpi\n        /* \"#utility.yul\":4652:4670   */\n      tag_112\n      tag_51\n      jump\t// in\n    tag_112:\n        /* \"#utility.yul\":4584:4672   */\n    tag_111:\n        /* \"#utility.yul\":4692:4702   */\n      dup1\n        /* \"#utility.yul\":4688:4690   */\n      0x40\n        /* \"#utility.yul\":4681:4703   */\n      mstore\n        /* \"#utility.yul\":4471:4709   */\n      pop\n        /* \"#utility.yul\":4428:4709   */\n      pop\n      pop\n      jump\t// out\n        /* \"#utility.yul\":4715:4844   */\n    tag_53:\n        /* \"#utility.yul\":4749:4755   */\n      0x00\n        /* \"#utility.yul\":4776:4796   */\n      tag_114\n      tag_32\n      jump\t// in\n    tag_114:\n        /* \"#utility.yul\":4766:4796   */\n      swap1\n      pop\n        /* \"#utility.yul\":4805:4838   */\n      tag_115\n        /* \"#utility.yul\":4833:4837   */\n      dup3\n        /* \"#utility.yul\":4825:4831   */\n      dup3\n        /* \"#utility.yul\":4805:4838   */\n      tag_52\n      jump\t// in\n    tag_115:\n        /* \"#utility.yul\":4715:4844   */\n      swap2\n      swap1\n      pop\n      jump\t// out\n        /* \"#utility.yul\":4850:5158   */\n    tag_54:\n        /* \"#utility.yul\":4912:4916   */\n      0x00\n        /* \"#utility.yul\":5002:5020   */\n      0xffffffffffffffff\n        /* \"#utility.yul\":4994:5000   */\n      dup3\n        /* \"#utility.yul\":4991:5021   */\n      gt\n        /* \"#utility.yul\":4988:5044   */\n      iszero\n      tag_117\n      jumpi\n        /* \"#utility.yul\":5024:5042   */\n      tag_118\n      tag_51\n      jump\t// in\n    tag_118:\n        /* \"#utility.yul\":4988:5044   */\n    tag_117:\n        /* \"#utility.yul\":5062:5091   */\n      tag_119\n        /* \"#utility.yul\":5084:5090   */\n      dup3\n        /* \"#utility.yul\":5062:5091   */\n      tag_50\n      jump\t// in\n    tag_119:\n        /* \"#utility.yul\":5054:5091   */\n      swap1\n      pop\n        /* \"#utility.yul\":5146:5150   */\n      0x20\n        /* \"#utility.yul\":5140:5144   */\n      dup2\n        /* \"#utility.yul\":5136:5151   */\n      add\n        /* \"#utility.yul\":5128:5151   */\n      swap1\n      pop\n        /* \"#utility.yul\":4850:5158   */\n      swap2\n      swap1\n      pop\n      jump\t// out\n        /* \"#utility.yul\":5164:5318   */\n    tag_55:\n        /* \"#utility.yul\":5248:5254   */\n      dup3\n        /* \"#utility.yul\":5243:5246   */\n      dup2\n        /* \"#utility.yul\":5238:5241   */\n      dup4\n        /* \"#utility.yul\":5225:5255   */\n      calldatacopy\n        /* \"#utility.yul\":5310:5311   */\n      0x00\n        /* \"#utility.yul\":5301:5307   */\n      dup4\n        /* \"#utility.yul\":5296:5299   */\n      dup4\n        /* \"#utility.yul\":5292:5308   */\n      add\n        /* \"#utility.yul\":5285:5312   */\n      mstore\n        /* \"#utility.yul\":5164:5318   */\n      pop\n      pop\n      pop\n      jump\t// out\n        /* \"#utility.yul\":5324:5736   */\n    tag_56:\n        /* \"#utility.yul\":5402:5407   */\n      0x00\n        /* \"#utility.yul\":5427:5493   */\n      tag_122\n        /* \"#utility.yul\":5443:5492   */\n      tag_123\n        /* \"#utility.yul\":5485:5491   */\n      dup5\n        /* \"#utility.yul\":5443:5492   */\n      tag_54\n      jump\t// in\n    tag_123:\n        /* \"#utility.yul\":5427:5493   */\n      tag_53\n      jump\t// in\n    tag_122:\n        /* \"#utility.yul\":5418:5493   */\n      swap1\n      pop\n        /* \"#utility.yul\":5516:5522   */\n      dup3\n        /* \"#utility.yul\":5509:5514   */\n      dup2\n        /* \"#utility.yul\":5502:5523   */\n      mstore\n        /* \"#utility.yul\":5554:5558   */\n      0x20\n        /* \"#utility.yul\":5547:5552   */\n      dup2\n        /* \"#utility.yul\":5543:5559   */\n      add\n        /* \"#utility.yul\":5592:5595   */\n      dup5\n        /* \"#utility.yul\":5583:5589   */\n      dup5\n        /* \"#utility.yul\":5578:5581   */\n      dup5\n        /* \"#utility.yul\":5574:5590   */\n      add\n        /* \"#utility.yul\":5571:5596   */\n      gt\n        /* \"#utility.yul\":5568:5680   */\n      iszero\n      tag_124\n      jumpi\n        /* \"#utility.yul\":5599:5678   */\n      tag_125\n      tag_49\n      jump\t// in\n    tag_125:\n        /* \"#utility.yul\":5568:5680   */\n    tag_124:\n        /* \"#utility.yul\":5689:5730   */\n      tag_126\n        /* \"#utility.yul\":5723:5729   */\n      dup5\n        /* \"#utility.yul\":5718:5721   */\n      dup3\n        /* \"#utility.yul\":5713:5716   */\n      dup6\n        /* \"#utility.yul\":5689:5730   */\n      tag_55\n      jump\t// in\n    tag_126:\n        /* \"#utility.yul\":5408:5736   */\n      pop\n        /* \"#utility.yul\":5324:5736   */\n      swap4\n      swap3\n      pop\n      pop\n      pop\n      jump\t// out\n        /* \"#utility.yul\":5756:6096   */\n    tag_57:\n        /* \"#utility.yul\":5812:5817   */\n      0x00\n        /* \"#utility.yul\":5861:5864   */\n      dup3\n        /* \"#utility.yul\":5854:5858   */\n      0x1f\n        /* \"#utility.yul\":5846:5852   */\n      dup4\n        /* \"#utility.yul\":5842:5859   */\n      add\n        /* \"#utility.yul\":5838:5865   */\n      slt\n        /* \"#utility.yul\":5828:5950   */\n      tag_128\n      jumpi\n        /* \"#utility.yul\":5869:5948   */\n      tag_129\n      tag_48\n      jump\t// in\n    tag_129:\n        /* \"#utility.yul\":5828:5950   */\n    tag_128:\n        /* \"#utility.yul\":5986:5992   */\n      dup2\n        /* \"#utility.yul\":5973:5993   */\n      calldataload\n        /* \"#utility.yul\":6011:6090   */\n      tag_130\n        /* \"#utility.yul\":6086:6089   */\n      dup5\n        /* \"#utility.yul\":6078:6084   */\n      dup3\n        /* \"#utility.yul\":6071:6075   */\n      0x20\n        /* \"#utility.yul\":6063:6069   */\n      dup7\n        /* \"#utility.yul\":6059:6076   */\n      add\n        /* \"#utility.yul\":6011:6090   */\n      tag_56\n      jump\t// in\n    tag_130:\n        /* \"#utility.yul\":6002:6090   */\n      swap2\n      pop\n        /* \"#utility.yul\":5818:6096   */\n      pop\n        /* \"#utility.yul\":5756:6096   */\n      swap3\n      swap2\n      pop\n      pop\n      jump\t// out\n        /* \"#utility.yul\":6102:7553   */\n    tag_18:\n        /* \"#utility.yul\":6227:6233   */\n      0x00\n        /* \"#utility.yul\":6235:6241   */\n      dup1\n        /* \"#utility.yul\":6243:6249   */\n      0x00\n        /* \"#utility.yul\":6251:6257   */\n      dup1\n        /* \"#utility.yul\":6259:6265   */\n      0x00\n        /* \"#utility.yul\":6308:6311   */\n      0xa0\n        /* \"#utility.yul\":6296:6305   */\n      dup7\n        /* \"#utility.yul\":6287:6294   */\n      dup9\n        /* \"#utility.yul\":6283:6306   */\n      sub\n        /* \"#utility.yul\":6279:6312   */\n      slt\n        /* \"#utility.yul\":6276:6396   */\n      iszero\n      tag_132\n      jumpi\n        /* \"#utility.yul\":6315:6394   */\n      tag_133\n      tag_33\n      jump\t// in\n    tag_133:\n        /* \"#utility.yul\":6276:6396   */\n    tag_132:\n        /* \"#utility.yul\":6435:6436   */\n      0x00\n        /* \"#utility.yul\":6460:6513   */\n      tag_134\n        /* \"#utility.yul\":6505:6512   */\n      dup9\n        /* \"#utility.yul\":6496:6502   */\n      dup3\n        /* \"#utility.yul\":6485:6494   */\n      dup10\n        /* \"#utility.yul\":6481:6503   */\n      add\n        /* \"#utility.yul\":6460:6513   */\n      tag_37\n      jump\t// in\n    tag_134:\n        /* \"#utility.yul\":6450:6513   */\n      swap6\n      pop\n        /* \"#utility.yul\":6406:6523   */\n      pop\n        /* \"#utility.yul\":6590:6592   */\n      0x20\n        /* \"#utility.yul\":6579:6588   */\n      dup7\n        /* \"#utility.yul\":6575:6593   */\n      add\n        /* \"#utility.yul\":6562:6594   */\n      calldataload\n        /* \"#utility.yul\":6621:6639   */\n      0xffffffffffffffff\n        /* \"#utility.yul\":6613:6619   */\n      dup2\n        /* \"#utility.yul\":6610:6640   */\n      gt\n        /* \"#utility.yul\":6607:6724   */\n      iszero\n      tag_135\n      jumpi\n        /* \"#utility.yul\":6643:6722   */\n      tag_136\n      tag_34\n      jump\t// in\n    tag_136:\n        /* \"#utility.yul\":6607:6724   */\n    tag_135:\n        /* \"#utility.yul\":6748:6811   */\n      tag_137\n        /* \"#utility.yul\":6803:6810   */\n      dup9\n        /* \"#utility.yul\":6794:6800   */\n      dup3\n        /* \"#utility.yul\":6783:6792   */\n      dup10\n        /* \"#utility.yul\":6779:6801   */\n      add\n        /* \"#utility.yul\":6748:6811   */\n      tag_57\n      jump\t// in\n    tag_137:\n        /* \"#utility.yul\":6738:6811   */\n      swap5\n      pop\n        /* \"#utility.yul\":6533:6821   */\n      pop\n        /* \"#utility.yul\":6888:6890   */\n      0x40\n        /* \"#utility.yul\":6877:6886   */\n      dup7\n        /* \"#utility.yul\":6873:6891   */\n      add\n        /* \"#utility.yul\":6860:6892   */\n      calldataload\n        /* \"#utility.yul\":6919:6937   */\n      0xffffffffffffffff\n        /* \"#utility.yul\":6911:6917   */\n      dup2\n        /* \"#utility.yul\":6908:6938   */\n      gt\n        /* \"#utility.yul\":6905:7022   */\n      iszero\n      tag_138\n      jumpi\n        /* \"#utility.yul\":6941:7020   */\n      tag_139\n      tag_34\n      jump\t// in\n    tag_139:\n        /* \"#utility.yul\":6905:7022   */\n    tag_138:\n        /* \"#utility.yul\":7046:7109   */\n      tag_140\n        /* \"#utility.yul\":7101:7108   */\n      dup9\n        /* \"#utility.yul\":7092:7098   */\n      dup3\n        /* \"#utility.yul\":7081:7090   */\n      dup10\n        /* \"#utility.yul\":7077:7099   */\n      add\n        /* \"#utility.yul\":7046:7109   */\n      tag_57\n      jump\t// in\n    tag_140:\n        /* \"#utility.yul\":7036:7109   */\n      swap4\n      pop\n        /* \"#utility.yul\":6831:7119   */\n      pop\n        /* \"#utility.yul\":7186:7188   */\n      0x60\n        /* \"#utility.yul\":7175:7184   */\n      dup7\n        /* \"#utility.yul\":7171:7189   */\n      add\n        /* \"#utility.yul\":7158:7190   */\n      calldataload\n        /* \"#utility.yul\":7217:7235   */\n      0xffffffffffffffff\n        /* \"#utility.yul\":7209:7215   */\n      dup2\n        /* \"#utility.yul\":7206:7236   */\n      gt\n        /* \"#utility.yul\":7203:7320   */\n      iszero\n      tag_141\n      jumpi\n        /* \"#utility.yul\":7239:7318   */\n      tag_142\n      tag_34\n      jump\t// in\n    tag_142:\n        /* \"#utility.yul\":7203:7320   */\n    tag_141:\n        /* \"#utility.yul\":7344:7407   */\n      tag_143\n        /* \"#utility.yul\":7399:7406   */\n      dup9\n        /* \"#utility.yul\":7390:7396   */\n      dup3\n        /* \"#utility.yul\":7379:7388   */\n      dup10\n        /* \"#utility.yul\":7375:7397   */\n      add\n        /* \"#utility.yul\":7344:7407   */\n      tag_57\n      jump\t// in\n    tag_143:\n        /* \"#utility.yul\":7334:7407   */\n      swap3\n      pop\n        /* \"#utility.yul\":7129:7417   */\n      pop\n        /* \"#utility.yul\":7456:7459   */\n      0x80\n        /* \"#utility.yul\":7483:7536   */\n      tag_144\n        /* \"#utility.yul\":7528:7535   */\n      dup9\n        /* \"#utility.yul\":7519:7525   */\n      dup3\n        /* \"#utility.yul\":7508:7517   */\n      dup10\n        /* \"#utility.yul\":7504:7526   */\n      add\n        /* \"#utility.yul\":7483:7536   */\n      tag_37\n      jump\t// in\n    tag_144:\n        /* \"#utility.yul\":7473:7536   */\n      swap2\n      pop\n        /* \"#utility.yul\":7427:7546   */\n      pop\n        /* \"#utility.yul\":6102:7553   */\n      swap3\n      swap6\n      pop\n      swap3\n      swap6\n      swap1\n      swap4\n      pop\n      jump\t// out\n        /* \"#utility.yul\":7559:7677   */\n    tag_58:\n        /* \"#utility.yul\":7646:7670   */\n      tag_146\n        /* \"#utility.yul\":7664:7669   */\n      dup2\n        /* \"#utility.yul\":7646:7670   */\n      tag_35\n      jump\t// in\n    tag_146:\n        /* \"#utility.yul\":7641:7644   */\n      dup3\n        /* \"#utility.yul\":7634:7671   */\n      mstore\n        /* \"#utility.yul\":7559:7677   */\n      pop\n      pop\n      jump\t// out\n        /* \"#utility.yul\":7683:7779   */\n    tag_59:\n        /* \"#utility.yul\":7720:7727   */\n      0x00\n        /* \"#utility.yul\":7749:7773   */\n      tag_148\n        /* \"#utility.yul\":7767:7772   */\n      dup3\n        /* \"#utility.yul\":7749:7773   */\n      tag_38\n      jump\t// in\n    tag_148:\n        /* \"#utility.yul\":7738:7773   */\n      swap1\n      pop\n        /* \"#utility.yul\":7683:7779   */\n      swap2\n      swap1\n      pop\n      jump\t// out\n        /* \"#utility.yul\":7785:7903   */\n    tag_60:\n        /* \"#utility.yul\":7872:7896   */\n      tag_150\n        /* \"#utility.yul\":7890:7895   */\n      dup2\n        /* \"#utility.yul\":7872:7896   */\n      tag_59\n      jump\t// in\n    tag_150:\n        /* \"#utility.yul\":7867:7870   */\n      dup3\n        /* \"#utility.yul\":7860:7897   */\n      mstore\n        /* \"#utility.yul\":7785:7903   */\n      pop\n      pop\n      jump\t// out\n        /* \"#utility.yul\":7909:8008   */\n    tag_61:\n        /* \"#utility.yul\":7961:7967   */\n      0x00\n        /* \"#utility.yul\":7995:8000   */\n      dup2\n        /* \"#utility.yul\":7989:8001   */\n      mload\n        /* \"#utility.yul\":7979:8001   */\n      swap1\n      pop\n        /* \"#utility.yul\":7909:8008   */\n      swap2\n      swap1\n      pop\n      jump\t// out\n        /* \"#utility.yul\":8014:8183   */\n    tag_62:\n        /* \"#utility.yul\":8098:8109   */\n      0x00\n        /* \"#utility.yul\":8132:8138   */\n      dup3\n        /* \"#utility.yul\":8127:8130   */\n      dup3\n        /* \"#utility.yul\":8120:8139   */\n      mstore\n        /* \"#utility.yul\":8172:8176   */\n      0x20\n        /* \"#utility.yul\":8167:8170   */\n      dup3\n        /* \"#utility.yul\":8163:8177   */\n      add\n        /* \"#utility.yul\":8148:8177   */\n      swap1\n      pop\n        /* \"#utility.yul\":8014:8183   */\n      swap3\n      swap2\n      pop\n      pop\n      jump\t// out\n        /* \"#utility.yul\":8189:8496   */\n    tag_63:\n        /* \"#utility.yul\":8257:8258   */\n      0x00\n        /* \"#utility.yul\":8267:8380   */\n    tag_154:\n        /* \"#utility.yul\":8281:8287   */\n      dup4\n        /* \"#utility.yul\":8278:8279   */\n      dup2\n        /* \"#utility.yul\":8275:8288   */\n      lt\n        /* \"#utility.yul\":8267:8380   */\n      iszero\n      tag_156\n      jumpi\n        /* \"#utility.yul\":8366:8367   */\n      dup1\n        /* \"#utility.yul\":8361:8364   */\n      dup3\n        /* \"#utility.yul\":8357:8368   */\n      add\n        /* \"#utility.yul\":8351:8369   */\n      mload\n        /* \"#utility.yul\":8347:8348   */\n      dup2\n        /* \"#utility.yul\":8342:8345   */\n      dup5\n        /* \"#utility.yul\":8338:8349   */\n      add\n        /* \"#utility.yul\":8331:8370   */\n      mstore\n        /* \"#utility.yul\":8303:8305   */\n      0x20\n        /* \"#utility.yul\":8300:8301   */\n      dup2\n        /* \"#utility.yul\":8296:8306   */\n      add\n        /* \"#utility.yul\":8291:8306   */\n      swap1\n      pop\n        /* \"#utility.yul\":8267:8380   */\n      jump(tag_154)\n    tag_156:\n        /* \"#utility.yul\":8398:8404   */\n      dup4\n        /* \"#utility.yul\":8395:8396   */\n      dup2\n        /* \"#utility.yul\":8392:8405   */\n      gt\n        /* \"#utility.yul\":8389:8490   */\n      iszero\n      tag_157\n      jumpi\n        /* \"#utility.yul\":8478:8479   */\n      0x00\n        /* \"#utility.yul\":8469:8475   */\n      dup5\n        /* \"#utility.yul\":8464:8467   */\n      dup5\n        /* \"#utility.yul\":8460:8476   */\n      add\n        /* \"#utility.yul\":8453:8480   */\n      mstore\n        /* \"#utility.yul\":8389:8490   */\n    tag_157:\n        /* \"#utility.yul\":8238:8496   */\n      pop\n        /* \"#utility.yul\":8189:8496   */\n      pop\n      pop\n      pop\n      jump\t// out\n        /* \"#utility.yul\":8502:8866   */\n    tag_64:\n        /* \"#utility.yul\":8590:8593   */\n      0x00\n        /* \"#utility.yul\":8618:8657   */\n      tag_159\n        /* \"#utility.yul\":8651:8656   */\n      dup3\n        /* \"#utility.yul\":8618:8657   */\n      tag_61\n      jump\t// in\n    tag_159:\n        /* \"#utility.yul\":8673:8744   */\n      tag_160\n        /* \"#utility.yul\":8737:8743   */\n      dup2\n        /* \"#utility.yul\":8732:8735   */\n      dup6\n        /* \"#utility.yul\":8673:8744   */\n      tag_62\n      jump\t// in\n    tag_160:\n        /* \"#utility.yul\":8666:8744   */\n      swap4\n      pop\n        /* \"#utility.yul\":8753:8805   */\n      tag_161\n        /* \"#utility.yul\":8798:8804   */\n      dup2\n        /* \"#utility.yul\":8793:8796   */\n      dup6\n        /* \"#utility.yul\":8786:8790   */\n      0x20\n        /* \"#utility.yul\":8779:8784   */\n      dup7\n        /* \"#utility.yul\":8775:8791   */\n      add\n        /* \"#utility.yul\":8753:8805   */\n      tag_63\n      jump\t// in\n    tag_161:\n        /* \"#utility.yul\":8830:8859   */\n      tag_162\n        /* \"#utility.yul\":8852:8858   */\n      dup2\n        /* \"#utility.yul\":8830:8859   */\n      tag_50\n      jump\t// in\n    tag_162:\n        /* \"#utility.yul\":8825:8828   */\n      dup5\n        /* \"#utility.yul\":8821:8860   */\n      add\n        /* \"#utility.yul\":8814:8860   */\n      swap2\n      pop\n        /* \"#utility.yul\":8594:8866   */\n      pop\n        /* \"#utility.yul\":8502:8866   */\n      swap3\n      swap2\n      pop\n      pop\n      jump\t// out\n        /* \"#utility.yul\":8872:9920   */\n    tag_29:\n        /* \"#utility.yul\":9165:9169   */\n      0x00\n        /* \"#utility.yul\":9203:9206   */\n      0xc0\n        /* \"#utility.yul\":9192:9201   */\n      dup3\n        /* \"#utility.yul\":9188:9207   */\n      add\n        /* \"#utility.yul\":9180:9207   */\n      swap1\n      pop\n        /* \"#utility.yul\":9217:9288   */\n      tag_164\n        /* \"#utility.yul\":9285:9286   */\n      0x00\n        /* \"#utility.yul\":9274:9283   */\n      dup4\n        /* \"#utility.yul\":9270:9287   */\n      add\n        /* \"#utility.yul\":9261:9267   */\n      dup10\n        /* \"#utility.yul\":9217:9288   */\n      tag_58\n      jump\t// in\n    tag_164:\n        /* \"#utility.yul\":9298:9370   */\n      tag_165\n        /* \"#utility.yul\":9366:9368   */\n      0x20\n        /* \"#utility.yul\":9355:9364   */\n      dup4\n        /* \"#utility.yul\":9351:9369   */\n      add\n        /* \"#utility.yul\":9342:9348   */\n      dup9\n        /* \"#utility.yul\":9298:9370   */\n      tag_60\n      jump\t// in\n    tag_165:\n        /* \"#utility.yul\":9417:9426   */\n      dup2\n        /* \"#utility.yul\":9411:9415   */\n      dup2\n        /* \"#utility.yul\":9407:9427   */\n      sub\n        /* \"#utility.yul\":9402:9404   */\n      0x40\n        /* \"#utility.yul\":9391:9400   */\n      dup4\n        /* \"#utility.yul\":9387:9405   */\n      add\n        /* \"#utility.yul\":9380:9428   */\n      mstore\n        /* \"#utility.yul\":9445:9523   */\n      tag_166\n        /* \"#utility.yul\":9518:9522   */\n      dup2\n        /* \"#utility.yul\":9509:9515   */\n      dup8\n        /* \"#utility.yul\":9445:9523   */\n      tag_64\n      jump\t// in\n    tag_166:\n        /* \"#utility.yul\":9437:9523   */\n      swap1\n      pop\n        /* \"#utility.yul\":9570:9579   */\n      dup2\n        /* \"#utility.yul\":9564:9568   */\n      dup2\n        /* \"#utility.yul\":9560:9580   */\n      sub\n        /* \"#utility.yul\":9555:9557   */\n      0x60\n        /* \"#utility.yul\":9544:9553   */\n      dup4\n        /* \"#utility.yul\":9540:9558   */\n      add\n        /* \"#utility.yul\":9533:9581   */\n      mstore\n        /* \"#utility.yul\":9598:9676   */\n      tag_167\n        /* \"#utility.yul\":9671:9675   */\n      dup2\n        /* \"#utility.yul\":9662:9668   */\n      dup7\n        /* \"#utility.yul\":9598:9676   */\n      tag_64\n      jump\t// in\n    tag_167:\n        /* \"#utility.yul\":9590:9676   */\n      swap1\n      pop\n        /* \"#utility.yul\":9724:9733   */\n      dup2\n        /* \"#utility.yul\":9718:9722   */\n      dup2\n        /* \"#utility.yul\":9714:9734   */\n      sub\n        /* \"#utility.yul\":9708:9711   */\n      0x80\n        /* \"#utility.yul\":9697:9706   */\n      dup4\n        /* \"#utility.yul\":9693:9712   */\n      add\n        /* \"#utility.yul\":9686:9735   */\n      mstore\n        /* \"#utility.yul\":9752:9830   */\n      tag_168\n        /* \"#utility.yul\":9825:9829   */\n      dup2\n        /* \"#utility.yul\":9816:9822   */\n      dup6\n        /* \"#utility.yul\":9752:9830   */\n      tag_64\n      jump\t// in\n    tag_168:\n        /* \"#utility.yul\":9744:9830   */\n      swap1\n      pop\n        /* \"#utility.yul\":9840:9913   */\n      tag_169\n        /* \"#utility.yul\":9908:9911   */\n      0xa0\n        /* \"#utility.yul\":9897:9906   */\n      dup4\n        /* \"#utility.yul\":9893:9912   */\n      add\n        /* \"#utility.yul\":9884:9890   */\n      dup5\n        /* \"#utility.yul\":9840:9913   */\n      tag_58\n      jump\t// in\n    tag_169:\n        /* \"#utility.yul\":8872:9920   */\n      swap8\n      swap7\n      pop\n      pop\n      pop\n      pop\n      pop\n      pop\n      pop\n      jump\t// out\n    stop\n\n    sub_0: assembly {\n            /* \"Campaign.sol\":555:3127  contract Campaign {... */\n          mstore(0x40, 0x80)\n            /* \"Campaign.sol\":1170:1487  constructor (uint minimum, address creator,string memory name,string memory description,string memory image,uint target) {... */\n          callvalue\n          dup1\n          iszero\n          tag_1\n          jumpi\n          0x00\n          dup1\n          revert\n        tag_1:\n          pop\n          mload(0x40)\n          sub(codesize, bytecodeSize)\n          dup1\n          bytecodeSize\n          dup4\n          codecopy\n          dup2\n          dup2\n          add\n          0x40\n          mstore\n          dup2\n          add\n          swap1\n          tag_2\n          swap2\n          swap1\n          tag_3\n          jump\t// in\n        tag_2:\n            /* \"Campaign.sol\":1311:1318  creator */\n          dup5\n            /* \"Campaign.sol\":1301:1308  manager */\n          0x01\n          0x00\n            /* \"Campaign.sol\":1301:1318  manager = creator */\n          0x0100\n          exp\n          dup2\n          sload\n          dup2\n          0xffffffffffffffffffffffffffffffffffffffff\n          mul\n          not\n          and\n          swap1\n          dup4\n          0xffffffffffffffffffffffffffffffffffffffff\n          and\n          mul\n          or\n          swap1\n          sstore\n          pop\n            /* \"Campaign.sol\":1350:1357  minimum */\n          dup6\n            /* \"Campaign.sol\":1328:1347  minimumContribution */\n          0x02\n            /* \"Campaign.sol\":1328:1357  minimumContribution = minimum */\n          dup2\n          swap1\n          sstore\n          pop\n            /* \"Campaign.sol\":1380:1384  name */\n          dup4\n            /* \"Campaign.sol\":1367:1379  CampaignName */\n          0x05\n            /* \"Campaign.sol\":1367:1384  CampaignName=name */\n          swap1\n          dup2\n          tag_6\n          swap2\n          swap1\n          tag_7\n          jump\t// in\n        tag_6:\n          pop\n            /* \"Campaign.sol\":1414:1425  description */\n          dup3\n            /* \"Campaign.sol\":1394:1413  CampaignDescription */\n          0x06\n            /* \"Campaign.sol\":1394:1425  CampaignDescription=description */\n          swap1\n          dup2\n          tag_8\n          swap2\n          swap1\n          tag_7\n          jump\t// in\n        tag_8:\n          pop\n            /* \"Campaign.sol\":1444:1449  image */\n          dup2\n            /* \"Campaign.sol\":1435:1443  imageUrl */\n          0x07\n            /* \"Campaign.sol\":1435:1449  imageUrl=image */\n          swap1\n          dup2\n          tag_9\n          swap2\n          swap1\n          tag_7\n          jump\t// in\n        tag_9:\n          pop\n            /* \"Campaign.sol\":1474:1480  target */\n          dup1\n            /* \"Campaign.sol\":1459:1473  targetToAchive */\n          0x08\n            /* \"Campaign.sol\":1459:1480  targetToAchive=target */\n          dup2\n          swap1\n          sstore\n          pop\n            /* \"Campaign.sol\":1170:1487  constructor (uint minimum, address creator,string memory name,string memory description,string memory image,uint target) {... */\n          pop\n          pop\n          pop\n          pop\n          pop\n          pop\n            /* \"Campaign.sol\":555:3127  contract Campaign {... */\n          jump(tag_10)\n            /* \"#utility.yul\":7:82   */\n        tag_11:\n            /* \"#utility.yul\":40:46   */\n          0x00\n            /* \"#utility.yul\":73:75   */\n          0x40\n            /* \"#utility.yul\":67:76   */\n          mload\n            /* \"#utility.yul\":57:76   */\n          swap1\n          pop\n            /* \"#utility.yul\":7:82   */\n          swap1\n          jump\t// out\n            /* \"#utility.yul\":88:205   */\n        tag_12:\n            /* \"#utility.yul\":197:198   */\n          0x00\n            /* \"#utility.yul\":194:195   */\n          dup1\n            /* \"#utility.yul\":187:199   */\n          revert\n            /* \"#utility.yul\":211:328   */\n        tag_13:\n            /* \"#utility.yul\":320:321   */\n          0x00\n            /* \"#utility.yul\":317:318   */\n          dup1\n            /* \"#utility.yul\":310:322   */\n          revert\n            /* \"#utility.yul\":334:411   */\n        tag_14:\n            /* \"#utility.yul\":371:378   */\n          0x00\n            /* \"#utility.yul\":400:405   */\n          dup2\n            /* \"#utility.yul\":389:405   */\n          swap1\n          pop\n            /* \"#utility.yul\":334:411   */\n          swap2\n          swap1\n          pop\n          jump\t// out\n            /* \"#utility.yul\":417:539   */\n        tag_15:\n            /* \"#utility.yul\":490:514   */\n          tag_55\n            /* \"#utility.yul\":508:513   */\n          dup2\n            /* \"#utility.yul\":490:514   */\n          tag_14\n          jump\t// in\n        tag_55:\n            /* \"#utility.yul\":483:488   */\n          dup2\n            /* \"#utility.yul\":480:515   */\n          eq\n            /* \"#utility.yul\":470:533   */\n          tag_56\n          jumpi\n            /* \"#utility.yul\":529:530   */\n          0x00\n            /* \"#utility.yul\":526:527   */\n          dup1\n            /* \"#utility.yul\":519:531   */\n          revert\n            /* \"#utility.yul\":470:533   */\n        tag_56:\n            /* \"#utility.yul\":417:539   */\n          pop\n          jump\t// out\n            /* \"#utility.yul\":545:688   */\n        tag_16:\n            /* \"#utility.yul\":602:607   */\n          0x00\n            /* \"#utility.yul\":633:639   */\n          dup2\n            /* \"#utility.yul\":627:640   */\n          mload\n            /* \"#utility.yul\":618:640   */\n          swap1\n          pop\n            /* \"#utility.yul\":649:682   */\n          tag_58\n            /* \"#utility.yul\":676:681   */\n          dup2\n            /* \"#utility.yul\":649:682   */\n          tag_15\n          jump\t// in\n        tag_58:\n            /* \"#utility.yul\":545:688   */\n          swap3\n          swap2\n          pop\n          pop\n          jump\t// out\n            /* \"#utility.yul\":694:820   */\n        tag_17:\n            /* \"#utility.yul\":731:738   */\n          0x00\n            /* \"#utility.yul\":771:813   */\n          0xffffffffffffffffffffffffffffffffffffffff\n            /* \"#utility.yul\":764:769   */\n          dup3\n            /* \"#utility.yul\":760:814   */\n          and\n            /* \"#utility.yul\":749:814   */\n          swap1\n          pop\n            /* \"#utility.yul\":694:820   */\n          swap2\n          swap1\n          pop\n          jump\t// out\n            /* \"#utility.yul\":826:922   */\n        tag_18:\n            /* \"#utility.yul\":863:870   */\n          0x00\n            /* \"#utility.yul\":892:916   */\n          tag_61\n            /* \"#utility.yul\":910:915   */\n          dup3\n            /* \"#utility.yul\":892:916   */\n          tag_17\n          jump\t// in\n        tag_61:\n            /* \"#utility.yul\":881:916   */\n          swap1\n          pop\n            /* \"#utility.yul\":826:922   */\n          swap2\n          swap1\n          pop\n          jump\t// out\n            /* \"#utility.yul\":928:1050   */\n        tag_19:\n            /* \"#utility.yul\":1001:1025   */\n          tag_63\n            /* \"#utility.yul\":1019:1024   */\n          dup2\n            /* \"#utility.yul\":1001:1025   */\n          tag_18\n          jump\t// in\n        tag_63:\n            /* \"#utility.yul\":994:999   */\n          dup2\n            /* \"#utility.yul\":991:1026   */\n          eq\n            /* \"#utility.yul\":981:1044   */\n          tag_64\n          jumpi\n            /* \"#utility.yul\":1040:1041   */\n          0x00\n            /* \"#utility.yul\":1037:1038   */\n          dup1\n            /* \"#utility.yul\":1030:1042   */\n          revert\n            /* \"#utility.yul\":981:1044   */\n        tag_64:\n            /* \"#utility.yul\":928:1050   */\n          pop\n          jump\t// out\n            /* \"#utility.yul\":1056:1199   */\n        tag_20:\n            /* \"#utility.yul\":1113:1118   */\n          0x00\n            /* \"#utility.yul\":1144:1150   */\n          dup2\n            /* \"#utility.yul\":1138:1151   */\n          mload\n            /* \"#utility.yul\":1129:1151   */\n          swap1\n          pop\n            /* \"#utility.yul\":1160:1193   */\n          tag_66\n            /* \"#utility.yul\":1187:1192   */\n          dup2\n            /* \"#utility.yul\":1160:1193   */\n          tag_19\n          jump\t// in\n        tag_66:\n            /* \"#utility.yul\":1056:1199   */\n          swap3\n          swap2\n          pop\n          pop\n          jump\t// out\n            /* \"#utility.yul\":1205:1322   */\n        tag_21:\n            /* \"#utility.yul\":1314:1315   */\n          0x00\n            /* \"#utility.yul\":1311:1312   */\n          dup1\n            /* \"#utility.yul\":1304:1316   */\n          revert\n            /* \"#utility.yul\":1328:1445   */\n        tag_22:\n            /* \"#utility.yul\":1437:1438   */\n          0x00\n            /* \"#utility.yul\":1434:1435   */\n          dup1\n            /* \"#utility.yul\":1427:1439   */\n          revert\n            /* \"#utility.yul\":1451:1553   */\n        tag_23:\n            /* \"#utility.yul\":1492:1498   */\n          0x00\n            /* \"#utility.yul\":1543:1545   */\n          0x1f\n            /* \"#utility.yul\":1539:1546   */\n          not\n            /* \"#utility.yul\":1534:1536   */\n          0x1f\n            /* \"#utility.yul\":1527:1532   */\n          dup4\n            /* \"#utility.yul\":1523:1537   */\n          add\n            /* \"#utility.yul\":1519:1547   */\n          and\n            /* \"#utility.yul\":1509:1547   */\n          swap1\n          pop\n            /* \"#utility.yul\":1451:1553   */\n          swap2\n          swap1\n          pop\n          jump\t// out\n            /* \"#utility.yul\":1559:1739   */\n        tag_24:\n            /* \"#utility.yul\":1607:1684   */\n          0x4e487b7100000000000000000000000000000000000000000000000000000000\n            /* \"#utility.yul\":1604:1605   */\n          0x00\n            /* \"#utility.yul\":1597:1685   */\n          mstore\n            /* \"#utility.yul\":1704:1708   */\n          0x41\n            /* \"#utility.yul\":1701:1702   */\n          0x04\n            /* \"#utility.yul\":1694:1709   */\n          mstore\n            /* \"#utility.yul\":1728:1732   */\n          0x24\n            /* \"#utility.yul\":1725:1726   */\n          0x00\n            /* \"#utility.yul\":1718:1733   */\n          revert\n            /* \"#utility.yul\":1745:2026   */\n        tag_25:\n            /* \"#utility.yul\":1828:1855   */\n          tag_72\n            /* \"#utility.yul\":1850:1854   */\n          dup3\n            /* \"#utility.yul\":1828:1855   */\n          tag_23\n          jump\t// in\n        tag_72:\n            /* \"#utility.yul\":1820:1826   */\n          dup2\n            /* \"#utility.yul\":1816:1856   */\n          add\n            /* \"#utility.yul\":1958:1964   */\n          dup2\n            /* \"#utility.yul\":1946:1956   */\n          dup2\n            /* \"#utility.yul\":1943:1965   */\n          lt\n            /* \"#utility.yul\":1922:1940   */\n          0xffffffffffffffff\n            /* \"#utility.yul\":1910:1920   */\n          dup3\n            /* \"#utility.yul\":1907:1941   */\n          gt\n            /* \"#utility.yul\":1904:1966   */\n          or\n            /* \"#utility.yul\":1901:1989   */\n          iszero\n          tag_73\n          jumpi\n            /* \"#utility.yul\":1969:1987   */\n          tag_74\n          tag_24\n          jump\t// in\n        tag_74:\n            /* \"#utility.yul\":1901:1989   */\n        tag_73:\n            /* \"#utility.yul\":2009:2019   */\n          dup1\n            /* \"#utility.yul\":2005:2007   */\n          0x40\n            /* \"#utility.yul\":1998:2020   */\n          mstore\n            /* \"#utility.yul\":1788:2026   */\n          pop\n            /* \"#utility.yul\":1745:2026   */\n          pop\n          pop\n          jump\t// out\n            /* \"#utility.yul\":2032:2161   */\n        tag_26:\n            /* \"#utility.yul\":2066:2072   */\n          0x00\n            /* \"#utility.yul\":2093:2113   */\n          tag_76\n          tag_11\n          jump\t// in\n        tag_76:\n            /* \"#utility.yul\":2083:2113   */\n          swap1\n          pop\n            /* \"#utility.yul\":2122:2155   */\n          tag_77\n            /* \"#utility.yul\":2150:2154   */\n          dup3\n            /* \"#utility.yul\":2142:2148   */\n          dup3\n            /* \"#utility.yul\":2122:2155   */\n          tag_25\n          jump\t// in\n        tag_77:\n            /* \"#utility.yul\":2032:2161   */\n          swap2\n          swap1\n          pop\n          jump\t// out\n            /* \"#utility.yul\":2167:2475   */\n        tag_27:\n            /* \"#utility.yul\":2229:2233   */\n          0x00\n            /* \"#utility.yul\":2319:2337   */\n          0xffffffffffffffff\n            /* \"#utility.yul\":2311:2317   */\n          dup3\n            /* \"#utility.yul\":2308:2338   */\n          gt\n            /* \"#utility.yul\":2305:2361   */\n          iszero\n          tag_79\n          jumpi\n            /* \"#utility.yul\":2341:2359   */\n          tag_80\n          tag_24\n          jump\t// in\n        tag_80:\n            /* \"#utility.yul\":2305:2361   */\n        tag_79:\n            /* \"#utility.yul\":2379:2408   */\n          tag_81\n            /* \"#utility.yul\":2401:2407   */\n          dup3\n            /* \"#utility.yul\":2379:2408   */\n          tag_23\n          jump\t// in\n        tag_81:\n            /* \"#utility.yul\":2371:2408   */\n          swap1\n          pop\n            /* \"#utility.yul\":2463:2467   */\n          0x20\n            /* \"#utility.yul\":2457:2461   */\n          dup2\n            /* \"#utility.yul\":2453:2468   */\n          add\n            /* \"#utility.yul\":2445:2468   */\n          swap1\n          pop\n            /* \"#utility.yul\":2167:2475   */\n          swap2\n          swap1\n          pop\n          jump\t// out\n            /* \"#utility.yul\":2481:2788   */\n        tag_28:\n            /* \"#utility.yul\":2549:2550   */\n          0x00\n            /* \"#utility.yul\":2559:2672   */\n        tag_83:\n            /* \"#utility.yul\":2573:2579   */\n          dup4\n            /* \"#utility.yul\":2570:2571   */\n          dup2\n            /* \"#utility.yul\":2567:2580   */\n          lt\n            /* \"#utility.yul\":2559:2672   */\n          iszero\n          tag_85\n          jumpi\n            /* \"#utility.yul\":2658:2659   */\n          dup1\n            /* \"#utility.yul\":2653:2656   */\n          dup3\n            /* \"#utility.yul\":2649:2660   */\n          add\n            /* \"#utility.yul\":2643:2661   */\n          mload\n            /* \"#utility.yul\":2639:2640   */\n          dup2\n            /* \"#utility.yul\":2634:2637   */\n          dup5\n            /* \"#utility.yul\":2630:2641   */\n          add\n            /* \"#utility.yul\":2623:2662   */\n          mstore\n            /* \"#utility.yul\":2595:2597   */\n          0x20\n            /* \"#utility.yul\":2592:2593   */\n          dup2\n            /* \"#utility.yul\":2588:2598   */\n          add\n            /* \"#utility.yul\":2583:2598   */\n          swap1\n          pop\n            /* \"#utility.yul\":2559:2672   */\n          jump(tag_83)\n        tag_85:\n            /* \"#utility.yul\":2690:2696   */\n          dup4\n            /* \"#utility.yul\":2687:2688   */\n          dup2\n            /* \"#utility.yul\":2684:2697   */\n          gt\n            /* \"#utility.yul\":2681:2782   */\n          iszero\n          tag_86\n          jumpi\n            /* \"#utility.yul\":2770:2771   */\n          0x00\n            /* \"#utility.yul\":2761:2767   */\n          dup5\n            /* \"#utility.yul\":2756:2759   */\n          dup5\n            /* \"#utility.yul\":2752:2768   */\n          add\n            /* \"#utility.yul\":2745:2772   */\n          mstore\n            /* \"#utility.yul\":2681:2782   */\n        tag_86:\n            /* \"#utility.yul\":2530:2788   */\n          pop\n            /* \"#utility.yul\":2481:2788   */\n          pop\n          pop\n          pop\n          jump\t// out\n            /* \"#utility.yul\":2794:3215   */\n        tag_29:\n            /* \"#utility.yul\":2883:2888   */\n          0x00\n            /* \"#utility.yul\":2908:2974   */\n          tag_88\n            /* \"#utility.yul\":2924:2973   */\n          tag_89\n            /* \"#utility.yul\":2966:2972   */\n          dup5\n            /* \"#utility.yul\":2924:2973   */\n          tag_27\n          jump\t// in\n        tag_89:\n            /* \"#utility.yul\":2908:2974   */\n          tag_26\n          jump\t// in\n        tag_88:\n            /* \"#utility.yul\":2899:2974   */\n          swap1\n          pop\n            /* \"#utility.yul\":2997:3003   */\n          dup3\n            /* \"#utility.yul\":2990:2995   */\n          dup2\n            /* \"#utility.yul\":2983:3004   */\n          mstore\n            /* \"#utility.yul\":3035:3039   */\n          0x20\n            /* \"#utility.yul\":3028:3033   */\n          dup2\n            /* \"#utility.yul\":3024:3040   */\n          add\n            /* \"#utility.yul\":3073:3076   */\n          dup5\n            /* \"#utility.yul\":3064:3070   */\n          dup5\n            /* \"#utility.yul\":3059:3062   */\n          dup5\n            /* \"#utility.yul\":3055:3071   */\n          add\n            /* \"#utility.yul\":3052:3077   */\n          gt\n            /* \"#utility.yul\":3049:3161   */\n          iszero\n          tag_90\n          jumpi\n            /* \"#utility.yul\":3080:3159   */\n          tag_91\n          tag_22\n          jump\t// in\n        tag_91:\n            /* \"#utility.yul\":3049:3161   */\n        tag_90:\n            /* \"#utility.yul\":3170:3209   */\n          tag_92\n            /* \"#utility.yul\":3202:3208   */\n          dup5\n            /* \"#utility.yul\":3197:3200   */\n          dup3\n            /* \"#utility.yul\":3192:3195   */\n          dup6\n            /* \"#utility.yul\":3170:3209   */\n          tag_28\n          jump\t// in\n        tag_92:\n            /* \"#utility.yul\":2889:3215   */\n          pop\n            /* \"#utility.yul\":2794:3215   */\n          swap4\n          swap3\n          pop\n          pop\n          pop\n          jump\t// out\n            /* \"#utility.yul\":3235:3590   */\n        tag_30:\n            /* \"#utility.yul\":3302:3307   */\n          0x00\n            /* \"#utility.yul\":3351:3354   */\n          dup3\n            /* \"#utility.yul\":3344:3348   */\n          0x1f\n            /* \"#utility.yul\":3336:3342   */\n          dup4\n            /* \"#utility.yul\":3332:3349   */\n          add\n            /* \"#utility.yul\":3328:3355   */\n          slt\n            /* \"#utility.yul\":3318:3440   */\n          tag_94\n          jumpi\n            /* \"#utility.yul\":3359:3438   */\n          tag_95\n          tag_21\n          jump\t// in\n        tag_95:\n            /* \"#utility.yul\":3318:3440   */\n        tag_94:\n            /* \"#utility.yul\":3469:3475   */\n          dup2\n            /* \"#utility.yul\":3463:3476   */\n          mload\n            /* \"#utility.yul\":3494:3584   */\n          tag_96\n            /* \"#utility.yul\":3580:3583   */\n          dup5\n            /* \"#utility.yul\":3572:3578   */\n          dup3\n            /* \"#utility.yul\":3565:3569   */\n          0x20\n            /* \"#utility.yul\":3557:3563   */\n          dup7\n            /* \"#utility.yul\":3553:3570   */\n          add\n            /* \"#utility.yul\":3494:3584   */\n          tag_29\n          jump\t// in\n        tag_96:\n            /* \"#utility.yul\":3485:3584   */\n          swap2\n          pop\n            /* \"#utility.yul\":3308:3590   */\n          pop\n            /* \"#utility.yul\":3235:3590   */\n          swap3\n          swap2\n          pop\n          pop\n          jump\t// out\n            /* \"#utility.yul\":3596:5249   */\n        tag_3:\n            /* \"#utility.yul\":3741:3747   */\n          0x00\n            /* \"#utility.yul\":3749:3755   */\n          dup1\n            /* \"#utility.yul\":3757:3763   */\n          0x00\n            /* \"#utility.yul\":3765:3771   */\n          dup1\n            /* \"#utility.yul\":3773:3779   */\n          0x00\n            /* \"#utility.yul\":3781:3787   */\n          dup1\n            /* \"#utility.yul\":3830:3833   */\n          0xc0\n            /* \"#utility.yul\":3818:3827   */\n          dup8\n            /* \"#utility.yul\":3809:3816   */\n          dup10\n            /* \"#utility.yul\":3805:3828   */\n          sub\n            /* \"#utility.yul\":3801:3834   */\n          slt\n            /* \"#utility.yul\":3798:3918   */\n          iszero\n          tag_98\n          jumpi\n            /* \"#utility.yul\":3837:3916   */\n          tag_99\n          tag_12\n          jump\t// in\n        tag_99:\n            /* \"#utility.yul\":3798:3918   */\n        tag_98:\n            /* \"#utility.yul\":3957:3958   */\n          0x00\n            /* \"#utility.yul\":3982:4046   */\n          tag_100\n            /* \"#utility.yul\":4038:4045   */\n          dup10\n            /* \"#utility.yul\":4029:4035   */\n          dup3\n            /* \"#utility.yul\":4018:4027   */\n          dup11\n            /* \"#utility.yul\":4014:4036   */\n          add\n            /* \"#utility.yul\":3982:4046   */\n          tag_16\n          jump\t// in\n        tag_100:\n            /* \"#utility.yul\":3972:4046   */\n          swap7\n          pop\n            /* \"#utility.yul\":3928:4056   */\n          pop\n            /* \"#utility.yul\":4095:4097   */\n          0x20\n            /* \"#utility.yul\":4121:4185   */\n          tag_101\n            /* \"#utility.yul\":4177:4184   */\n          dup10\n            /* \"#utility.yul\":4168:4174   */\n          dup3\n            /* \"#utility.yul\":4157:4166   */\n          dup11\n            /* \"#utility.yul\":4153:4175   */\n          add\n            /* \"#utility.yul\":4121:4185   */\n          tag_20\n          jump\t// in\n        tag_101:\n            /* \"#utility.yul\":4111:4185   */\n          swap6\n          pop\n            /* \"#utility.yul\":4066:4195   */\n          pop\n            /* \"#utility.yul\":4255:4257   */\n          0x40\n            /* \"#utility.yul\":4244:4253   */\n          dup8\n            /* \"#utility.yul\":4240:4258   */\n          add\n            /* \"#utility.yul\":4234:4259   */\n          mload\n            /* \"#utility.yul\":4286:4304   */\n          0xffffffffffffffff\n            /* \"#utility.yul\":4278:4284   */\n          dup2\n            /* \"#utility.yul\":4275:4305   */\n          gt\n            /* \"#utility.yul\":4272:4389   */\n          iszero\n          tag_102\n          jumpi\n            /* \"#utility.yul\":4308:4387   */\n          tag_103\n          tag_13\n          jump\t// in\n        tag_103:\n            /* \"#utility.yul\":4272:4389   */\n        tag_102:\n            /* \"#utility.yul\":4413:4487   */\n          tag_104\n            /* \"#utility.yul\":4479:4486   */\n          dup10\n            /* \"#utility.yul\":4470:4476   */\n          dup3\n            /* \"#utility.yul\":4459:4468   */\n          dup11\n            /* \"#utility.yul\":4455:4477   */\n          add\n            /* \"#utility.yul\":4413:4487   */\n          tag_30\n          jump\t// in\n        tag_104:\n            /* \"#utility.yul\":4403:4487   */\n          swap5\n          pop\n            /* \"#utility.yul\":4205:4497   */\n          pop\n            /* \"#utility.yul\":4557:4559   */\n          0x60\n            /* \"#utility.yul\":4546:4555   */\n          dup8\n            /* \"#utility.yul\":4542:4560   */\n          add\n            /* \"#utility.yul\":4536:4561   */\n          mload\n            /* \"#utility.yul\":4588:4606   */\n          0xffffffffffffffff\n            /* \"#utility.yul\":4580:4586   */\n          dup2\n            /* \"#utility.yul\":4577:4607   */\n          gt\n            /* \"#utility.yul\":4574:4691   */\n          iszero\n          tag_105\n          jumpi\n            /* \"#utility.yul\":4610:4689   */\n          tag_106\n          tag_13\n          jump\t// in\n        tag_106:\n            /* \"#utility.yul\":4574:4691   */\n        tag_105:\n            /* \"#utility.yul\":4715:4789   */\n          tag_107\n            /* \"#utility.yul\":4781:4788   */\n          dup10\n            /* \"#utility.yul\":4772:4778   */\n          dup3\n            /* \"#utility.yul\":4761:4770   */\n          dup11\n            /* \"#utility.yul\":4757:4779   */\n          add\n            /* \"#utility.yul\":4715:4789   */\n          tag_30\n          jump\t// in\n        tag_107:\n            /* \"#utility.yul\":4705:4789   */\n          swap4\n          pop\n            /* \"#utility.yul\":4507:4799   */\n          pop\n            /* \"#utility.yul\":4859:4862   */\n          0x80\n            /* \"#utility.yul\":4848:4857   */\n          dup8\n            /* \"#utility.yul\":4844:4863   */\n          add\n            /* \"#utility.yul\":4838:4864   */\n          mload\n            /* \"#utility.yul\":4891:4909   */\n          0xffffffffffffffff\n            /* \"#utility.yul\":4883:4889   */\n          dup2\n            /* \"#utility.yul\":4880:4910   */\n          gt\n            /* \"#utility.yul\":4877:4994   */\n          iszero\n          tag_108\n          jumpi\n            /* \"#utility.yul\":4913:4992   */\n          tag_109\n          tag_13\n          jump\t// in\n        tag_109:\n            /* \"#utility.yul\":4877:4994   */\n        tag_108:\n            /* \"#utility.yul\":5018:5092   */\n          tag_110\n            /* \"#utility.yul\":5084:5091   */\n          dup10\n            /* \"#utility.yul\":5075:5081   */\n          dup3\n            /* \"#utility.yul\":5064:5073   */\n          dup11\n            /* \"#utility.yul\":5060:5082   */\n          add\n            /* \"#utility.yul\":5018:5092   */\n          tag_30\n          jump\t// in\n        tag_110:\n            /* \"#utility.yul\":5008:5092   */\n          swap3\n          pop\n            /* \"#utility.yul\":4809:5102   */\n          pop\n            /* \"#utility.yul\":5141:5144   */\n          0xa0\n            /* \"#utility.yul\":5168:5232   */\n          tag_111\n            /* \"#utility.yul\":5224:5231   */\n          dup10\n            /* \"#utility.yul\":5215:5221   */\n          dup3\n            /* \"#utility.yul\":5204:5213   */\n          dup11\n            /* \"#utility.yul\":5200:5222   */\n          add\n            /* \"#utility.yul\":5168:5232   */\n          tag_16\n          jump\t// in\n        tag_111:\n            /* \"#utility.yul\":5158:5232   */\n          swap2\n          pop\n            /* \"#utility.yul\":5112:5242   */\n          pop\n            /* \"#utility.yul\":3596:5249   */\n          swap3\n          swap6\n          pop\n          swap3\n          swap6\n          pop\n          swap3\n          swap6\n          jump\t// out\n            /* \"#utility.yul\":5255:5354   */\n        tag_31:\n            /* \"#utility.yul\":5307:5313   */\n          0x00\n            /* \"#utility.yul\":5341:5346   */\n          dup2\n            /* \"#utility.yul\":5335:5347   */\n          mload\n            /* \"#utility.yul\":5325:5347   */\n          swap1\n          pop\n            /* \"#utility.yul\":5255:5354   */\n          swap2\n          swap1\n          pop\n          jump\t// out\n            /* \"#utility.yul\":5360:5540   */\n        tag_32:\n            /* \"#utility.yul\":5408:5485   */\n          0x4e487b7100000000000000000000000000000000000000000000000000000000\n            /* \"#utility.yul\":5405:5406   */\n          0x00\n            /* \"#utility.yul\":5398:5486   */\n          mstore\n            /* \"#utility.yul\":5505:5509   */\n          0x22\n            /* \"#utility.yul\":5502:5503   */\n          0x04\n            /* \"#utility.yul\":5495:5510   */\n          mstore\n            /* \"#utility.yul\":5529:5533   */\n          0x24\n            /* \"#utility.yul\":5526:5527   */\n          0x00\n            /* \"#utility.yul\":5519:5534   */\n          revert\n            /* \"#utility.yul\":5546:5866   */\n        tag_33:\n            /* \"#utility.yul\":5590:5596   */\n          0x00\n            /* \"#utility.yul\":5627:5628   */\n          0x02\n            /* \"#utility.yul\":5621:5625   */\n          dup3\n            /* \"#utility.yul\":5617:5629   */\n          div\n            /* \"#utility.yul\":5607:5629   */\n          swap1\n          pop\n            /* \"#utility.yul\":5674:5675   */\n          0x01\n            /* \"#utility.yul\":5668:5672   */\n          dup3\n            /* \"#utility.yul\":5664:5676   */\n          and\n            /* \"#utility.yul\":5695:5713   */\n          dup1\n            /* \"#utility.yul\":5685:5766   */\n          tag_115\n          jumpi\n            /* \"#utility.yul\":5751:5755   */\n          0x7f\n            /* \"#utility.yul\":5743:5749   */\n          dup3\n            /* \"#utility.yul\":5739:5756   */\n          and\n            /* \"#utility.yul\":5729:5756   */\n          swap2\n          pop\n            /* \"#utility.yul\":5685:5766   */\n        tag_115:\n            /* \"#utility.yul\":5813:5815   */\n          0x20\n            /* \"#utility.yul\":5805:5811   */\n          dup3\n            /* \"#utility.yul\":5802:5816   */\n          lt\n            /* \"#utility.yul\":5782:5800   */\n          dup2\n            /* \"#utility.yul\":5779:5817   */\n          sub\n            /* \"#utility.yul\":5776:5860   */\n          tag_116\n          jumpi\n            /* \"#utility.yul\":5832:5850   */\n          tag_117\n          tag_32\n          jump\t// in\n        tag_117:\n            /* \"#utility.yul\":5776:5860   */\n        tag_116:\n            /* \"#utility.yul\":5597:5866   */\n          pop\n            /* \"#utility.yul\":5546:5866   */\n          swap2\n          swap1\n          pop\n          jump\t// out\n            /* \"#utility.yul\":5872:6013   */\n        tag_34:\n            /* \"#utility.yul\":5921:5925   */\n          0x00\n            /* \"#utility.yul\":5944:5947   */\n          dup2\n            /* \"#utility.yul\":5936:5947   */\n          swap1\n          pop\n            /* \"#utility.yul\":5967:5970   */\n          dup2\n            /* \"#utility.yul\":5964:5965   */\n          0x00\n            /* \"#utility.yul\":5957:5971   */\n          mstore\n            /* \"#utility.yul\":6001:6005   */\n          0x20\n            /* \"#utility.yul\":5998:5999   */\n          0x00\n            /* \"#utility.yul\":5988:6006   */\n          keccak256\n            /* \"#utility.yul\":5980:6006   */\n          swap1\n          pop\n            /* \"#utility.yul\":5872:6013   */\n          swap2\n          swap1\n          pop\n          jump\t// out\n            /* \"#utility.yul\":6019:6112   */\n        tag_35:\n            /* \"#utility.yul\":6056:6062   */\n          0x00\n            /* \"#utility.yul\":6103:6105   */\n          0x20\n            /* \"#utility.yul\":6098:6100   */\n          0x1f\n            /* \"#utility.yul\":6091:6096   */\n          dup4\n            /* \"#utility.yul\":6087:6101   */\n          add\n            /* \"#utility.yul\":6083:6106   */\n          div\n            /* \"#utility.yul\":6073:6106   */\n          swap1\n          pop\n            /* \"#utility.yul\":6019:6112   */\n          swap2\n          swap1\n          pop\n          jump\t// out\n            /* \"#utility.yul\":6118:6225   */\n        tag_36:\n            /* \"#utility.yul\":6162:6170   */\n          0x00\n            /* \"#utility.yul\":6212:6217   */\n          dup3\n            /* \"#utility.yul\":6206:6210   */\n          dup3\n            /* \"#utility.yul\":6202:6218   */\n          shl\n            /* \"#utility.yul\":6181:6218   */\n          swap1\n          pop\n            /* \"#utility.yul\":6118:6225   */\n          swap3\n          swap2\n          pop\n          pop\n          jump\t// out\n            /* \"#utility.yul\":6231:6624   */\n        tag_37:\n            /* \"#utility.yul\":6300:6306   */\n          0x00\n            /* \"#utility.yul\":6350:6351   */\n          0x08\n            /* \"#utility.yul\":6338:6348   */\n          dup4\n            /* \"#utility.yul\":6334:6352   */\n          mul\n            /* \"#utility.yul\":6373:6470   */\n          tag_122\n            /* \"#utility.yul\":6403:6469   */\n          0xffffffffffffffffffffffffffffffffffffffffffffffffffffffffffffffff\n            /* \"#utility.yul\":6392:6401   */\n          dup3\n            /* \"#utility.yul\":6373:6470   */\n          tag_36\n          jump\t// in\n        tag_122:\n            /* \"#utility.yul\":6491:6530   */\n          tag_123\n            /* \"#utility.yul\":6521:6529   */\n          dup7\n            /* \"#utility.yul\":6510:6519   */\n          dup4\n            /* \"#utility.yul\":6491:6530   */\n          tag_36\n          jump\t// in\n        tag_123:\n            /* \"#utility.yul\":6479:6530   */\n          swap6\n          pop\n            /* \"#utility.yul\":6563:6567   */\n          dup1\n            /* \"#utility.yul\":6559:6568   */\n          not\n            /* \"#utility.yul\":6552:6557   */\n          dup5\n            /* \"#utility.yul\":6548:6569   */\n          and\n            /* \"#utility.yul\":6539:6569   */\n          swap4\n          pop\n            /* \"#utility.yul\":6612:6616   */\n          dup1\n            /* \"#utility.yul\":6602:6610   */\n          dup7\n            /* \"#utility.yul\":6598:6617   */\n          and\n            /* \"#utility.yul\":6591:6596   */\n          dup5\n            /* \"#utility.yul\":6588:6618   */\n          or\n            /* \"#utility.yul\":6578:6618   */\n          swap3\n          pop\n            /* \"#utility.yul\":6307:6624   */\n          pop\n          pop\n            /* \"#utility.yul\":6231:6624   */\n          swap4\n          swap3\n          pop\n          pop\n          pop\n          jump\t// out\n            /* \"#utility.yul\":6630:6690   */\n        tag_38:\n            /* \"#utility.yul\":6658:6661   */\n          0x00\n            /* \"#utility.yul\":6679:6684   */\n          dup2\n            /* \"#utility.yul\":6672:6684   */\n          swap1\n          pop\n            /* \"#utility.yul\":6630:6690   */\n          swap2\n          swap1\n          pop\n          jump\t// out\n            /* \"#utility.yul\":6696:6838   */\n        tag_39:\n            /* \"#utility.yul\":6746:6755   */\n          0x00\n            /* \"#utility.yul\":6779:6832   */\n          tag_126\n            /* \"#utility.yul\":6797:6831   */\n          tag_127\n            /* \"#utility.yul\":6806:6830   */\n          tag_128\n            /* \"#utility.yul\":6824:6829   */\n          dup5\n            /* \"#utility.yul\":6806:6830   */\n          tag_14\n          jump\t// in\n        tag_128:\n            /* \"#utility.yul\":6797:6831   */\n          tag_38\n          jump\t// in\n        tag_127:\n            /* \"#utility.yul\":6779:6832   */\n          tag_14\n          jump\t// in\n        tag_126:\n            /* \"#utility.yul\":6766:6832   */\n          swap1\n          pop\n            /* \"#utility.yul\":6696:6838   */\n          swap2\n          swap1\n          pop\n          jump\t// out\n            /* \"#utility.yul\":6844:6919   */\n        tag_40:\n            /* \"#utility.yul\":6887:6890   */\n          0x00\n            /* \"#utility.yul\":6908:6913   */\n          dup2\n            /* \"#utility.yul\":6901:6913   */\n          swap1\n          pop\n            /* \"#utility.yul\":6844:6919   */\n          swap2\n          swap1\n          pop\n          jump\t// out\n            /* \"#utility.yul\":6925:7194   */\n        tag_41:\n            /* \"#utility.yul\":7035:7074   */\n          tag_131\n            /* \"#utility.yul\":7066:7073   */\n          dup4\n            /* \"#utility.yul\":7035:7074   */\n          tag_39\n          jump\t// in\n        tag_131:\n            /* \"#utility.yul\":7096:7187   */\n          tag_132\n            /* \"#utility.yul\":7145:7186   */\n          tag_133\n            /* \"#utility.yul\":7169:7185   */\n          dup3\n            /* \"#utility.yul\":7145:7186   */\n          tag_40\n          jump\t// in\n        tag_133:\n            /* \"#utility.yul\":7137:7143   */\n          dup5\n            /* \"#utility.yul\":7130:7134   */\n          dup5\n            /* \"#utility.yul\":7124:7135   */\n          sload\n            /* \"#utility.yul\":7096:7187   */\n          tag_37\n          jump\t// in\n        tag_132:\n            /* \"#utility.yul\":7090:7094   */\n          dup3\n            /* \"#utility.yul\":7083:7188   */\n          sstore\n            /* \"#utility.yul\":7001:7194   */\n          pop\n            /* \"#utility.yul\":6925:7194   */\n          pop\n          pop\n          pop\n          jump\t// out\n            /* \"#utility.yul\":7200:7273   */\n        tag_42:\n            /* \"#utility.yul\":7245:7248   */\n          0x00\n            /* \"#utility.yul\":7200:7273   */\n          swap1\n          jump\t// out\n            /* \"#utility.yul\":7279:7468   */\n        tag_43:\n            /* \"#utility.yul\":7356:7388   */\n          tag_136\n          tag_42\n          jump\t// in\n        tag_136:\n            /* \"#utility.yul\":7397:7462   */\n          tag_137\n            /* \"#utility.yul\":7455:7461   */\n          dup2\n            /* \"#utility.yul\":7447:7453   */\n          dup5\n            /* \"#utility.yul\":7441:7445   */\n          dup5\n            /* \"#utility.yul\":7397:7462   */\n          tag_41\n          jump\t// in\n        tag_137:\n            /* \"#utility.yul\":7332:7468   */\n          pop\n            /* \"#utility.yul\":7279:7468   */\n          pop\n          pop\n          jump\t// out\n            /* \"#utility.yul\":7474:7660   */\n        tag_44:\n            /* \"#utility.yul\":7534:7654   */\n        tag_139:\n            /* \"#utility.yul\":7551:7554   */\n          dup2\n            /* \"#utility.yul\":7544:7549   */\n          dup2\n            /* \"#utility.yul\":7541:7555   */\n          lt\n            /* \"#utility.yul\":7534:7654   */\n          iszero\n          tag_141\n          jumpi\n            /* \"#utility.yul\":7605:7644   */\n          tag_142\n            /* \"#utility.yul\":7642:7643   */\n          0x00\n            /* \"#utility.yul\":7635:7640   */\n          dup3\n            /* \"#utility.yul\":7605:7644   */\n          tag_43\n          jump\t// in\n        tag_142:\n            /* \"#utility.yul\":7578:7579   */\n          0x01\n            /* \"#utility.yul\":7571:7576   */\n          dup2\n            /* \"#utility.yul\":7567:7580   */\n          add\n            /* \"#utility.yul\":7558:7580   */\n          swap1\n          pop\n            /* \"#utility.yul\":7534:7654   */\n          jump(tag_139)\n        tag_141:\n            /* \"#utility.yul\":7474:7660   */\n          pop\n          pop\n          jump\t// out\n            /* \"#utility.yul\":7666:8209   */\n        tag_45:\n            /* \"#utility.yul\":7767:7769   */\n          0x1f\n            /* \"#utility.yul\":7762:7765   */\n          dup3\n            /* \"#utility.yul\":7759:7770   */\n          gt\n            /* \"#utility.yul\":7756:8202   */\n          iszero\n          tag_144\n          jumpi\n            /* \"#utility.yul\":7801:7839   */\n          tag_145\n            /* \"#utility.yul\":7833:7838   */\n          dup2\n            /* \"#utility.yul\":7801:7839   */\n          tag_34\n          jump\t// in\n        tag_145:\n            /* \"#utility.yul\":7885:7914   */\n          tag_146\n            /* \"#utility.yul\":7903:7913   */\n          dup5\n            /* \"#utility.yul\":7885:7914   */\n          tag_35\n          jump\t// in\n        tag_146:\n            /* \"#utility.yul\":7875:7883   */\n          dup2\n            /* \"#utility.yul\":7871:7915   */\n          add\n            /* \"#utility.yul\":8068:8070   */\n          0x20\n            /* \"#utility.yul\":8056:8066   */\n          dup6\n            /* \"#utility.yul\":8053:8071   */\n          lt\n            /* \"#utility.yul\":8050:8099   */\n          iszero\n          tag_147\n          jumpi\n            /* \"#utility.yul\":8089:8097   */\n          dup2\n            /* \"#utility.yul\":8074:8097   */\n          swap1\n          pop\n            /* \"#utility.yul\":8050:8099   */\n        tag_147:\n            /* \"#utility.yul\":8112:8192   */\n          tag_148\n            /* \"#utility.yul\":8168:8190   */\n          tag_149\n            /* \"#utility.yul\":8186:8189   */\n          dup6\n            /* \"#utility.yul\":8168:8190   */\n          tag_35\n          jump\t// in\n        tag_149:\n            /* \"#utility.yul\":8158:8166   */\n          dup4\n            /* \"#utility.yul\":8154:8191   */\n          add\n            /* \"#utility.yul\":8141:8152   */\n          dup3\n            /* \"#utility.yul\":8112:8192   */\n          tag_44\n          jump\t// in\n        tag_148:\n            /* \"#utility.yul\":7771:8202   */\n          pop\n          pop\n            /* \"#utility.yul\":7756:8202   */\n        tag_144:\n            /* \"#utility.yul\":7666:8209   */\n          pop\n          pop\n          pop\n          jump\t// out\n            /* \"#utility.yul\":8215:8332   */\n        tag_46:\n            /* \"#utility.yul\":8269:8277   */\n          0x00\n            /* \"#utility.yul\":8319:8324   */\n          dup3\n            /* \"#utility.yul\":8313:8317   */\n          dup3\n            /* \"#utility.yul\":8309:8325   */\n          shr\n            /* \"#utility.yul\":8288:8325   */\n          swap1\n          pop\n            /* \"#utility.yul\":8215:8332   */\n          swap3\n          swap2\n          pop\n          pop\n          jump\t// out\n            /* \"#utility.yul\":8338:8507   */\n        tag_47:\n            /* \"#utility.yul\":8382:8388   */\n          0x00\n            /* \"#utility.yul\":8415:8466   */\n          tag_152\n            /* \"#utility.yul\":8463:8464   */\n          0x00\n            /* \"#utility.yul\":8459:8465   */\n          not\n            /* \"#utility.yul\":8451:8456   */\n          dup5\n            /* \"#utility.yul\":8448:8449   */\n          0x08\n            /* \"#utility.yul\":8444:8457   */\n          mul\n            /* \"#utility.yul\":8415:8466   */\n          tag_46\n          jump\t// in\n        tag_152:\n            /* \"#utility.yul\":8411:8467   */\n          not\n            /* \"#utility.yul\":8496:8500   */\n          dup1\n            /* \"#utility.yul\":8490:8494   */\n          dup4\n            /* \"#utility.yul\":8486:8501   */\n          and\n            /* \"#utility.yul\":8476:8501   */\n          swap2\n          pop\n            /* \"#utility.yul\":8389:8507   */\n          pop\n            /* \"#utility.yul\":8338:8507   */\n          swap3\n          swap2\n          pop\n          pop\n          jump\t// out\n            /* \"#utility.yul\":8512:8807   */\n        tag_48:\n            /* \"#utility.yul\":8588:8592   */\n          0x00\n            /* \"#utility.yul\":8734:8763   */\n          tag_154\n            /* \"#utility.yul\":8759:8762   */\n          dup4\n            /* \"#utility.yul\":8753:8757   */\n          dup4\n            /* \"#utility.yul\":8734:8763   */\n          tag_47\n          jump\t// in\n        tag_154:\n            /* \"#utility.yul\":8726:8763   */\n          swap2\n          pop\n            /* \"#utility.yul\":8796:8799   */\n          dup3\n            /* \"#utility.yul\":8793:8794   */\n          0x02\n            /* \"#utility.yul\":8789:8800   */\n          mul\n            /* \"#utility.yul\":8783:8787   */\n          dup3\n            /* \"#utility.yul\":8780:8801   */\n          or\n            /* \"#utility.yul\":8772:8801   */\n          swap1\n          pop\n            /* \"#utility.yul\":8512:8807   */\n          swap3\n          swap2\n          pop\n          pop\n          jump\t// out\n            /* \"#utility.yul\":8812:10207   */\n        tag_7:\n            /* \"#utility.yul\":8929:8966   */\n          tag_156\n            /* \"#utility.yul\":8962:8965   */\n          dup3\n            /* \"#utility.yul\":8929:8966   */\n          tag_31\n          jump\t// in\n        tag_156:\n            /* \"#utility.yul\":9031:9049   */\n          0xffffffffffffffff\n            /* \"#utility.yul\":9023:9029   */\n          dup2\n            /* \"#utility.yul\":9020:9050   */\n          gt\n            /* \"#utility.yul\":9017:9073   */\n          iszero\n          tag_157\n          jumpi\n            /* \"#utility.yul\":9053:9071   */\n          tag_158\n          tag_24\n          jump\t// in\n        tag_158:\n            /* \"#utility.yul\":9017:9073   */\n        tag_157:\n            /* \"#utility.yul\":9097:9135   */\n          tag_159\n            /* \"#utility.yul\":9129:9133   */\n          dup3\n            /* \"#utility.yul\":9123:9134   */\n          sload\n            /* \"#utility.yul\":9097:9135   */\n          tag_33\n          jump\t// in\n        tag_159:\n            /* \"#utility.yul\":9182:9249   */\n          tag_160\n            /* \"#utility.yul\":9242:9248   */\n          dup3\n            /* \"#utility.yul\":9234:9240   */\n          dup3\n            /* \"#utility.yul\":9228:9232   */\n          dup6\n            /* \"#utility.yul\":9182:9249   */\n          tag_45\n          jump\t// in\n        tag_160:\n            /* \"#utility.yul\":9276:9277   */\n          0x00\n            /* \"#utility.yul\":9300:9304   */\n          0x20\n            /* \"#utility.yul\":9287:9304   */\n          swap1\n          pop\n            /* \"#utility.yul\":9332:9334   */\n          0x1f\n            /* \"#utility.yul\":9324:9330   */\n          dup4\n            /* \"#utility.yul\":9321:9335   */\n          gt\n            /* \"#utility.yul\":9349:9350   */\n          0x01\n            /* \"#utility.yul\":9344:9962   */\n          dup2\n          eq\n          tag_162\n          jumpi\n            /* \"#utility.yul\":10006:10007   */\n          0x00\n            /* \"#utility.yul\":10023:10029   */\n          dup5\n            /* \"#utility.yul\":10020:10097   */\n          iszero\n          tag_163\n          jumpi\n            /* \"#utility.yul\":10072:10081   */\n          dup3\n            /* \"#utility.yul\":10067:10070   */\n          dup8\n            /* \"#utility.yul\":10063:10082   */\n          add\n            /* \"#utility.yul\":10057:10083   */\n          mload\n            /* \"#utility.yul\":10048:10083   */\n          swap1\n          pop\n            /* \"#utility.yul\":10020:10097   */\n        tag_163:\n            /* \"#utility.yul\":10123:10190   */\n          tag_164\n            /* \"#utility.yul\":10183:10189   */\n          dup6\n            /* \"#utility.yul\":10176:10181   */\n          dup3\n            /* \"#utility.yul\":10123:10190   */\n          tag_48\n          jump\t// in\n        tag_164:\n            /* \"#utility.yul\":10117:10121   */\n          dup7\n            /* \"#utility.yul\":10110:10191   */\n          sstore\n            /* \"#utility.yul\":9979:10201   */\n          pop\n            /* \"#utility.yul\":9314:10201   */\n          jump(tag_161)\n            /* \"#utility.yul\":9344:9962   */\n        tag_162:\n            /* \"#utility.yul\":9396:9400   */\n          0x1f\n            /* \"#utility.yul\":9392:9401   */\n          not\n            /* \"#utility.yul\":9384:9390   */\n          dup5\n            /* \"#utility.yul\":9380:9402   */\n          and\n            /* \"#utility.yul\":9430:9467   */\n          tag_165\n            /* \"#utility.yul\":9462:9466   */\n          dup7\n            /* \"#utility.yul\":9430:9467   */\n          tag_34\n          jump\t// in\n        tag_165:\n            /* \"#utility.yul\":9489:9490   */\n          0x00\n            /* \"#utility.yul\":9503:9711   */\n        tag_166:\n            /* \"#utility.yul\":9517:9524   */\n          dup3\n            /* \"#utility.yul\":9514:9515   */\n          dup2\n            /* \"#utility.yul\":9511:9525   */\n          lt\n            /* \"#utility.yul\":9503:9711   */\n          iszero\n          tag_168\n          jumpi\n            /* \"#utility.yul\":9596:9605   */\n          dup5\n            /* \"#utility.yul\":9591:9594   */\n          dup10\n            /* \"#utility.yul\":9587:9606   */\n          add\n            /* \"#utility.yul\":9581:9607   */\n          mload\n            /* \"#utility.yul\":9573:9579   */\n          dup3\n            /* \"#utility.yul\":9566:9608   */\n          sstore\n            /* \"#utility.yul\":9647:9648   */\n          0x01\n            /* \"#utility.yul\":9639:9645   */\n          dup3\n            /* \"#utility.yul\":9635:9649   */\n          add\n            /* \"#utility.yul\":9625:9649   */\n          swap2\n          pop\n            /* \"#utility.yul\":9694:9696   */\n          0x20\n            /* \"#utility.yul\":9683:9692   */\n          dup6\n            /* \"#utility.yul\":9679:9697   */\n          add\n            /* \"#utility.yul\":9666:9697   */\n          swap5\n          pop\n            /* \"#utility.yul\":9540:9544   */\n          0x20\n            /* \"#utility.yul\":9537:9538   */\n          dup2\n            /* \"#utility.yul\":9533:9545   */\n          add\n            /* \"#utility.yul\":9528:9545   */\n          swap1\n          pop\n            /* \"#utility.yul\":9503:9711   */\n          jump(tag_166)\n        tag_168:\n            /* \"#utility.yul\":9739:9745   */\n          dup7\n            /* \"#utility.yul\":9730:9737   */\n          dup4\n            /* \"#utility.yul\":9727:9746   */\n          lt\n            /* \"#utility.yul\":9724:9903   */\n          iszero\n          tag_169\n          jumpi\n            /* \"#utility.yul\":9797:9806   */\n          dup5\n            /* \"#utility.yul\":9792:9795   */\n          dup10\n            /* \"#utility.yul\":9788:9807   */\n          add\n            /* \"#utility.yul\":9782:9808   */\n          mload\n            /* \"#utility.yul\":9840:9888   */\n          tag_170\n            /* \"#utility.yul\":9882:9886   */\n          0x1f\n            /* \"#utility.yul\":9874:9880   */\n          dup10\n            /* \"#utility.yul\":9870:9887   */\n          and\n            /* \"#utility.yul\":9859:9868   */\n          dup3\n            /* \"#utility.yul\":9840:9888   */\n          tag_47\n          jump\t// in\n        tag_170:\n            /* \"#utility.yul\":9832:9838   */\n          dup4\n            /* \"#utility.yul\":9825:9889   */\n          sstore\n            /* \"#utility.yul\":9747:9903   */\n          pop\n            /* \"#utility.yul\":9724:9903   */\n        tag_169:\n            /* \"#utility.yul\":9949:9950   */\n          0x01\n            /* \"#utility.yul\":9945:9946   */\n          0x02\n            /* \"#utility.yul\":9937:9943   */\n          dup9\n            /* \"#utility.yul\":9933:9947   */\n          mul\n            /* \"#utility.yul\":9929:9951   */\n          add\n            /* \"#utility.yul\":9923:9927   */\n          dup9\n            /* \"#utility.yul\":9916:9952   */\n          sstore\n            /* \"#utility.yul\":9351:9962   */\n          pop\n          pop\n          pop\n            /* \"#utility.yul\":9314:10201   */\n        tag_161:\n          pop\n            /* \"#utility.yul\":8904:10207   */\n          pop\n          pop\n          pop\n            /* \"#utility.yul\":8812:10207   */\n          pop\n          pop\n          jump\t// out\n            /* \"Campaign.sol\":555:3127  contract Campaign {... */\n        tag_10:\n          dataSize(sub_0)\n          dup1\n          dataOffset(sub_0)\n          0x00\n          codecopy\n          0x00\n          return\n        stop\n\n        sub_0: assembly {\n                /* \"Campaign.sol\":555:3127  contract Campaign {... */\n              mstore(0x40, 0x80)\n              jumpi(tag_1, lt(calldatasize, 0x04))\n              shr(0xe0, calldataload(0x00))\n              dup1\n              0x82fde093\n              gt\n              tag_17\n              jumpi\n              dup1\n              0x97654a8c\n              gt\n              tag_18\n              jumpi\n              dup1\n              0x97654a8c\n              eq\n              tag_13\n              jumpi\n              dup1\n              0xaba83150\n              eq\n              tag_14\n              jumpi\n              dup1\n              0xd7bb99ba\n              eq\n              tag_15\n              jumpi\n              dup1\n              0xd7d1bbdb\n              eq\n              tag_16\n              jumpi\n              jump(tag_1)\n            tag_18:\n              dup1\n              0x82fde093\n              eq\n              tag_9\n              jumpi\n              dup1\n              0x8a9cfd55\n              eq\n              tag_10\n              jumpi\n              dup1\n              0x8b85165d\n              eq\n              tag_11\n              jumpi\n              dup1\n              0x937e09b1\n              eq\n              tag_12\n              jumpi\n              jump(tag_1)\n            tag_17:\n              dup1\n              0x4051ddac\n              gt\n              tag_19\n              jumpi\n              dup1\n              0x4051ddac\n              eq\n              tag_5\n              jumpi\n              dup1\n              0x481c6a75\n              eq\n              tag_6\n              jumpi\n              dup1\n              0x7e7cd1b3\n              eq\n              tag_7\n              jumpi\n              dup1\n              0x81d12c58\n              eq\n              tag_8\n              jumpi\n              jump(tag_1)\n            tag_19:\n              dup1\n              0x03441006\n              eq\n              tag_2\n              jumpi\n              dup1\n              0x0a144391\n              eq\n              tag_3\n              jumpi\n              dup1\n              0x3410452a\n              eq\n              tag_4\n              jumpi\n            tag_1:\n              0x00\n              dup1\n              revert\n                /* \"Campaign.sol\":2295:2602  function finalizeRequest(uint index) public restricted {... */\n            tag_2:\n              callvalue\n              dup1\n              iszero\n              tag_20\n              jumpi\n              0x00\n              dup1\n              revert\n            tag_20:\n              pop\n              tag_21\n              0x04\n              dup1\n              calldatasize\n              sub\n              dup2\n              add\n              swap1\n              tag_22\n              swap2\n              swap1\n              tag_23\n              jump\t// in\n            tag_22:\n              tag_24\n              jump\t// in\n            tag_21:\n              stop\n                /* \"Campaign.sol\":873:914  mapping(address => bool) public approvers */\n            tag_3:\n              callvalue\n              dup1\n              iszero\n              tag_25\n              jumpi\n              0x00\n              dup1\n              revert\n            tag_25:\n              pop\n              tag_26\n              0x04\n              dup1\n              calldatasize\n              sub\n              dup2\n              add\n              swap1\n              tag_27\n              swap2\n              swap1\n              tag_28\n              jump\t// in\n            tag_27:\n              tag_29\n              jump\t// in\n            tag_26:\n              mload(0x40)\n              tag_30\n              swap2\n              swap1\n              tag_31\n              jump\t// in\n            tag_30:\n              mload(0x40)\n              dup1\n              swap2\n              sub\n              swap1\n              return\n                /* \"Campaign.sol\":3031:3125  function getRequestsCount() public view returns (uint) {... */\n            tag_4:\n              callvalue\n              dup1\n              iszero\n              tag_32\n              jumpi\n              0x00\n              dup1\n              revert\n            tag_32:\n              pop\n              tag_33\n              tag_34\n              jump\t// in\n            tag_33:\n              mload(0x40)\n              tag_35\n              swap2\n              swap1\n              tag_36\n              jump\t// in\n            tag_35:\n              mload(0x40)\n              dup1\n              swap2\n              sub\n              swap1\n              return\n                /* \"Campaign.sol\":2612:3021  function getSummary() public view returns (... */\n            tag_5:\n              callvalue\n              dup1\n              iszero\n              tag_37\n              jumpi\n              0x00\n              dup1\n              revert\n            tag_37:\n              pop\n              tag_38\n              tag_39\n              jump\t// in\n            tag_38:\n              mload(0x40)\n              tag_40\n              swap10\n              swap9\n              swap8\n              swap7\n              swap6\n              swap5\n              swap4\n              swap3\n              swap2\n              swap1\n              tag_41\n              jump\t// in\n            tag_40:\n              mload(0x40)\n              dup1\n              swap2\n              sub\n              swap1\n              return\n                /* \"Campaign.sol\":808:830  address public manager */\n            tag_6:\n              callvalue\n              dup1\n              iszero\n              tag_42\n              jumpi\n              0x00\n              dup1\n              revert\n            tag_42:\n              pop\n              tag_43\n              tag_44\n              jump\t// in\n            tag_43:\n              mload(0x40)\n              tag_45\n              swap2\n              swap1\n              tag_46\n              jump\t// in\n            tag_45:\n              mload(0x40)\n              dup1\n              swap2\n              sub\n              swap1\n              return\n                /* \"Campaign.sol\":953:979  string public CampaignName */\n            tag_7:\n              callvalue\n              dup1\n              iszero\n              tag_47\n              jumpi\n              0x00\n              dup1\n              revert\n            tag_47:\n              pop\n              tag_48\n              tag_49\n              jump\t// in\n            tag_48:\n              mload(0x40)\n              tag_50\n              swap2\n              swap1\n              tag_51\n              jump\t// in\n            tag_50:\n              mload(0x40)\n              dup1\n              swap2\n              sub\n              swap1\n              return\n                /* \"Campaign.sol\":777:802  Request[] public requests */\n            tag_8:\n              callvalue\n              dup1\n              iszero\n              tag_52\n              jumpi\n              0x00\n              dup1\n              revert\n            tag_52:\n              pop\n              tag_53\n              0x04\n              dup1\n              calldatasize\n              sub\n              dup2\n              add\n              swap1\n              tag_54\n              swap2\n              swap1\n              tag_23\n              jump\t// in\n            tag_54:\n              tag_55\n              jump\t// in\n            tag_53:\n              mload(0x40)\n              tag_56\n              swap6\n              swap5\n              swap4\n              swap3\n              swap2\n              swap1\n              tag_57\n              jump\t// in\n            tag_56:\n              mload(0x40)\n              dup1\n              swap2\n              sub\n              swap1\n              return\n                /* \"Campaign.sol\":920:946  uint public approversCount */\n            tag_9:\n              callvalue\n              dup1\n              iszero\n              tag_58\n              jumpi\n              0x00\n              dup1\n              revert\n            tag_58:\n              pop\n              tag_59\n              tag_60\n              jump\t// in\n            tag_59:\n              mload(0x40)\n              tag_61\n              swap2\n              swap1\n              tag_36\n              jump\t// in\n            tag_61:\n              mload(0x40)\n              dup1\n              swap2\n              sub\n              swap1\n              return\n                /* \"Campaign.sol\":1658:2012  function createRequest(string memory description, uint value, address recipient) public restricted {... */\n            tag_10:\n              callvalue\n              dup1\n              iszero\n              tag_62\n              jumpi\n              0x00\n              dup1\n              revert\n            tag_62:\n              pop\n              tag_63\n              0x04\n              dup1\n              calldatasize\n              sub\n              dup2\n              add\n              swap1\n              tag_64\n              swap2\n              swap1\n              tag_65\n              jump\t// in\n            tag_64:\n              tag_66\n              jump\t// in\n            tag_63:\n              stop\n                /* \"Campaign.sol\":1052:1078  uint public targetToAchive */\n            tag_11:\n              callvalue\n              dup1\n              iszero\n              tag_67\n              jumpi\n              0x00\n              dup1\n              revert\n            tag_67:\n              pop\n              tag_68\n              tag_69\n              jump\t// in\n            tag_68:\n              mload(0x40)\n              tag_70\n              swap2\n              swap1\n              tag_36\n              jump\t// in\n            tag_70:\n              mload(0x40)\n              dup1\n              swap2\n              sub\n              swap1\n              return\n                /* \"Campaign.sol\":836:867  uint public minimumContribution */\n            tag_12:\n              callvalue\n              dup1\n              iszero\n              tag_71\n              jumpi\n              0x00\n              dup1\n              revert\n            tag_71:\n              pop\n              tag_72\n              tag_73\n              jump\t// in\n            tag_72:\n              mload(0x40)\n              tag_74\n              swap2\n              swap1\n              tag_36\n              jump\t// in\n            tag_74:\n              mload(0x40)\n              dup1\n              swap2\n              sub\n              swap1\n              return\n                /* \"Campaign.sol\":985:1018  string public CampaignDescription */\n            tag_13:\n              callvalue\n              dup1\n              iszero\n              tag_75\n              jumpi\n              0x00\n              dup1\n              revert\n            tag_75:\n              pop\n              tag_76\n              tag_77\n              jump\t// in\n            tag_76:\n              mload(0x40)\n              tag_78\n              swap2\n              swap1\n              tag_51\n              jump\t// in\n            tag_78:\n              mload(0x40)\n              dup1\n              swap2\n              sub\n              swap1\n              return\n                /* \"Campaign.sol\":1024:1046  string public imageUrl */\n            tag_14:\n              callvalue\n              dup1\n              iszero\n              tag_79\n              jumpi\n              0x00\n              dup1\n              revert\n            tag_79:\n              pop\n              tag_80\n              tag_81\n              jump\t// in\n            tag_80:\n              mload(0x40)\n              tag_82\n              swap2\n              swap1\n              tag_51\n              jump\t// in\n            tag_82:\n              mload(0x40)\n              dup1\n              swap2\n              sub\n              swap1\n              return\n                /* \"Campaign.sol\":1493:1652  function contribute() public payable {... */\n            tag_15:\n              tag_83\n              tag_84\n              jump\t// in\n            tag_83:\n              stop\n                /* \"Campaign.sol\":2018:2289  function approveRequest(uint index) public {... */\n            tag_16:\n              callvalue\n              dup1\n              iszero\n              tag_85\n              jumpi\n              0x00\n              dup1\n              revert\n            tag_85:\n              pop\n              tag_86\n              0x04\n              dup1\n              calldatasize\n              sub\n              dup2\n              add\n              swap1\n              tag_87\n              swap2\n              swap1\n              tag_23\n              jump\t// in\n            tag_87:\n              tag_88\n              jump\t// in\n            tag_86:\n              stop\n                /* \"Campaign.sol\":2295:2602  function finalizeRequest(uint index) public restricted {... */\n            tag_24:\n                /* \"Campaign.sol\":1138:1145  manager */\n              0x01\n              0x00\n              swap1\n              sload\n              swap1\n              0x0100\n              exp\n              swap1\n              div\n              0xffffffffffffffffffffffffffffffffffffffff\n              and\n                /* \"Campaign.sol\":1124:1145  msg.sender == manager */\n              0xffffffffffffffffffffffffffffffffffffffff\n              and\n                /* \"Campaign.sol\":1124:1134  msg.sender */\n              caller\n                /* \"Campaign.sol\":1124:1145  msg.sender == manager */\n              0xffffffffffffffffffffffffffffffffffffffff\n              and\n              eq\n                /* \"Campaign.sol\":1116:1146  require(msg.sender == manager) */\n              tag_90\n              jumpi\n              0x00\n              dup1\n              revert\n            tag_90:\n                /* \"Campaign.sol\":2360:2383  Request storage request */\n              0x00\n                /* \"Campaign.sol\":2386:2394  requests */\n              dup1\n                /* \"Campaign.sol\":2395:2400  index */\n              dup3\n                /* \"Campaign.sol\":2386:2401  requests[index] */\n              dup2\n              sload\n              dup2\n              lt\n              tag_92\n              jumpi\n              tag_93\n              tag_94\n              jump\t// in\n            tag_93:\n            tag_92:\n              swap1\n              0x00\n              mstore\n              keccak256(0x00, 0x20)\n              swap1\n              0x05\n              mul\n              add\n                /* \"Campaign.sol\":2360:2401  Request storage request = requests[index] */\n              swap1\n              pop\n                /* \"Campaign.sol\":2462:2463  2 */\n              0x02\n                /* \"Campaign.sol\":2445:2459  approversCount */\n              sload(0x04)\n                /* \"Campaign.sol\":2445:2463  approversCount / 2 */\n              tag_96\n              swap2\n              swap1\n              tag_97\n              jump\t// in\n            tag_96:\n                /* \"Campaign.sol\":2420:2427  request */\n              dup2\n                /* \"Campaign.sol\":2420:2441  request.approvalCount */\n              0x03\n              add\n              sload\n                /* \"Campaign.sol\":2420:2464  request.approvalCount > (approversCount / 2) */\n              gt\n                /* \"Campaign.sol\":2412:2465  require(request.approvalCount > (approversCount / 2)) */\n              tag_98\n              jumpi\n              0x00\n              dup1\n              revert\n            tag_98:\n                /* \"Campaign.sol\":2484:2491  request */\n              dup1\n                /* \"Campaign.sol\":2484:2500  request.complete */\n              0x02\n              add\n              0x14\n              swap1\n              sload\n              swap1\n              0x0100\n              exp\n              swap1\n              div\n              0xff\n              and\n                /* \"Campaign.sol\":2483:2500  !request.complete */\n              iszero\n                /* \"Campaign.sol\":2475:2501  require(!request.complete) */\n              tag_99\n              jumpi\n              0x00\n              dup1\n              revert\n            tag_99:\n                /* \"Campaign.sol\":2520:2527  request */\n              dup1\n                /* \"Campaign.sol\":2520:2537  request.recipient */\n              0x02\n              add\n              0x00\n              swap1\n              sload\n              swap1\n              0x0100\n              exp\n              swap1\n              div\n              0xffffffffffffffffffffffffffffffffffffffff\n              and\n                /* \"Campaign.sol\":2512:2547  payable(request.recipient).transfer */\n              0xffffffffffffffffffffffffffffffffffffffff\n              and\n                /* \"Campaign.sol\":2512:2562  payable(request.recipient).transfer(request.value) */\n              0x08fc\n                /* \"Campaign.sol\":2548:2555  request */\n              dup3\n                /* \"Campaign.sol\":2548:2561  request.value */\n              0x01\n              add\n              sload\n                /* \"Campaign.sol\":2512:2562  payable(request.recipient).transfer(request.value) */\n              swap1\n              dup2\n              iszero\n              mul\n              swap1\n              mload(0x40)\n              0x00\n              mload(0x40)\n              dup1\n              dup4\n              sub\n              dup2\n              dup6\n              dup9\n              dup9\n              call\n              swap4\n              pop\n              pop\n              pop\n              pop\n              iszero\n              dup1\n              iszero\n              tag_101\n              jumpi\n              returndatasize\n              0x00\n              dup1\n              returndatacopy\n              revert(0x00, returndatasize)\n            tag_101:\n              pop\n                /* \"Campaign.sol\":2591:2595  true */\n              0x01\n                /* \"Campaign.sol\":2572:2579  request */\n              dup2\n                /* \"Campaign.sol\":2572:2588  request.complete */\n              0x02\n              add\n              0x14\n                /* \"Campaign.sol\":2572:2595  request.complete = true */\n              0x0100\n              exp\n              dup2\n              sload\n              dup2\n              0xff\n              mul\n              not\n              and\n              swap1\n              dup4\n              iszero\n              iszero\n              mul\n              or\n              swap1\n              sstore\n              pop\n                /* \"Campaign.sol\":2350:2602  {... */\n              pop\n                /* \"Campaign.sol\":2295:2602  function finalizeRequest(uint index) public restricted {... */\n              pop\n              jump\t// out\n                /* \"Campaign.sol\":873:914  mapping(address => bool) public approvers */\n            tag_29:\n              mstore(0x20, 0x03)\n              dup1\n              0x00\n              mstore\n              keccak256(0x00, 0x40)\n              0x00\n              swap2\n              pop\n              sload\n              swap1\n              0x0100\n              exp\n              swap1\n              div\n              0xff\n              and\n              dup2\n              jump\t// out\n                /* \"Campaign.sol\":3031:3125  function getRequestsCount() public view returns (uint) {... */\n            tag_34:\n                /* \"Campaign.sol\":3080:3084  uint */\n              0x00\n                /* \"Campaign.sol\":3103:3111  requests */\n              dup1\n                /* \"Campaign.sol\":3103:3118  requests.length */\n              dup1\n              sload\n              swap1\n              pop\n                /* \"Campaign.sol\":3096:3118  return requests.length */\n              swap1\n              pop\n                /* \"Campaign.sol\":3031:3125  function getRequestsCount() public view returns (uint) {... */\n              swap1\n              jump\t// out\n                /* \"Campaign.sol\":2612:3021  function getSummary() public view returns (... */\n            tag_39:\n                /* \"Campaign.sol\":2662:2666  uint */\n              0x00\n                /* \"Campaign.sol\":2668:2672  uint */\n              dup1\n                /* \"Campaign.sol\":2674:2678  uint */\n              0x00\n                /* \"Campaign.sol\":2680:2684  uint */\n              dup1\n                /* \"Campaign.sol\":2686:2693  address */\n              0x00\n                /* \"Campaign.sol\":2694:2707  string memory */\n              0x60\n                /* \"Campaign.sol\":2708:2721  string memory */\n              dup1\n                /* \"Campaign.sol\":2723:2736  string memory */\n              0x60\n                /* \"Campaign.sol\":2737:2741  uint */\n              0x00\n                /* \"Campaign.sol\":2779:2798  minimumContribution */\n              sload(0x02)\n                /* \"Campaign.sol\":2810:2831  address(this).balance */\n              selfbalance\n                /* \"Campaign.sol\":2843:2851  requests */\n              0x00\n                /* \"Campaign.sol\":2843:2858  requests.length */\n              dup1\n              sload\n              swap1\n              pop\n                /* \"Campaign.sol\":2870:2884  approversCount */\n              sload(0x04)\n                /* \"Campaign.sol\":2896:2903  manager */\n              0x01\n              0x00\n              swap1\n              sload\n              swap1\n              0x0100\n              exp\n              swap1\n              div\n              0xffffffffffffffffffffffffffffffffffffffff\n              and\n                /* \"Campaign.sol\":2915:2927  CampaignName */\n              0x05\n                /* \"Campaign.sol\":2939:2958  CampaignDescription */\n              0x06\n                /* \"Campaign.sol\":2970:2978  imageUrl */\n              0x07\n                /* \"Campaign.sol\":2990:3004  targetToAchive */\n              sload(0x08)\n                /* \"Campaign.sol\":2760:3014  return (... */\n              dup4\n              dup1\n              sload\n              tag_104\n              swap1\n              tag_105\n              jump\t// in\n            tag_104:\n              dup1\n              0x1f\n              add\n              0x20\n              dup1\n              swap2\n              div\n              mul\n              0x20\n              add\n              mload(0x40)\n              swap1\n              dup2\n              add\n              0x40\n              mstore\n              dup1\n              swap3\n              swap2\n              swap1\n              dup2\n              dup2\n              mstore\n              0x20\n              add\n              dup3\n              dup1\n              sload\n              tag_106\n              swap1\n              tag_105\n              jump\t// in\n            tag_106:\n              dup1\n              iszero\n              tag_107\n              jumpi\n              dup1\n              0x1f\n              lt\n              tag_108\n              jumpi\n              0x0100\n              dup1\n              dup4\n              sload\n              div\n              mul\n              dup4\n              mstore\n              swap2\n              0x20\n              add\n              swap2\n              jump(tag_107)\n            tag_108:\n              dup3\n              add\n              swap2\n              swap1\n              0x00\n              mstore\n              keccak256(0x00, 0x20)\n              swap1\n            tag_109:\n              dup2\n              sload\n              dup2\n              mstore\n              swap1\n              0x01\n              add\n              swap1\n              0x20\n              add\n              dup1\n              dup4\n              gt\n              tag_109\n              jumpi\n              dup3\n              swap1\n              sub\n              0x1f\n              and\n              dup3\n              add\n              swap2\n            tag_107:\n              pop\n              pop\n              pop\n              pop\n              pop\n              swap4\n              pop\n              dup3\n              dup1\n              sload\n              tag_110\n              swap1\n              tag_105\n              jump\t// in\n            tag_110:\n              dup1\n              0x1f\n              add\n              0x20\n              dup1\n              swap2\n              div\n              mul\n              0x20\n              add\n              mload(0x40)\n              swap1\n              dup2\n              add\n              0x40\n              mstore\n              dup1\n              swap3\n              swap2\n              swap1\n              dup2\n              dup2\n              mstore\n              0x20\n              add\n              dup3\n              dup1\n              sload\n              tag_111\n              swap1\n              tag_105\n              jump\t// in\n            tag_111:\n              dup1\n              iszero\n              tag_112\n              jumpi\n              dup1\n              0x1f\n              lt\n              tag_113\n              jumpi\n              0x0100\n              dup1\n              dup4\n              sload\n              div\n              mul\n              dup4\n              mstore\n              swap2\n              0x20\n              add\n              swap2\n              jump(tag_112)\n            tag_113:\n              dup3\n              add\n              swap2\n              swap1\n              0x00\n              mstore\n              keccak256(0x00, 0x20)\n              swap1\n            tag_114:\n              dup2\n              sload\n              dup2\n              mstore\n              swap1\n              0x01\n              add\n              swap1\n              0x20\n              add\n              dup1\n              dup4\n              gt\n              tag_114\n              jumpi\n              dup3\n              swap1\n              sub\n              0x1f\n              and\n              dup3\n              add\n              swap2\n            tag_112:\n              pop\n              pop\n              pop\n              pop\n              pop\n              swap3\n              pop\n              dup2\n              dup1\n              sload\n              tag_115\n              swap1\n              tag_105\n              jump\t// in\n            tag_115:\n              dup1\n              0x1f\n              add\n              0x20\n              dup1\n              swap2\n              div\n              mul\n              0x20\n              add\n              mload(0x40)\n              swap1\n              dup2\n              add\n              0x40\n              mstore\n              dup1\n              swap3\n              swap2\n              swap1\n              dup2\n              dup2\n              mstore\n              0x20\n              add\n              dup3\n              dup1\n              sload\n              tag_116\n              swap1\n              tag_105\n              jump\t// in\n            tag_116:\n              dup1\n              iszero\n              tag_117\n              jumpi\n              dup1\n              0x1f\n              lt\n              tag_118\n              jumpi\n              0x0100\n              dup1\n              dup4\n              sload\n              div\n              mul\n              dup4\n              mstore\n              swap2\n              0x20\n              add\n              swap2\n              jump(tag_117)\n            tag_118:\n              dup3\n              add\n              swap2\n              swap1\n              0x00\n              mstore\n              keccak256(0x00, 0x20)\n              swap1\n            tag_119:\n              dup2\n              sload\n              dup2\n              mstore\n              swap1\n              0x01\n              add\n              swap1\n              0x20\n              add\n              dup1\n              dup4\n              gt\n              tag_119\n              jumpi\n              dup3\n              swap1\n              sub\n              0x1f\n              and\n              dup3\n              add\n              swap2\n            tag_117:\n              pop\n              pop\n              pop\n              pop\n              pop\n              swap2\n              pop\n              swap9\n              pop\n              swap9\n              pop\n              swap9\n              pop\n              swap9\n              pop\n              swap9\n              pop\n              swap9\n              pop\n              swap9\n              pop\n              swap9\n              pop\n              swap9\n              pop\n                /* \"Campaign.sol\":2612:3021  function getSummary() public view returns (... */\n              swap1\n              swap2\n              swap3\n              swap4\n              swap5\n              swap6\n              swap7\n              swap8\n              swap9\n              jump\t// out\n                /* \"Campaign.sol\":808:830  address public manager */\n            tag_44:\n              0x01\n              0x00\n              swap1\n              sload\n              swap1\n              0x0100\n              exp\n              swap1\n              div\n              0xffffffffffffffffffffffffffffffffffffffff\n              and\n              dup2\n              jump\t// out\n                /* \"Campaign.sol\":953:979  string public CampaignName */\n            tag_49:\n              0x05\n              dup1\n              sload\n              tag_120\n              swap1\n              tag_105\n              jump\t// in\n            tag_120:\n              dup1\n              0x1f\n              add\n              0x20\n              dup1\n              swap2\n              div\n              mul\n              0x20\n              add\n              mload(0x40)\n              swap1\n              dup2\n              add\n              0x40\n              mstore\n              dup1\n              swap3\n              swap2\n              swap1\n              dup2\n              dup2\n              mstore\n              0x20\n              add\n              dup3\n              dup1\n              sload\n              tag_121\n              swap1\n              tag_105\n              jump\t// in\n            tag_121:\n              dup1\n              iszero\n              tag_122\n              jumpi\n              dup1\n              0x1f\n              lt\n              tag_123\n              jumpi\n              0x0100\n              dup1\n              dup4\n              sload\n              div\n              mul\n              dup4\n              mstore\n              swap2\n              0x20\n              add\n              swap2\n              jump(tag_122)\n            tag_123:\n              dup3\n              add\n              swap2\n              swap1\n              0x00\n              mstore\n              keccak256(0x00, 0x20)\n              swap1\n            tag_124:\n              dup2\n              sload\n              dup2\n              mstore\n              swap1\n              0x01\n              add\n              swap1\n              0x20\n              add\n              dup1\n              dup4\n              gt\n              tag_124\n              jumpi\n              dup3\n              swap1\n              sub\n              0x1f\n              and\n              dup3\n              add\n              swap2\n            tag_122:\n              pop\n              pop\n              pop\n              pop\n              pop\n              dup2\n              jump\t// out\n                /* \"Campaign.sol\":777:802  Request[] public requests */\n            tag_55:\n              0x00\n              dup2\n              dup2\n              sload\n              dup2\n              lt\n              tag_125\n              jumpi\n              0x00\n              dup1\n              revert\n            tag_125:\n              swap1\n              0x00\n              mstore\n              keccak256(0x00, 0x20)\n              swap1\n              0x05\n              mul\n              add\n              0x00\n              swap2\n              pop\n              swap1\n              pop\n              dup1\n              0x00\n              add\n              dup1\n              sload\n              tag_127\n              swap1\n              tag_105\n              jump\t// in\n            tag_127:\n              dup1\n              0x1f\n              add\n              0x20\n              dup1\n              swap2\n              div\n              mul\n              0x20\n              add\n              mload(0x40)\n              swap1\n              dup2\n              add\n              0x40\n              mstore\n              dup1\n              swap3\n              swap2\n              swap1\n              dup2\n              dup2\n              mstore\n              0x20\n              add\n              dup3\n              dup1\n              sload\n              tag_128\n              swap1\n              tag_105\n              jump\t// in\n            tag_128:\n              dup1\n              iszero\n              tag_129\n              jumpi\n              dup1\n              0x1f\n              lt\n              tag_130\n              jumpi\n              0x0100\n              dup1\n              dup4\n              sload\n              div\n              mul\n              dup4\n              mstore\n              swap2\n              0x20\n              add\n              swap2\n              jump(tag_129)\n            tag_130:\n              dup3\n              add\n              swap2\n              swap1\n              0x00\n              mstore\n              keccak256(0x00, 0x20)\n              swap1\n            tag_131:\n              dup2\n              sload\n              dup2\n              mstore\n              swap1\n              0x01\n              add\n              swap1\n              0x20\n              add\n              dup1\n              dup4\n              gt\n              tag_131\n              jumpi\n              dup3\n              swap1\n              sub\n              0x1f\n              and\n              dup3\n              add\n              swap2\n            tag_129:\n              pop\n              pop\n              pop\n              pop\n              pop\n              swap1\n              dup1\n              0x01\n              add\n              sload\n              swap1\n              dup1\n              0x02\n              add\n              0x00\n              swap1\n              sload\n              swap1\n              0x0100\n              exp\n              swap1\n              div\n              0xffffffffffffffffffffffffffffffffffffffff\n              and\n              swap1\n              dup1\n              0x02\n              add\n              0x14\n              swap1\n              sload\n              swap1\n              0x0100\n              exp\n              swap1\n              div\n              0xff\n              and\n              swap1\n              dup1\n              0x03\n              add\n              sload\n              swap1\n              pop\n              dup6\n              jump\t// out\n                /* \"Campaign.sol\":920:946  uint public approversCount */\n            tag_60:\n              sload(0x04)\n              dup2\n              jump\t// out\n                /* \"Campaign.sol\":1658:2012  function createRequest(string memory description, uint value, address recipient) public restricted {... */\n            tag_66:\n                /* \"Campaign.sol\":1138:1145  manager */\n              0x01\n              0x00\n              swap1\n              sload\n              swap1\n              0x0100\n              exp\n              swap1\n              div\n              0xffffffffffffffffffffffffffffffffffffffff\n              and\n                /* \"Campaign.sol\":1124:1145  msg.sender == manager */\n              0xffffffffffffffffffffffffffffffffffffffff\n              and\n                /* \"Campaign.sol\":1124:1134  msg.sender */\n              caller\n                /* \"Campaign.sol\":1124:1145  msg.sender == manager */\n              0xffffffffffffffffffffffffffffffffffffffff\n              and\n              eq\n                /* \"Campaign.sol\":1116:1146  require(msg.sender == manager) */\n              tag_133\n              jumpi\n              0x00\n              dup1\n              revert\n            tag_133:\n                /* \"Campaign.sol\":1767:1793  Request storage newRequest */\n              0x00\n                /* \"Campaign.sol\":1796:1804  requests */\n              dup1\n                /* \"Campaign.sol\":1796:1811  requests.push() */\n              0x01\n              dup2\n              0x01\n              dup2\n              sload\n              add\n              dup1\n              dup3\n              sstore\n              dup1\n              swap2\n              pop\n              pop\n              sub\n              swap1\n              0x00\n              mstore\n              keccak256(0x00, 0x20)\n              swap1\n              0x05\n              mul\n              add\n                /* \"Campaign.sol\":1767:1811  Request storage newRequest = requests.push() */\n              swap1\n              pop\n                /* \"Campaign.sol\":1847:1858  description */\n              dup4\n                /* \"Campaign.sol\":1822:1832  newRequest */\n              dup2\n                /* \"Campaign.sol\":1822:1844  newRequest.description */\n              0x00\n              add\n                /* \"Campaign.sol\":1822:1858  newRequest.description = description */\n              swap1\n              dup2\n              tag_136\n              swap2\n              swap1\n              tag_137\n              jump\t// in\n            tag_136:\n              pop\n                /* \"Campaign.sol\":1886:1891  value */\n              dup3\n                /* \"Campaign.sol\":1868:1878  newRequest */\n              dup2\n                /* \"Campaign.sol\":1868:1884  newRequest.value */\n              0x01\n              add\n                /* \"Campaign.sol\":1868:1891  newRequest.value= value */\n              dup2\n              swap1\n              sstore\n              pop\n                /* \"Campaign.sol\":1923:1932  recipient */\n              dup2\n                /* \"Campaign.sol\":1901:1911  newRequest */\n              dup2\n                /* \"Campaign.sol\":1901:1921  newRequest.recipient */\n              0x02\n              add\n              0x00\n                /* \"Campaign.sol\":1901:1932  newRequest.recipient= recipient */\n              0x0100\n              exp\n              dup2\n              sload\n              dup2\n              0xffffffffffffffffffffffffffffffffffffffff\n              mul\n              not\n              and\n              swap1\n              dup4\n              0xffffffffffffffffffffffffffffffffffffffff\n              and\n              mul\n              or\n              swap1\n              sstore\n              pop\n                /* \"Campaign.sol\":1963:1968  false */\n              0x00\n                /* \"Campaign.sol\":1942:1952  newRequest */\n              dup2\n                /* \"Campaign.sol\":1942:1961  newRequest.complete */\n              0x02\n              add\n              0x14\n                /* \"Campaign.sol\":1942:1968  newRequest.complete= false */\n              0x0100\n              exp\n              dup2\n              sload\n              dup2\n              0xff\n              mul\n              not\n              and\n              swap1\n              dup4\n              iszero\n              iszero\n              mul\n              or\n              swap1\n              sstore\n              pop\n                /* \"Campaign.sol\":2004:2005  0 */\n              0x00\n                /* \"Campaign.sol\":1978:1988  newRequest */\n              dup2\n                /* \"Campaign.sol\":1978:2002  newRequest.approvalCount */\n              0x03\n              add\n                /* \"Campaign.sol\":1978:2005  newRequest.approvalCount= 0 */\n              dup2\n              swap1\n              sstore\n              pop\n                /* \"Campaign.sol\":1757:2012  {... */\n              pop\n                /* \"Campaign.sol\":1658:2012  function createRequest(string memory description, uint value, address recipient) public restricted {... */\n              pop\n              pop\n              pop\n              jump\t// out\n                /* \"Campaign.sol\":1052:1078  uint public targetToAchive */\n            tag_69:\n              sload(0x08)\n              dup2\n              jump\t// out\n                /* \"Campaign.sol\":836:867  uint public minimumContribution */\n            tag_73:\n              sload(0x02)\n              dup2\n              jump\t// out\n                /* \"Campaign.sol\":985:1018  string public CampaignDescription */\n            tag_77:\n              0x06\n              dup1\n              sload\n              tag_138\n              swap1\n              tag_105\n              jump\t// in\n            tag_138:\n              dup1\n              0x1f\n              add\n              0x20\n              dup1\n              swap2\n              div\n              mul\n              0x20\n              add\n              mload(0x40)\n              swap1\n              dup2\n              add\n              0x40\n              mstore\n              dup1\n              swap3\n              swap2\n              swap1\n              dup2\n              dup2\n              mstore\n              0x20\n              add\n              dup3\n              dup1\n              sload\n              tag_139\n              swap1\n              tag_105\n              jump\t// in\n            tag_139:\n              dup1\n              iszero\n              tag_140\n              jumpi\n              dup1\n              0x1f\n              lt\n              tag_141\n              jumpi\n              0x0100\n              dup1\n              dup4\n              sload\n              div\n              mul\n              dup4\n              mstore\n              swap2\n              0x20\n              add\n              swap2\n              jump(tag_140)\n            tag_141:\n              dup3\n              add\n              swap2\n              swap1\n              0x00\n              mstore\n              keccak256(0x00, 0x20)\n              swap1\n            tag_142:\n              dup2\n              sload\n              dup2\n              mstore\n              swap1\n              0x01\n              add\n              swap1\n              0x20\n              add\n              dup1\n              dup4\n              gt\n              tag_142\n              jumpi\n              dup3\n              swap1\n              sub\n              0x1f\n              and\n              dup3\n              add\n              swap2\n            tag_140:\n              pop\n              pop\n              pop\n              pop\n              pop\n              dup2\n              jump\t// out\n                /* \"Campaign.sol\":1024:1046  string public imageUrl */\n            tag_81:\n              0x07\n              dup1\n              sload\n              tag_143\n              swap1\n              tag_105\n              jump\t// in\n            tag_143:\n              dup1\n              0x1f\n              add\n              0x20\n              dup1\n              swap2\n              div\n              mul\n              0x20\n              add\n              mload(0x40)\n              swap1\n              dup2\n              add\n              0x40\n              mstore\n              dup1\n              swap3\n              swap2\n              swap1\n              dup2\n              dup2\n              mstore\n              0x20\n              add\n              dup3\n              dup1\n              sload\n              tag_144\n              swap1\n              tag_105\n              jump\t// in\n            tag_144:\n              dup1\n              iszero\n              tag_145\n              jumpi\n              dup1\n              0x1f\n              lt\n              tag_146\n              jumpi\n              0x0100\n              dup1\n              dup4\n              sload\n              div\n              mul\n              dup4\n              mstore\n              swap2\n              0x20\n              add\n              swap2\n              jump(tag_145)\n            tag_146:\n              dup3\n              add\n              swap2\n              swap1\n              0x00\n              mstore\n              keccak256(0x00, 0x20)\n              swap1\n            tag_147:\n              dup2\n              sload\n              dup2\n              mstore\n              swap1\n              0x01\n              add\n              swap1\n              0x20\n              add\n              dup1\n              dup4\n              gt\n              tag_147\n              jumpi\n              dup3\n              swap1\n              sub\n              0x1f\n              and\n              dup3\n              add\n              swap2\n            tag_145:\n              pop\n              pop\n              pop\n              pop\n              pop\n              dup2\n              jump\t// out\n                /* \"Campaign.sol\":1493:1652  function contribute() public payable {... */\n            tag_84:\n                /* \"Campaign.sol\":1560:1579  minimumContribution */\n              sload(0x02)\n                /* \"Campaign.sol\":1548:1557  msg.value */\n              callvalue\n                /* \"Campaign.sol\":1548:1579  msg.value > minimumContribution */\n              gt\n                /* \"Campaign.sol\":1540:1580  require(msg.value > minimumContribution) */\n              tag_149\n              jumpi\n              0x00\n              dup1\n              revert\n            tag_149:\n                /* \"Campaign.sol\":1615:1619  true */\n              0x01\n                /* \"Campaign.sol\":1591:1600  approvers */\n              0x03\n                /* \"Campaign.sol\":1591:1612  approvers[msg.sender] */\n              0x00\n                /* \"Campaign.sol\":1601:1611  msg.sender */\n              caller\n                /* \"Campaign.sol\":1591:1612  approvers[msg.sender] */\n              0xffffffffffffffffffffffffffffffffffffffff\n              and\n              0xffffffffffffffffffffffffffffffffffffffff\n              and\n              dup2\n              mstore\n              0x20\n              add\n              swap1\n              dup2\n              mstore\n              0x20\n              add\n              0x00\n              keccak256\n              0x00\n                /* \"Campaign.sol\":1591:1619  approvers[msg.sender] = true */\n              0x0100\n              exp\n              dup2\n              sload\n              dup2\n              0xff\n              mul\n              not\n              and\n              swap1\n              dup4\n              iszero\n              iszero\n              mul\n              or\n              swap1\n              sstore\n              pop\n                /* \"Campaign.sol\":1629:1643  approversCount */\n              0x04\n              0x00\n                /* \"Campaign.sol\":1629:1645  approversCount++ */\n              dup2\n              sload\n              dup1\n              swap3\n              swap2\n              swap1\n              tag_150\n              swap1\n              tag_151\n              jump\t// in\n            tag_150:\n              swap2\n              swap1\n              pop\n              sstore\n              pop\n                /* \"Campaign.sol\":1493:1652  function contribute() public payable {... */\n              jump\t// out\n                /* \"Campaign.sol\":2018:2289  function approveRequest(uint index) public {... */\n            tag_88:\n                /* \"Campaign.sol\":2071:2094  Request storage request */\n              0x00\n                /* \"Campaign.sol\":2097:2105  requests */\n              dup1\n                /* \"Campaign.sol\":2106:2111  index */\n              dup3\n                /* \"Campaign.sol\":2097:2112  requests[index] */\n              dup2\n              sload\n              dup2\n              lt\n              tag_153\n              jumpi\n              tag_154\n              tag_94\n              jump\t// in\n            tag_154:\n            tag_153:\n              swap1\n              0x00\n              mstore\n              keccak256(0x00, 0x20)\n              swap1\n              0x05\n              mul\n              add\n                /* \"Campaign.sol\":2071:2112  Request storage request = requests[index] */\n              swap1\n              pop\n                /* \"Campaign.sol\":2131:2140  approvers */\n              0x03\n                /* \"Campaign.sol\":2131:2152  approvers[msg.sender] */\n              0x00\n                /* \"Campaign.sol\":2141:2151  msg.sender */\n              caller\n                /* \"Campaign.sol\":2131:2152  approvers[msg.sender] */\n              0xffffffffffffffffffffffffffffffffffffffff\n              and\n              0xffffffffffffffffffffffffffffffffffffffff\n              and\n              dup2\n              mstore\n              0x20\n              add\n              swap1\n              dup2\n              mstore\n              0x20\n              add\n              0x00\n              keccak256\n              0x00\n              swap1\n              sload\n              swap1\n              0x0100\n              exp\n              swap1\n              div\n              0xff\n              and\n                /* \"Campaign.sol\":2123:2153  require(approvers[msg.sender]) */\n              tag_156\n              jumpi\n              0x00\n              dup1\n              revert\n            tag_156:\n                /* \"Campaign.sol\":2172:2179  request */\n              dup1\n                /* \"Campaign.sol\":2172:2189  request.approvals */\n              0x04\n              add\n                /* \"Campaign.sol\":2172:2201  request.approvals[msg.sender] */\n              0x00\n                /* \"Campaign.sol\":2190:2200  msg.sender */\n              caller\n                /* \"Campaign.sol\":2172:2201  request.approvals[msg.sender] */\n              0xffffffffffffffffffffffffffffffffffffffff\n              and\n              0xffffffffffffffffffffffffffffffffffffffff\n              and\n              dup2\n              mstore\n              0x20\n              add\n              swap1\n              dup2\n              mstore\n              0x20\n              add\n              0x00\n              keccak256\n              0x00\n              swap1\n              sload\n              swap1\n              0x0100\n              exp\n              swap1\n              div\n              0xff\n              and\n                /* \"Campaign.sol\":2171:2201  !request.approvals[msg.sender] */\n              iszero\n                /* \"Campaign.sol\":2163:2202  require(!request.approvals[msg.sender]) */\n              tag_157\n              jumpi\n              0x00\n              dup1\n              revert\n            tag_157:\n                /* \"Campaign.sol\":2245:2249  true */\n              0x01\n                /* \"Campaign.sol\":2213:2220  request */\n              dup2\n                /* \"Campaign.sol\":2213:2230  request.approvals */\n              0x04\n              add\n                /* \"Campaign.sol\":2213:2242  request.approvals[msg.sender] */\n              0x00\n                /* \"Campaign.sol\":2231:2241  msg.sender */\n              caller\n                /* \"Campaign.sol\":2213:2242  request.approvals[msg.sender] */\n              0xffffffffffffffffffffffffffffffffffffffff\n              and\n              0xffffffffffffffffffffffffffffffffffffffff\n              and\n              dup2\n              mstore\n              0x20\n              add\n              swap1\n              dup2\n              mstore\n              0x20\n              add\n              0x00\n              keccak256\n              0x00\n                /* \"Campaign.sol\":2213:2249  request.approvals[msg.sender] = true */\n              0x0100\n              exp\n              dup2\n              sload\n              dup2\n              0xff\n              mul\n              not\n              and\n              swap1\n              dup4\n              iszero\n              iszero\n              mul\n              or\n              swap1\n              sstore\n              pop\n                /* \"Campaign.sol\":2259:2266  request */\n              dup1\n                /* \"Campaign.sol\":2259:2280  request.approvalCount */\n              0x03\n              add\n              0x00\n                /* \"Campaign.sol\":2259:2282  request.approvalCount++ */\n              dup2\n              sload\n              dup1\n              swap3\n              swap2\n              swap1\n              tag_158\n              swap1\n              tag_151\n              jump\t// in\n            tag_158:\n              swap2\n              swap1\n              pop\n              sstore\n              pop\n                /* \"Campaign.sol\":2061:2289  {... */\n              pop\n                /* \"Campaign.sol\":2018:2289  function approveRequest(uint index) public {... */\n              pop\n              jump\t// out\n                /* \"#utility.yul\":7:82   */\n            tag_159:\n                /* \"#utility.yul\":40:46   */\n              0x00\n                /* \"#utility.yul\":73:75   */\n              0x40\n                /* \"#utility.yul\":67:76   */\n              mload\n                /* \"#utility.yul\":57:76   */\n              swap1\n              pop\n                /* \"#utility.yul\":7:82   */\n              swap1\n              jump\t// out\n                /* \"#utility.yul\":88:205   */\n            tag_160:\n                /* \"#utility.yul\":197:198   */\n              0x00\n                /* \"#utility.yul\":194:195   */\n              dup1\n                /* \"#utility.yul\":187:199   */\n              revert\n                /* \"#utility.yul\":211:328   */\n            tag_161:\n                /* \"#utility.yul\":320:321   */\n              0x00\n                /* \"#utility.yul\":317:318   */\n              dup1\n                /* \"#utility.yul\":310:322   */\n              revert\n                /* \"#utility.yul\":334:411   */\n            tag_162:\n                /* \"#utility.yul\":371:378   */\n              0x00\n                /* \"#utility.yul\":400:405   */\n              dup2\n                /* \"#utility.yul\":389:405   */\n              swap1\n              pop\n                /* \"#utility.yul\":334:411   */\n              swap2\n              swap1\n              pop\n              jump\t// out\n                /* \"#utility.yul\":417:539   */\n            tag_163:\n                /* \"#utility.yul\":490:514   */\n              tag_211\n                /* \"#utility.yul\":508:513   */\n              dup2\n                /* \"#utility.yul\":490:514   */\n              tag_162\n              jump\t// in\n            tag_211:\n                /* \"#utility.yul\":483:488   */\n              dup2\n                /* \"#utility.yul\":480:515   */\n              eq\n                /* \"#utility.yul\":470:533   */\n              tag_212\n              jumpi\n                /* \"#utility.yul\":529:530   */\n              0x00\n                /* \"#utility.yul\":526:527   */\n              dup1\n                /* \"#utility.yul\":519:531   */\n              revert\n                /* \"#utility.yul\":470:533   */\n            tag_212:\n                /* \"#utility.yul\":417:539   */\n              pop\n              jump\t// out\n                /* \"#utility.yul\":545:684   */\n            tag_164:\n                /* \"#utility.yul\":591:596   */\n              0x00\n                /* \"#utility.yul\":629:635   */\n              dup2\n                /* \"#utility.yul\":616:636   */\n              calldataload\n                /* \"#utility.yul\":607:636   */\n              swap1\n              pop\n                /* \"#utility.yul\":645:678   */\n              tag_214\n                /* \"#utility.yul\":672:677   */\n              dup2\n                /* \"#utility.yul\":645:678   */\n              tag_163\n              jump\t// in\n            tag_214:\n                /* \"#utility.yul\":545:684   */\n              swap3\n              swap2\n              pop\n              pop\n              jump\t// out\n                /* \"#utility.yul\":690:1019   */\n            tag_23:\n                /* \"#utility.yul\":749:755   */\n              0x00\n                /* \"#utility.yul\":798:800   */\n              0x20\n                /* \"#utility.yul\":786:795   */\n              dup3\n                /* \"#utility.yul\":777:784   */\n              dup5\n                /* \"#utility.yul\":773:796   */\n              sub\n                /* \"#utility.yul\":769:801   */\n              slt\n                /* \"#utility.yul\":766:885   */\n              iszero\n              tag_216\n              jumpi\n                /* \"#utility.yul\":804:883   */\n              tag_217\n              tag_160\n              jump\t// in\n            tag_217:\n                /* \"#utility.yul\":766:885   */\n            tag_216:\n                /* \"#utility.yul\":924:925   */\n              0x00\n                /* \"#utility.yul\":949:1002   */\n              tag_218\n                /* \"#utility.yul\":994:1001   */\n              dup5\n                /* \"#utility.yul\":985:991   */\n              dup3\n                /* \"#utility.yul\":974:983   */\n              dup6\n                /* \"#utility.yul\":970:992   */\n              add\n                /* \"#utility.yul\":949:1002   */\n              tag_164\n              jump\t// in\n            tag_218:\n                /* \"#utility.yul\":939:1002   */\n              swap2\n              pop\n                /* \"#utility.yul\":895:1012   */\n              pop\n                /* \"#utility.yul\":690:1019   */\n              swap3\n              swap2\n              pop\n              pop\n              jump\t// out\n                /* \"#utility.yul\":1025:1151   */\n            tag_165:\n                /* \"#utility.yul\":1062:1069   */\n              0x00\n                /* \"#utility.yul\":1102:1144   */\n              0xffffffffffffffffffffffffffffffffffffffff\n                /* \"#utility.yul\":1095:1100   */\n              dup3\n                /* \"#utility.yul\":1091:1145   */\n              and\n                /* \"#utility.yul\":1080:1145   */\n              swap1\n              pop\n                /* \"#utility.yul\":1025:1151   */\n              swap2\n              swap1\n              pop\n              jump\t// out\n                /* \"#utility.yul\":1157:1253   */\n            tag_166:\n                /* \"#utility.yul\":1194:1201   */\n              0x00\n                /* \"#utility.yul\":1223:1247   */\n              tag_221\n                /* \"#utility.yul\":1241:1246   */\n              dup3\n                /* \"#utility.yul\":1223:1247   */\n              tag_165\n              jump\t// in\n            tag_221:\n                /* \"#utility.yul\":1212:1247   */\n              swap1\n              pop\n                /* \"#utility.yul\":1157:1253   */\n              swap2\n              swap1\n              pop\n              jump\t// out\n                /* \"#utility.yul\":1259:1381   */\n            tag_167:\n                /* \"#utility.yul\":1332:1356   */\n              tag_223\n                /* \"#utility.yul\":1350:1355   */\n              dup2\n                /* \"#utility.yul\":1332:1356   */\n              tag_166\n              jump\t// in\n            tag_223:\n                /* \"#utility.yul\":1325:1330   */\n              dup2\n                /* \"#utility.yul\":1322:1357   */\n              eq\n                /* \"#utility.yul\":1312:1375   */\n              tag_224\n              jumpi\n                /* \"#utility.yul\":1371:1372   */\n              0x00\n                /* \"#utility.yul\":1368:1369   */\n              dup1\n                /* \"#utility.yul\":1361:1373   */\n              revert\n                /* \"#utility.yul\":1312:1375   */\n            tag_224:\n                /* \"#utility.yul\":1259:1381   */\n              pop\n              jump\t// out\n                /* \"#utility.yul\":1387:1526   */\n            tag_168:\n                /* \"#utility.yul\":1433:1438   */\n              0x00\n                /* \"#utility.yul\":1471:1477   */\n              dup2\n                /* \"#utility.yul\":1458:1478   */\n              calldataload\n                /* \"#utility.yul\":1449:1478   */\n              swap1\n              pop\n                /* \"#utility.yul\":1487:1520   */\n              tag_226\n                /* \"#utility.yul\":1514:1519   */\n              dup2\n                /* \"#utility.yul\":1487:1520   */\n              tag_167\n              jump\t// in\n            tag_226:\n                /* \"#utility.yul\":1387:1526   */\n              swap3\n              swap2\n              pop\n              pop\n              jump\t// out\n                /* \"#utility.yul\":1532:1861   */\n            tag_28:\n                /* \"#utility.yul\":1591:1597   */\n              0x00\n                /* \"#utility.yul\":1640:1642   */\n              0x20\n                /* \"#utility.yul\":1628:1637   */\n              dup3\n                /* \"#utility.yul\":1619:1626   */\n              dup5\n                /* \"#utility.yul\":1615:1638   */\n              sub\n                /* \"#utility.yul\":1611:1643   */\n              slt\n                /* \"#utility.yul\":1608:1727   */\n              iszero\n              tag_228\n              jumpi\n                /* \"#utility.yul\":1646:1725   */\n              tag_229\n              tag_160\n              jump\t// in\n            tag_229:\n                /* \"#utility.yul\":1608:1727   */\n            tag_228:\n                /* \"#utility.yul\":1766:1767   */\n              0x00\n                /* \"#utility.yul\":1791:1844   */\n              tag_230\n                /* \"#utility.yul\":1836:1843   */\n              dup5\n                /* \"#utility.yul\":1827:1833   */\n              dup3\n                /* \"#utility.yul\":1816:1825   */\n              dup6\n                /* \"#utility.yul\":1812:1834   */\n              add\n                /* \"#utility.yul\":1791:1844   */\n              tag_168\n              jump\t// in\n            tag_230:\n                /* \"#utility.yul\":1781:1844   */\n              swap2\n              pop\n                /* \"#utility.yul\":1737:1854   */\n              pop\n                /* \"#utility.yul\":1532:1861   */\n              swap3\n              swap2\n              pop\n              pop\n              jump\t// out\n                /* \"#utility.yul\":1867:1957   */\n            tag_169:\n                /* \"#utility.yul\":1901:1908   */\n              0x00\n                /* \"#utility.yul\":1944:1949   */\n              dup2\n                /* \"#utility.yul\":1937:1950   */\n              iszero\n                /* \"#utility.yul\":1930:1951   */\n              iszero\n                /* \"#utility.yul\":1919:1951   */\n              swap1\n              pop\n                /* \"#utility.yul\":1867:1957   */\n              swap2\n              swap1\n              pop\n              jump\t// out\n                /* \"#utility.yul\":1963:2072   */\n            tag_170:\n                /* \"#utility.yul\":2044:2065   */\n              tag_233\n                /* \"#utility.yul\":2059:2064   */\n              dup2\n                /* \"#utility.yul\":2044:2065   */\n              tag_169\n              jump\t// in\n            tag_233:\n                /* \"#utility.yul\":2039:2042   */\n              dup3\n                /* \"#utility.yul\":2032:2066   */\n              mstore\n                /* \"#utility.yul\":1963:2072   */\n              pop\n              pop\n              jump\t// out\n                /* \"#utility.yul\":2078:2288   */\n            tag_31:\n                /* \"#utility.yul\":2165:2169   */\n              0x00\n                /* \"#utility.yul\":2203:2205   */\n              0x20\n                /* \"#utility.yul\":2192:2201   */\n              dup3\n                /* \"#utility.yul\":2188:2206   */\n              add\n                /* \"#utility.yul\":2180:2206   */\n              swap1\n              pop\n                /* \"#utility.yul\":2216:2281   */\n              tag_235\n                /* \"#utility.yul\":2278:2279   */\n              0x00\n                /* \"#utility.yul\":2267:2276   */\n              dup4\n                /* \"#utility.yul\":2263:2280   */\n              add\n                /* \"#utility.yul\":2254:2260   */\n              dup5\n                /* \"#utility.yul\":2216:2281   */\n              tag_170\n              jump\t// in\n            tag_235:\n                /* \"#utility.yul\":2078:2288   */\n              swap3\n              swap2\n              pop\n              pop\n              jump\t// out\n                /* \"#utility.yul\":2294:2412   */\n            tag_171:\n                /* \"#utility.yul\":2381:2405   */\n              tag_237\n                /* \"#utility.yul\":2399:2404   */\n              dup2\n                /* \"#utility.yul\":2381:2405   */\n              tag_162\n              jump\t// in\n            tag_237:\n                /* \"#utility.yul\":2376:2379   */\n              dup3\n                /* \"#utility.yul\":2369:2406   */\n              mstore\n                /* \"#utility.yul\":2294:2412   */\n              pop\n              pop\n              jump\t// out\n                /* \"#utility.yul\":2418:2640   */\n            tag_36:\n                /* \"#utility.yul\":2511:2515   */\n              0x00\n                /* \"#utility.yul\":2549:2551   */\n              0x20\n                /* \"#utility.yul\":2538:2547   */\n              dup3\n                /* \"#utility.yul\":2534:2552   */\n              add\n                /* \"#utility.yul\":2526:2552   */\n              swap1\n              pop\n                /* \"#utility.yul\":2562:2633   */\n              tag_239\n                /* \"#utility.yul\":2630:2631   */\n              0x00\n                /* \"#utility.yul\":2619:2628   */\n              dup4\n                /* \"#utility.yul\":2615:2632   */\n              add\n                /* \"#utility.yul\":2606:2612   */\n              dup5\n                /* \"#utility.yul\":2562:2633   */\n              tag_171\n              jump\t// in\n            tag_239:\n                /* \"#utility.yul\":2418:2640   */\n              swap3\n              swap2\n              pop\n              pop\n              jump\t// out\n                /* \"#utility.yul\":2646:2764   */\n            tag_172:\n                /* \"#utility.yul\":2733:2757   */\n              tag_241\n                /* \"#utility.yul\":2751:2756   */\n              dup2\n                /* \"#utility.yul\":2733:2757   */\n              tag_166\n              jump\t// in\n            tag_241:\n                /* \"#utility.yul\":2728:2731   */\n              dup3\n                /* \"#utility.yul\":2721:2758   */\n              mstore\n                /* \"#utility.yul\":2646:2764   */\n              pop\n              pop\n              jump\t// out\n                /* \"#utility.yul\":2770:2869   */\n            tag_173:\n                /* \"#utility.yul\":2822:2828   */\n              0x00\n                /* \"#utility.yul\":2856:2861   */\n              dup2\n                /* \"#utility.yul\":2850:2862   */\n              mload\n                /* \"#utility.yul\":2840:2862   */\n              swap1\n              pop\n                /* \"#utility.yul\":2770:2869   */\n              swap2\n              swap1\n              pop\n              jump\t// out\n                /* \"#utility.yul\":2875:3044   */\n            tag_174:\n                /* \"#utility.yul\":2959:2970   */\n              0x00\n                /* \"#utility.yul\":2993:2999   */\n              dup3\n                /* \"#utility.yul\":2988:2991   */\n              dup3\n                /* \"#utility.yul\":2981:3000   */\n              mstore\n                /* \"#utility.yul\":3033:3037   */\n              0x20\n                /* \"#utility.yul\":3028:3031   */\n              dup3\n                /* \"#utility.yul\":3024:3038   */\n              add\n                /* \"#utility.yul\":3009:3038   */\n              swap1\n              pop\n                /* \"#utility.yul\":2875:3044   */\n              swap3\n              swap2\n              pop\n              pop\n              jump\t// out\n                /* \"#utility.yul\":3050:3357   */\n            tag_175:\n                /* \"#utility.yul\":3118:3119   */\n              0x00\n                /* \"#utility.yul\":3128:3241   */\n            tag_245:\n                /* \"#utility.yul\":3142:3148   */\n              dup4\n                /* \"#utility.yul\":3139:3140   */\n              dup2\n                /* \"#utility.yul\":3136:3149   */\n              lt\n                /* \"#utility.yul\":3128:3241   */\n              iszero\n              tag_247\n              jumpi\n                /* \"#utility.yul\":3227:3228   */\n              dup1\n                /* \"#utility.yul\":3222:3225   */\n              dup3\n                /* \"#utility.yul\":3218:3229   */\n              add\n                /* \"#utility.yul\":3212:3230   */\n              mload\n                /* \"#utility.yul\":3208:3209   */\n              dup2\n                /* \"#utility.yul\":3203:3206   */\n              dup5\n                /* \"#utility.yul\":3199:3210   */\n              add\n                /* \"#utility.yul\":3192:3231   */\n              mstore\n                /* \"#utility.yul\":3164:3166   */\n              0x20\n                /* \"#utility.yul\":3161:3162   */\n              dup2\n                /* \"#utility.yul\":3157:3167   */\n              add\n                /* \"#utility.yul\":3152:3167   */\n              swap1\n              pop\n                /* \"#utility.yul\":3128:3241   */\n              jump(tag_245)\n            tag_247:\n                /* \"#utility.yul\":3259:3265   */\n              dup4\n                /* \"#utility.yul\":3256:3257   */\n              dup2\n                /* \"#utility.yul\":3253:3266   */\n              gt\n                /* \"#utility.yul\":3250:3351   */\n              iszero\n              tag_248\n              jumpi\n                /* \"#utility.yul\":3339:3340   */\n              0x00\n                /* \"#utility.yul\":3330:3336   */\n              dup5\n                /* \"#utility.yul\":3325:3328   */\n              dup5\n                /* \"#utility.yul\":3321:3337   */\n              add\n                /* \"#utility.yul\":3314:3341   */\n              mstore\n                /* \"#utility.yul\":3250:3351   */\n            tag_248:\n                /* \"#utility.yul\":3099:3357   */\n              pop\n                /* \"#utility.yul\":3050:3357   */\n              pop\n              pop\n              pop\n              jump\t// out\n                /* \"#utility.yul\":3363:3465   */\n            tag_176:\n                /* \"#utility.yul\":3404:3410   */\n              0x00\n                /* \"#utility.yul\":3455:3457   */\n              0x1f\n                /* \"#utility.yul\":3451:3458   */\n              not\n                /* \"#utility.yul\":3446:3448   */\n              0x1f\n                /* \"#utility.yul\":3439:3444   */\n              dup4\n                /* \"#utility.yul\":3435:3449   */\n              add\n                /* \"#utility.yul\":3431:3459   */\n              and\n                /* \"#utility.yul\":3421:3459   */\n              swap1\n              pop\n                /* \"#utility.yul\":3363:3465   */\n              swap2\n              swap1\n              pop\n              jump\t// out\n                /* \"#utility.yul\":3471:3835   */\n            tag_177:\n                /* \"#utility.yul\":3559:3562   */\n              0x00\n                /* \"#utility.yul\":3587:3626   */\n              tag_251\n                /* \"#utility.yul\":3620:3625   */\n              dup3\n                /* \"#utility.yul\":3587:3626   */\n              tag_173\n              jump\t// in\n            tag_251:\n                /* \"#utility.yul\":3642:3713   */\n              tag_252\n                /* \"#utility.yul\":3706:3712   */\n              dup2\n                /* \"#utility.yul\":3701:3704   */\n              dup6\n                /* \"#utility.yul\":3642:3713   */\n              tag_174\n              jump\t// in\n            tag_252:\n                /* \"#utility.yul\":3635:3713   */\n              swap4\n              pop\n                /* \"#utility.yul\":3722:3774   */\n              tag_253\n                /* \"#utility.yul\":3767:3773   */\n              dup2\n                /* \"#utility.yul\":3762:3765   */\n              dup6\n                /* \"#utility.yul\":3755:3759   */\n              0x20\n                /* \"#utility.yul\":3748:3753   */\n              dup7\n                /* \"#utility.yul\":3744:3760   */\n              add\n                /* \"#utility.yul\":3722:3774   */\n              tag_175\n              jump\t// in\n            tag_253:\n                /* \"#utility.yul\":3799:3828   */\n              tag_254\n                /* \"#utility.yul\":3821:3827   */\n              dup2\n                /* \"#utility.yul\":3799:3828   */\n              tag_176\n              jump\t// in\n            tag_254:\n                /* \"#utility.yul\":3794:3797   */\n              dup5\n                /* \"#utility.yul\":3790:3829   */\n              add\n                /* \"#utility.yul\":3783:3829   */\n              swap2\n              pop\n                /* \"#utility.yul\":3563:3835   */\n              pop\n                /* \"#utility.yul\":3471:3835   */\n              swap3\n              swap2\n              pop\n              pop\n              jump\t// out\n                /* \"#utility.yul\":3841:5222   */\n            tag_41:\n                /* \"#utility.yul\":4218:4222   */\n              0x00\n                /* \"#utility.yul\":4256:4259   */\n              0x0120\n                /* \"#utility.yul\":4245:4254   */\n              dup3\n                /* \"#utility.yul\":4241:4260   */\n              add\n                /* \"#utility.yul\":4233:4260   */\n              swap1\n              pop\n                /* \"#utility.yul\":4270:4341   */\n              tag_256\n                /* \"#utility.yul\":4338:4339   */\n              0x00\n                /* \"#utility.yul\":4327:4336   */\n              dup4\n                /* \"#utility.yul\":4323:4340   */\n              add\n                /* \"#utility.yul\":4314:4320   */\n              dup13\n                /* \"#utility.yul\":4270:4341   */\n              tag_171\n              jump\t// in\n            tag_256:\n                /* \"#utility.yul\":4351:4423   */\n              tag_257\n                /* \"#utility.yul\":4419:4421   */\n              0x20\n                /* \"#utility.yul\":4408:4417   */\n              dup4\n                /* \"#utility.yul\":4404:4422   */\n              add\n                /* \"#utility.yul\":4395:4401   */\n              dup12\n                /* \"#utility.yul\":4351:4423   */\n              tag_171\n              jump\t// in\n            tag_257:\n                /* \"#utility.yul\":4433:4505   */\n              tag_258\n                /* \"#utility.yul\":4501:4503   */\n              0x40\n                /* \"#utility.yul\":4490:4499   */\n              dup4\n                /* \"#utility.yul\":4486:4504   */\n              add\n                /* \"#utility.yul\":4477:4483   */\n              dup11\n                /* \"#utility.yul\":4433:4505   */\n              tag_171\n              jump\t// in\n            tag_258:\n                /* \"#utility.yul\":4515:4587   */\n              tag_259\n                /* \"#utility.yul\":4583:4585   */\n              0x60\n                /* \"#utility.yul\":4572:4581   */\n              dup4\n                /* \"#utility.yul\":4568:4586   */\n              add\n                /* \"#utility.yul\":4559:4565   */\n              dup10\n                /* \"#utility.yul\":4515:4587   */\n              tag_171\n              jump\t// in\n            tag_259:\n                /* \"#utility.yul\":4597:4670   */\n              tag_260\n                /* \"#utility.yul\":4665:4668   */\n              0x80\n                /* \"#utility.yul\":4654:4663   */\n              dup4\n                /* \"#utility.yul\":4650:4669   */\n              add\n                /* \"#utility.yul\":4641:4647   */\n              dup9\n                /* \"#utility.yul\":4597:4670   */\n              tag_172\n              jump\t// in\n            tag_260:\n                /* \"#utility.yul\":4718:4727   */\n              dup2\n                /* \"#utility.yul\":4712:4716   */\n              dup2\n                /* \"#utility.yul\":4708:4728   */\n              sub\n                /* \"#utility.yul\":4702:4705   */\n              0xa0\n                /* \"#utility.yul\":4691:4700   */\n              dup4\n                /* \"#utility.yul\":4687:4706   */\n              add\n                /* \"#utility.yul\":4680:4729   */\n              mstore\n                /* \"#utility.yul\":4746:4824   */\n              tag_261\n                /* \"#utility.yul\":4819:4823   */\n              dup2\n                /* \"#utility.yul\":4810:4816   */\n              dup8\n                /* \"#utility.yul\":4746:4824   */\n              tag_177\n              jump\t// in\n            tag_261:\n                /* \"#utility.yul\":4738:4824   */\n              swap1\n              pop\n                /* \"#utility.yul\":4872:4881   */\n              dup2\n                /* \"#utility.yul\":4866:4870   */\n              dup2\n                /* \"#utility.yul\":4862:4882   */\n              sub\n                /* \"#utility.yul\":4856:4859   */\n              0xc0\n                /* \"#utility.yul\":4845:4854   */\n              dup4\n                /* \"#utility.yul\":4841:4860   */\n              add\n                /* \"#utility.yul\":4834:4883   */\n              mstore\n                /* \"#utility.yul\":4900:4978   */\n              tag_262\n                /* \"#utility.yul\":4973:4977   */\n              dup2\n                /* \"#utility.yul\":4964:4970   */\n              dup7\n                /* \"#utility.yul\":4900:4978   */\n              tag_177\n              jump\t// in\n            tag_262:\n                /* \"#utility.yul\":4892:4978   */\n              swap1\n              pop\n                /* \"#utility.yul\":5026:5035   */\n              dup2\n                /* \"#utility.yul\":5020:5024   */\n              dup2\n                /* \"#utility.yul\":5016:5036   */\n              sub\n                /* \"#utility.yul\":5010:5013   */\n              0xe0\n                /* \"#utility.yul\":4999:5008   */\n              dup4\n                /* \"#utility.yul\":4995:5014   */\n              add\n                /* \"#utility.yul\":4988:5037   */\n              mstore\n                /* \"#utility.yul\":5054:5132   */\n              tag_263\n                /* \"#utility.yul\":5127:5131   */\n              dup2\n                /* \"#utility.yul\":5118:5124   */\n              dup6\n                /* \"#utility.yul\":5054:5132   */\n              tag_177\n              jump\t// in\n            tag_263:\n                /* \"#utility.yul\":5046:5132   */\n              swap1\n              pop\n                /* \"#utility.yul\":5142:5215   */\n              tag_264\n                /* \"#utility.yul\":5210:5213   */\n              0x0100\n                /* \"#utility.yul\":5199:5208   */\n              dup4\n                /* \"#utility.yul\":5195:5214   */\n              add\n                /* \"#utility.yul\":5186:5192   */\n              dup5\n                /* \"#utility.yul\":5142:5215   */\n              tag_171\n              jump\t// in\n            tag_264:\n                /* \"#utility.yul\":3841:5222   */\n              swap11\n              swap10\n              pop\n              pop\n              pop\n              pop\n              pop\n              pop\n              pop\n              pop\n              pop\n              pop\n              jump\t// out\n                /* \"#utility.yul\":5228:5450   */\n            tag_46:\n                /* \"#utility.yul\":5321:5325   */\n              0x00\n                /* \"#utility.yul\":5359:5361   */\n              0x20\n                /* \"#utility.yul\":5348:5357   */\n              dup3\n                /* \"#utility.yul\":5344:5362   */\n              add\n                /* \"#utility.yul\":5336:5362   */\n              swap1\n              pop\n                /* \"#utility.yul\":5372:5443   */\n              tag_266\n                /* \"#utility.yul\":5440:5441   */\n              0x00\n                /* \"#utility.yul\":5429:5438   */\n              dup4\n                /* \"#utility.yul\":5425:5442   */\n              add\n                /* \"#utility.yul\":5416:5422   */\n              dup5\n                /* \"#utility.yul\":5372:5443   */\n              tag_172\n              jump\t// in\n            tag_266:\n                /* \"#utility.yul\":5228:5450   */\n              swap3\n              swap2\n              pop\n              pop\n              jump\t// out\n                /* \"#utility.yul\":5456:5769   */\n            tag_51:\n                /* \"#utility.yul\":5569:5573   */\n              0x00\n                /* \"#utility.yul\":5607:5609   */\n              0x20\n                /* \"#utility.yul\":5596:5605   */\n              dup3\n                /* \"#utility.yul\":5592:5610   */\n              add\n                /* \"#utility.yul\":5584:5610   */\n              swap1\n              pop\n                /* \"#utility.yul\":5656:5665   */\n              dup2\n                /* \"#utility.yul\":5650:5654   */\n              dup2\n                /* \"#utility.yul\":5646:5666   */\n              sub\n                /* \"#utility.yul\":5642:5643   */\n              0x00\n                /* \"#utility.yul\":5631:5640   */\n              dup4\n                /* \"#utility.yul\":5627:5644   */\n              add\n                /* \"#utility.yul\":5620:5667   */\n              mstore\n                /* \"#utility.yul\":5684:5762   */\n              tag_268\n                /* \"#utility.yul\":5757:5761   */\n              dup2\n                /* \"#utility.yul\":5748:5754   */\n              dup5\n                /* \"#utility.yul\":5684:5762   */\n              tag_177\n              jump\t// in\n            tag_268:\n                /* \"#utility.yul\":5676:5762   */\n              swap1\n              pop\n                /* \"#utility.yul\":5456:5769   */\n              swap3\n              swap2\n              pop\n              pop\n              jump\t// out\n                /* \"#utility.yul\":5775:6518   */\n            tag_57:\n                /* \"#utility.yul\":5994:5998   */\n              0x00\n                /* \"#utility.yul\":6032:6035   */\n              0xa0\n                /* \"#utility.yul\":6021:6030   */\n              dup3\n                /* \"#utility.yul\":6017:6036   */\n              add\n                /* \"#utility.yul\":6009:6036   */\n              swap1\n              pop\n                /* \"#utility.yul\":6082:6091   */\n              dup2\n                /* \"#utility.yul\":6076:6080   */\n              dup2\n                /* \"#utility.yul\":6072:6092   */\n              sub\n                /* \"#utility.yul\":6068:6069   */\n              0x00\n                /* \"#utility.yul\":6057:6066   */\n              dup4\n                /* \"#utility.yul\":6053:6070   */\n              add\n                /* \"#utility.yul\":6046:6093   */\n              mstore\n                /* \"#utility.yul\":6110:6188   */\n              tag_270\n                /* \"#utility.yul\":6183:6187   */\n              dup2\n                /* \"#utility.yul\":6174:6180   */\n              dup9\n                /* \"#utility.yul\":6110:6188   */\n              tag_177\n              jump\t// in\n            tag_270:\n                /* \"#utility.yul\":6102:6188   */\n              swap1\n              pop\n                /* \"#utility.yul\":6198:6270   */\n              tag_271\n                /* \"#utility.yul\":6266:6268   */\n              0x20\n                /* \"#utility.yul\":6255:6264   */\n              dup4\n                /* \"#utility.yul\":6251:6269   */\n              add\n                /* \"#utility.yul\":6242:6248   */\n              dup8\n                /* \"#utility.yul\":6198:6270   */\n              tag_171\n              jump\t// in\n            tag_271:\n                /* \"#utility.yul\":6280:6352   */\n              tag_272\n                /* \"#utility.yul\":6348:6350   */\n              0x40\n                /* \"#utility.yul\":6337:6346   */\n              dup4\n                /* \"#utility.yul\":6333:6351   */\n              add\n                /* \"#utility.yul\":6324:6330   */\n              dup7\n                /* \"#utility.yul\":6280:6352   */\n              tag_172\n              jump\t// in\n            tag_272:\n                /* \"#utility.yul\":6362:6428   */\n              tag_273\n                /* \"#utility.yul\":6424:6426   */\n              0x60\n                /* \"#utility.yul\":6413:6422   */\n              dup4\n                /* \"#utility.yul\":6409:6427   */\n              add\n                /* \"#utility.yul\":6400:6406   */\n              dup6\n                /* \"#utility.yul\":6362:6428   */\n              tag_170\n              jump\t// in\n            tag_273:\n                /* \"#utility.yul\":6438:6511   */\n              tag_274\n                /* \"#utility.yul\":6506:6509   */\n              0x80\n                /* \"#utility.yul\":6495:6504   */\n              dup4\n                /* \"#utility.yul\":6491:6510   */\n              add\n                /* \"#utility.yul\":6482:6488   */\n              dup5\n                /* \"#utility.yul\":6438:6511   */\n              tag_171\n              jump\t// in\n            tag_274:\n                /* \"#utility.yul\":5775:6518   */\n              swap7\n              swap6\n              pop\n              pop\n              pop\n              pop\n              pop\n              pop\n              jump\t// out\n                /* \"#utility.yul\":6524:6641   */\n            tag_178:\n                /* \"#utility.yul\":6633:6634   */\n              0x00\n                /* \"#utility.yul\":6630:6631   */\n              dup1\n                /* \"#utility.yul\":6623:6635   */\n              revert\n                /* \"#utility.yul\":6647:6764   */\n            tag_179:\n                /* \"#utility.yul\":6756:6757   */\n              0x00\n                /* \"#utility.yul\":6753:6754   */\n              dup1\n                /* \"#utility.yul\":6746:6758   */\n              revert\n                /* \"#utility.yul\":6770:6950   */\n            tag_180:\n                /* \"#utility.yul\":6818:6895   */\n              0x4e487b7100000000000000000000000000000000000000000000000000000000\n                /* \"#utility.yul\":6815:6816   */\n              0x00\n                /* \"#utility.yul\":6808:6896   */\n              mstore\n                /* \"#utility.yul\":6915:6919   */\n              0x41\n                /* \"#utility.yul\":6912:6913   */\n              0x04\n                /* \"#utility.yul\":6905:6920   */\n              mstore\n                /* \"#utility.yul\":6939:6943   */\n              0x24\n                /* \"#utility.yul\":6936:6937   */\n              0x00\n                /* \"#utility.yul\":6929:6944   */\n              revert\n                /* \"#utility.yul\":6956:7237   */\n            tag_181:\n                /* \"#utility.yul\":7039:7066   */\n              tag_279\n                /* \"#utility.yul\":7061:7065   */\n              dup3\n                /* \"#utility.yul\":7039:7066   */\n              tag_176\n              jump\t// in\n            tag_279:\n                /* \"#utility.yul\":7031:7037   */\n              dup2\n                /* \"#utility.yul\":7027:7067   */\n              add\n                /* \"#utility.yul\":7169:7175   */\n              dup2\n                /* \"#utility.yul\":7157:7167   */\n              dup2\n                /* \"#utility.yul\":7154:7176   */\n              lt\n                /* \"#utility.yul\":7133:7151   */\n              0xffffffffffffffff\n                /* \"#utility.yul\":7121:7131   */\n              dup3\n                /* \"#utility.yul\":7118:7152   */\n              gt\n                /* \"#utility.yul\":7115:7177   */\n              or\n                /* \"#utility.yul\":7112:7200   */\n              iszero\n              tag_280\n              jumpi\n                /* \"#utility.yul\":7180:7198   */\n              tag_281\n              tag_180\n              jump\t// in\n            tag_281:\n                /* \"#utility.yul\":7112:7200   */\n            tag_280:\n                /* \"#utility.yul\":7220:7230   */\n              dup1\n                /* \"#utility.yul\":7216:7218   */\n              0x40\n                /* \"#utility.yul\":7209:7231   */\n              mstore\n                /* \"#utility.yul\":6999:7237   */\n              pop\n                /* \"#utility.yul\":6956:7237   */\n              pop\n              pop\n              jump\t// out\n                /* \"#utility.yul\":7243:7372   */\n            tag_182:\n                /* \"#utility.yul\":7277:7283   */\n              0x00\n                /* \"#utility.yul\":7304:7324   */\n              tag_283\n              tag_159\n              jump\t// in\n            tag_283:\n                /* \"#utility.yul\":7294:7324   */\n              swap1\n              pop\n                /* \"#utility.yul\":7333:7366   */\n              tag_284\n                /* \"#utility.yul\":7361:7365   */\n              dup3\n                /* \"#utility.yul\":7353:7359   */\n              dup3\n                /* \"#utility.yul\":7333:7366   */\n              tag_181\n              jump\t// in\n            tag_284:\n                /* \"#utility.yul\":7243:7372   */\n              swap2\n              swap1\n              pop\n              jump\t// out\n                /* \"#utility.yul\":7378:7686   */\n            tag_183:\n                /* \"#utility.yul\":7440:7444   */\n              0x00\n                /* \"#utility.yul\":7530:7548   */\n              0xffffffffffffffff\n                /* \"#utility.yul\":7522:7528   */\n              dup3\n                /* \"#utility.yul\":7519:7549   */\n              gt\n                /* \"#utility.yul\":7516:7572   */\n              iszero\n              tag_286\n              jumpi\n                /* \"#utility.yul\":7552:7570   */\n              tag_287\n              tag_180\n              jump\t// in\n            tag_287:\n                /* \"#utility.yul\":7516:7572   */\n            tag_286:\n                /* \"#utility.yul\":7590:7619   */\n              tag_288\n                /* \"#utility.yul\":7612:7618   */\n              dup3\n                /* \"#utility.yul\":7590:7619   */\n              tag_176\n              jump\t// in\n            tag_288:\n                /* \"#utility.yul\":7582:7619   */\n              swap1\n              pop\n                /* \"#utility.yul\":7674:7678   */\n              0x20\n                /* \"#utility.yul\":7668:7672   */\n              dup2\n                /* \"#utility.yul\":7664:7679   */\n              add\n                /* \"#utility.yul\":7656:7679   */\n              swap1\n              pop\n                /* \"#utility.yul\":7378:7686   */\n              swap2\n              swap1\n              pop\n              jump\t// out\n                /* \"#utility.yul\":7692:7846   */\n            tag_184:\n                /* \"#utility.yul\":7776:7782   */\n              dup3\n                /* \"#utility.yul\":7771:7774   */\n              dup2\n                /* \"#utility.yul\":7766:7769   */\n              dup4\n                /* \"#utility.yul\":7753:7783   */\n              calldatacopy\n                /* \"#utility.yul\":7838:7839   */\n              0x00\n                /* \"#utility.yul\":7829:7835   */\n              dup4\n                /* \"#utility.yul\":7824:7827   */\n              dup4\n                /* \"#utility.yul\":7820:7836   */\n              add\n                /* \"#utility.yul\":7813:7840   */\n              mstore\n                /* \"#utility.yul\":7692:7846   */\n              pop\n              pop\n              pop\n              jump\t// out\n                /* \"#utility.yul\":7852:8264   */\n            tag_185:\n                /* \"#utility.yul\":7930:7935   */\n              0x00\n                /* \"#utility.yul\":7955:8021   */\n              tag_291\n                /* \"#utility.yul\":7971:8020   */\n              tag_292\n                /* \"#utility.yul\":8013:8019   */\n              dup5\n                /* \"#utility.yul\":7971:8020   */\n              tag_183\n              jump\t// in\n            tag_292:\n                /* \"#utility.yul\":7955:8021   */\n              tag_182\n              jump\t// in\n            tag_291:\n                /* \"#utility.yul\":7946:8021   */\n              swap1\n              pop\n                /* \"#utility.yul\":8044:8050   */\n              dup3\n                /* \"#utility.yul\":8037:8042   */\n              dup2\n                /* \"#utility.yul\":8030:8051   */\n              mstore\n                /* \"#utility.yul\":8082:8086   */\n              0x20\n                /* \"#utility.yul\":8075:8080   */\n              dup2\n                /* \"#utility.yul\":8071:8087   */\n              add\n                /* \"#utility.yul\":8120:8123   */\n              dup5\n                /* \"#utility.yul\":8111:8117   */\n              dup5\n                /* \"#utility.yul\":8106:8109   */\n              dup5\n                /* \"#utility.yul\":8102:8118   */\n              add\n                /* \"#utility.yul\":8099:8124   */\n              gt\n                /* \"#utility.yul\":8096:8208   */\n              iszero\n              tag_293\n              jumpi\n                /* \"#utility.yul\":8127:8206   */\n              tag_294\n              tag_179\n              jump\t// in\n            tag_294:\n                /* \"#utility.yul\":8096:8208   */\n            tag_293:\n                /* \"#utility.yul\":8217:8258   */\n              tag_295\n                /* \"#utility.yul\":8251:8257   */\n              dup5\n                /* \"#utility.yul\":8246:8249   */\n              dup3\n                /* \"#utility.yul\":8241:8244   */\n              dup6\n                /* \"#utility.yul\":8217:8258   */\n              tag_184\n              jump\t// in\n            tag_295:\n                /* \"#utility.yul\":7936:8264   */\n              pop\n                /* \"#utility.yul\":7852:8264   */\n              swap4\n              swap3\n              pop\n              pop\n              pop\n              jump\t// out\n                /* \"#utility.yul\":8284:8624   */\n            tag_186:\n                /* \"#utility.yul\":8340:8345   */\n              0x00\n                /* \"#utility.yul\":8389:8392   */\n              dup3\n                /* \"#utility.yul\":8382:8386   */\n              0x1f\n                /* \"#utility.yul\":8374:8380   */\n              dup4\n                /* \"#utility.yul\":8370:8387   */\n              add\n                /* \"#utility.yul\":8366:8393   */\n              slt\n                /* \"#utility.yul\":8356:8478   */\n              tag_297\n              jumpi\n                /* \"#utility.yul\":8397:8476   */\n              tag_298\n              tag_178\n              jump\t// in\n            tag_298:\n                /* \"#utility.yul\":8356:8478   */\n            tag_297:\n                /* \"#utility.yul\":8514:8520   */\n              dup2\n                /* \"#utility.yul\":8501:8521   */\n              calldataload\n                /* \"#utility.yul\":8539:8618   */\n              tag_299\n                /* \"#utility.yul\":8614:8617   */\n              dup5\n                /* \"#utility.yul\":8606:8612   */\n              dup3\n                /* \"#utility.yul\":8599:8603   */\n              0x20\n                /* \"#utility.yul\":8591:8597   */\n              dup7\n                /* \"#utility.yul\":8587:8604   */\n              add\n                /* \"#utility.yul\":8539:8618   */\n              tag_185\n              jump\t// in\n            tag_299:\n                /* \"#utility.yul\":8530:8618   */\n              swap2\n              pop\n                /* \"#utility.yul\":8346:8624   */\n              pop\n                /* \"#utility.yul\":8284:8624   */\n              swap3\n              swap2\n              pop\n              pop\n              jump\t// out\n                /* \"#utility.yul\":8630:9429   */\n            tag_65:\n                /* \"#utility.yul\":8717:8723   */\n              0x00\n                /* \"#utility.yul\":8725:8731   */\n              dup1\n                /* \"#utility.yul\":8733:8739   */\n              0x00\n                /* \"#utility.yul\":8782:8784   */\n              0x60\n                /* \"#utility.yul\":8770:8779   */\n              dup5\n                /* \"#utility.yul\":8761:8768   */\n              dup7\n                /* \"#utility.yul\":8757:8780   */\n              sub\n                /* \"#utility.yul\":8753:8785   */\n              slt\n                /* \"#utility.yul\":8750:8869   */\n              iszero\n              tag_301\n              jumpi\n                /* \"#utility.yul\":8788:8867   */\n              tag_302\n              tag_160\n              jump\t// in\n            tag_302:\n                /* \"#utility.yul\":8750:8869   */\n            tag_301:\n                /* \"#utility.yul\":8936:8937   */\n              0x00\n                /* \"#utility.yul\":8925:8934   */\n              dup5\n                /* \"#utility.yul\":8921:8938   */\n              add\n                /* \"#utility.yul\":8908:8939   */\n              calldataload\n                /* \"#utility.yul\":8966:8984   */\n              0xffffffffffffffff\n                /* \"#utility.yul\":8958:8964   */\n              dup2\n                /* \"#utility.yul\":8955:8985   */\n              gt\n                /* \"#utility.yul\":8952:9069   */\n              iszero\n              tag_303\n              jumpi\n                /* \"#utility.yul\":8988:9067   */\n              tag_304\n              tag_161\n              jump\t// in\n            tag_304:\n                /* \"#utility.yul\":8952:9069   */\n            tag_303:\n                /* \"#utility.yul\":9093:9156   */\n              tag_305\n                /* \"#utility.yul\":9148:9155   */\n              dup7\n                /* \"#utility.yul\":9139:9145   */\n              dup3\n                /* \"#utility.yul\":9128:9137   */\n              dup8\n                /* \"#utility.yul\":9124:9146   */\n              add\n                /* \"#utility.yul\":9093:9156   */\n              tag_186\n              jump\t// in\n            tag_305:\n                /* \"#utility.yul\":9083:9156   */\n              swap4\n              pop\n                /* \"#utility.yul\":8879:9166   */\n              pop\n                /* \"#utility.yul\":9205:9207   */\n              0x20\n                /* \"#utility.yul\":9231:9284   */\n              tag_306\n                /* \"#utility.yul\":9276:9283   */\n              dup7\n                /* \"#utility.yul\":9267:9273   */\n              dup3\n                /* \"#utility.yul\":9256:9265   */\n              dup8\n                /* \"#utility.yul\":9252:9274   */\n              add\n                /* \"#utility.yul\":9231:9284   */\n              tag_164\n              jump\t// in\n            tag_306:\n                /* \"#utility.yul\":9221:9284   */\n              swap3\n              pop\n                /* \"#utility.yul\":9176:9294   */\n              pop\n                /* \"#utility.yul\":9333:9335   */\n              0x40\n                /* \"#utility.yul\":9359:9412   */\n              tag_307\n                /* \"#utility.yul\":9404:9411   */\n              dup7\n                /* \"#utility.yul\":9395:9401   */\n              dup3\n                /* \"#utility.yul\":9384:9393   */\n              dup8\n                /* \"#utility.yul\":9380:9402   */\n              add\n                /* \"#utility.yul\":9359:9412   */\n              tag_168\n              jump\t// in\n            tag_307:\n                /* \"#utility.yul\":9349:9412   */\n              swap2\n              pop\n                /* \"#utility.yul\":9304:9422   */\n              pop\n                /* \"#utility.yul\":8630:9429   */\n              swap3\n              pop\n              swap3\n              pop\n              swap3\n              jump\t// out\n                /* \"#utility.yul\":9435:9615   */\n            tag_94:\n                /* \"#utility.yul\":9483:9560   */\n              0x4e487b7100000000000000000000000000000000000000000000000000000000\n                /* \"#utility.yul\":9480:9481   */\n              0x00\n                /* \"#utility.yul\":9473:9561   */\n              mstore\n                /* \"#utility.yul\":9580:9584   */\n              0x32\n                /* \"#utility.yul\":9577:9578   */\n              0x04\n                /* \"#utility.yul\":9570:9585   */\n              mstore\n                /* \"#utility.yul\":9604:9608   */\n              0x24\n                /* \"#utility.yul\":9601:9602   */\n              0x00\n                /* \"#utility.yul\":9594:9609   */\n              revert\n                /* \"#utility.yul\":9621:9801   */\n            tag_187:\n                /* \"#utility.yul\":9669:9746   */\n              0x4e487b7100000000000000000000000000000000000000000000000000000000\n                /* \"#utility.yul\":9666:9667   */\n              0x00\n                /* \"#utility.yul\":9659:9747   */\n              mstore\n                /* \"#utility.yul\":9766:9770   */\n              0x12\n                /* \"#utility.yul\":9763:9764   */\n              0x04\n                /* \"#utility.yul\":9756:9771   */\n              mstore\n                /* \"#utility.yul\":9790:9794   */\n              0x24\n                /* \"#utility.yul\":9787:9788   */\n              0x00\n                /* \"#utility.yul\":9780:9795   */\n              revert\n                /* \"#utility.yul\":9807:9987   */\n            tag_188:\n                /* \"#utility.yul\":9855:9932   */\n              0x4e487b7100000000000000000000000000000000000000000000000000000000\n                /* \"#utility.yul\":9852:9853   */\n              0x00\n                /* \"#utility.yul\":9845:9933   */\n              mstore\n                /* \"#utility.yul\":9952:9956   */\n              0x11\n                /* \"#utility.yul\":9949:9950   */\n              0x04\n                /* \"#utility.yul\":9942:9957   */\n              mstore\n                /* \"#utility.yul\":9976:9980   */\n              0x24\n                /* \"#utility.yul\":9973:9974   */\n              0x00\n                /* \"#utility.yul\":9966:9981   */\n              revert\n                /* \"#utility.yul\":9993:10178   */\n            tag_97:\n                /* \"#utility.yul\":10033:10034   */\n              0x00\n                /* \"#utility.yul\":10050:10070   */\n              tag_312\n                /* \"#utility.yul\":10068:10069   */\n              dup3\n                /* \"#utility.yul\":10050:10070   */\n              tag_162\n              jump\t// in\n            tag_312:\n                /* \"#utility.yul\":10045:10070   */\n              swap2\n              pop\n                /* \"#utility.yul\":10084:10104   */\n              tag_313\n                /* \"#utility.yul\":10102:10103   */\n              dup4\n                /* \"#utility.yul\":10084:10104   */\n              tag_162\n              jump\t// in\n            tag_313:\n                /* \"#utility.yul\":10079:10104   */\n              swap3\n              pop\n                /* \"#utility.yul\":10123:10124   */\n              dup3\n                /* \"#utility.yul\":10113:10148   */\n              tag_314\n              jumpi\n                /* \"#utility.yul\":10128:10146   */\n              tag_315\n              tag_187\n              jump\t// in\n            tag_315:\n                /* \"#utility.yul\":10113:10148   */\n            tag_314:\n                /* \"#utility.yul\":10170:10171   */\n              dup3\n                /* \"#utility.yul\":10167:10168   */\n              dup3\n                /* \"#utility.yul\":10163:10172   */\n              div\n                /* \"#utility.yul\":10158:10172   */\n              swap1\n              pop\n                /* \"#utility.yul\":9993:10178   */\n              swap3\n              swap2\n              pop\n              pop\n              jump\t// out\n                /* \"#utility.yul\":10184:10364   */\n            tag_189:\n                /* \"#utility.yul\":10232:10309   */\n              0x4e487b7100000000000000000000000000000000000000000000000000000000\n                /* \"#utility.yul\":10229:10230   */\n              0x00\n                /* \"#utility.yul\":10222:10310   */\n              mstore\n                /* \"#utility.yul\":10329:10333   */\n              0x22\n                /* \"#utility.yul\":10326:10327   */\n              0x04\n                /* \"#utility.yul\":10319:10334   */\n              mstore\n                /* \"#utility.yul\":10353:10357   */\n              0x24\n                /* \"#utility.yul\":10350:10351   */\n              0x00\n                /* \"#utility.yul\":10343:10358   */\n              revert\n                /* \"#utility.yul\":10370:10690   */\n            tag_105:\n                /* \"#utility.yul\":10414:10420   */\n              0x00\n                /* \"#utility.yul\":10451:10452   */\n              0x02\n                /* \"#utility.yul\":10445:10449   */\n              dup3\n                /* \"#utility.yul\":10441:10453   */\n              div\n                /* \"#utility.yul\":10431:10453   */\n              swap1\n              pop\n                /* \"#utility.yul\":10498:10499   */\n              0x01\n                /* \"#utility.yul\":10492:10496   */\n              dup3\n                /* \"#utility.yul\":10488:10500   */\n              and\n                /* \"#utility.yul\":10519:10537   */\n              dup1\n                /* \"#utility.yul\":10509:10590   */\n              tag_318\n              jumpi\n                /* \"#utility.yul\":10575:10579   */\n              0x7f\n                /* \"#utility.yul\":10567:10573   */\n              dup3\n                /* \"#utility.yul\":10563:10580   */\n              and\n                /* \"#utility.yul\":10553:10580   */\n              swap2\n              pop\n                /* \"#utility.yul\":10509:10590   */\n            tag_318:\n                /* \"#utility.yul\":10637:10639   */\n              0x20\n                /* \"#utility.yul\":10629:10635   */\n              dup3\n                /* \"#utility.yul\":10626:10640   */\n              lt\n                /* \"#utility.yul\":10606:10624   */\n              dup2\n                /* \"#utility.yul\":10603:10641   */\n              sub\n                /* \"#utility.yul\":10600:10684   */\n              tag_319\n              jumpi\n                /* \"#utility.yul\":10656:10674   */\n              tag_320\n              tag_189\n              jump\t// in\n            tag_320:\n                /* \"#utility.yul\":10600:10684   */\n            tag_319:\n                /* \"#utility.yul\":10421:10690   */\n              pop\n                /* \"#utility.yul\":10370:10690   */\n              swap2\n              swap1\n              pop\n              jump\t// out\n                /* \"#utility.yul\":10696:10837   */\n            tag_190:\n                /* \"#utility.yul\":10745:10749   */\n              0x00\n                /* \"#utility.yul\":10768:10771   */\n              dup2\n                /* \"#utility.yul\":10760:10771   */\n              swap1\n              pop\n                /* \"#utility.yul\":10791:10794   */\n              dup2\n                /* \"#utility.yul\":10788:10789   */\n              0x00\n                /* \"#utility.yul\":10781:10795   */\n              mstore\n                /* \"#utility.yul\":10825:10829   */\n              0x20\n                /* \"#utility.yul\":10822:10823   */\n              0x00\n                /* \"#utility.yul\":10812:10830   */\n              keccak256\n                /* \"#utility.yul\":10804:10830   */\n              swap1\n              pop\n                /* \"#utility.yul\":10696:10837   */\n              swap2\n              swap1\n              pop\n              jump\t// out\n                /* \"#utility.yul\":10843:10936   */\n            tag_191:\n                /* \"#utility.yul\":10880:10886   */\n              0x00\n                /* \"#utility.yul\":10927:10929   */\n              0x20\n                /* \"#utility.yul\":10922:10924   */\n              0x1f\n                /* \"#utility.yul\":10915:10920   */\n              dup4\n                /* \"#utility.yul\":10911:10925   */\n              add\n                /* \"#utility.yul\":10907:10930   */\n              div\n                /* \"#utility.yul\":10897:10930   */\n              swap1\n              pop\n                /* \"#utility.yul\":10843:10936   */\n              swap2\n              swap1\n              pop\n              jump\t// out\n                /* \"#utility.yul\":10942:11049   */\n            tag_192:\n                /* \"#utility.yul\":10986:10994   */\n              0x00\n                /* \"#utility.yul\":11036:11041   */\n              dup3\n                /* \"#utility.yul\":11030:11034   */\n              dup3\n                /* \"#utility.yul\":11026:11042   */\n              shl\n                /* \"#utility.yul\":11005:11042   */\n              swap1\n              pop\n                /* \"#utility.yul\":10942:11049   */\n              swap3\n              swap2\n              pop\n              pop\n              jump\t// out\n                /* \"#utility.yul\":11055:11448   */\n            tag_193:\n                /* \"#utility.yul\":11124:11130   */\n              0x00\n                /* \"#utility.yul\":11174:11175   */\n              0x08\n                /* \"#utility.yul\":11162:11172   */\n              dup4\n                /* \"#utility.yul\":11158:11176   */\n              mul\n                /* \"#utility.yul\":11197:11294   */\n              tag_325\n                /* \"#utility.yul\":11227:11293   */\n              0xffffffffffffffffffffffffffffffffffffffffffffffffffffffffffffffff\n                /* \"#utility.yul\":11216:11225   */\n              dup3\n                /* \"#utility.yul\":11197:11294   */\n              tag_192\n              jump\t// in\n            tag_325:\n                /* \"#utility.yul\":11315:11354   */\n              tag_326\n                /* \"#utility.yul\":11345:11353   */\n              dup7\n                /* \"#utility.yul\":11334:11343   */\n              dup4\n                /* \"#utility.yul\":11315:11354   */\n              tag_192\n              jump\t// in\n            tag_326:\n                /* \"#utility.yul\":11303:11354   */\n              swap6\n              pop\n                /* \"#utility.yul\":11387:11391   */\n              dup1\n                /* \"#utility.yul\":11383:11392   */\n              not\n                /* \"#utility.yul\":11376:11381   */\n              dup5\n                /* \"#utility.yul\":11372:11393   */\n              and\n                /* \"#utility.yul\":11363:11393   */\n              swap4\n              pop\n                /* \"#utility.yul\":11436:11440   */\n              dup1\n                /* \"#utility.yul\":11426:11434   */\n              dup7\n                /* \"#utility.yul\":11422:11441   */\n              and\n                /* \"#utility.yul\":11415:11420   */\n              dup5\n                /* \"#utility.yul\":11412:11442   */\n              or\n                /* \"#utility.yul\":11402:11442   */\n              swap3\n              pop\n                /* \"#utility.yul\":11131:11448   */\n              pop\n              pop\n                /* \"#utility.yul\":11055:11448   */\n              swap4\n              swap3\n              pop\n              pop\n              pop\n              jump\t// out\n                /* \"#utility.yul\":11454:11514   */\n            tag_194:\n                /* \"#utility.yul\":11482:11485   */\n              0x00\n                /* \"#utility.yul\":11503:11508   */\n              dup2\n                /* \"#utility.yul\":11496:11508   */\n              swap1\n              pop\n                /* \"#utility.yul\":11454:11514   */\n              swap2\n              swap1\n              pop\n              jump\t// out\n                /* \"#utility.yul\":11520:11662   */\n            tag_195:\n                /* \"#utility.yul\":11570:11579   */\n              0x00\n                /* \"#utility.yul\":11603:11656   */\n              tag_329\n                /* \"#utility.yul\":11621:11655   */\n              tag_330\n                /* \"#utility.yul\":11630:11654   */\n              tag_331\n                /* \"#utility.yul\":11648:11653   */\n              dup5\n                /* \"#utility.yul\":11630:11654   */\n              tag_162\n              jump\t// in\n            tag_331:\n                /* \"#utility.yul\":11621:11655   */\n              tag_194\n              jump\t// in\n            tag_330:\n                /* \"#utility.yul\":11603:11656   */\n              tag_162\n              jump\t// in\n            tag_329:\n                /* \"#utility.yul\":11590:11656   */\n              swap1\n              pop\n                /* \"#utility.yul\":11520:11662   */\n              swap2\n              swap1\n              pop\n              jump\t// out\n                /* \"#utility.yul\":11668:11743   */\n            tag_196:\n                /* \"#utility.yul\":11711:11714   */\n              0x00\n                /* \"#utility.yul\":11732:11737   */\n              dup2\n                /* \"#utility.yul\":11725:11737   */\n              swap1\n              pop\n                /* \"#utility.yul\":11668:11743   */\n              swap2\n              swap1\n              pop\n              jump\t// out\n                /* \"#utility.yul\":11749:12018   */\n            tag_197:\n                /* \"#utility.yul\":11859:11898   */\n              tag_334\n                /* \"#utility.yul\":11890:11897   */\n              dup4\n                /* \"#utility.yul\":11859:11898   */\n              tag_195\n              jump\t// in\n            tag_334:\n                /* \"#utility.yul\":11920:12011   */\n              tag_335\n                /* \"#utility.yul\":11969:12010   */\n              tag_336\n                /* \"#utility.yul\":11993:12009   */\n              dup3\n                /* \"#utility.yul\":11969:12010   */\n              tag_196\n              jump\t// in\n            tag_336:\n                /* \"#utility.yul\":11961:11967   */\n              dup5\n                /* \"#utility.yul\":11954:11958   */\n              dup5\n                /* \"#utility.yul\":11948:11959   */\n              sload\n                /* \"#utility.yul\":11920:12011   */\n              tag_193\n              jump\t// in\n            tag_335:\n                /* \"#utility.yul\":11914:11918   */\n              dup3\n                /* \"#utility.yul\":11907:12012   */\n              sstore\n                /* \"#utility.yul\":11825:12018   */\n              pop\n                /* \"#utility.yul\":11749:12018   */\n              pop\n              pop\n              pop\n              jump\t// out\n                /* \"#utility.yul\":12024:12097   */\n            tag_198:\n                /* \"#utility.yul\":12069:12072   */\n              0x00\n                /* \"#utility.yul\":12024:12097   */\n              swap1\n              jump\t// out\n                /* \"#utility.yul\":12103:12292   */\n            tag_199:\n                /* \"#utility.yul\":12180:12212   */\n              tag_339\n              tag_198\n              jump\t// in\n            tag_339:\n                /* \"#utility.yul\":12221:12286   */\n              tag_340\n                /* \"#utility.yul\":12279:12285   */\n              dup2\n                /* \"#utility.yul\":12271:12277   */\n              dup5\n                /* \"#utility.yul\":12265:12269   */\n              dup5\n                /* \"#utility.yul\":12221:12286   */\n              tag_197\n              jump\t// in\n            tag_340:\n                /* \"#utility.yul\":12156:12292   */\n              pop\n                /* \"#utility.yul\":12103:12292   */\n              pop\n              pop\n              jump\t// out\n                /* \"#utility.yul\":12298:12484   */\n            tag_200:\n                /* \"#utility.yul\":12358:12478   */\n            tag_342:\n                /* \"#utility.yul\":12375:12378   */\n              dup2\n                /* \"#utility.yul\":12368:12373   */\n              dup2\n                /* \"#utility.yul\":12365:12379   */\n              lt\n                /* \"#utility.yul\":12358:12478   */\n              iszero\n              tag_344\n              jumpi\n                /* \"#utility.yul\":12429:12468   */\n              tag_345\n                /* \"#utility.yul\":12466:12467   */\n              0x00\n                /* \"#utility.yul\":12459:12464   */\n              dup3\n                /* \"#utility.yul\":12429:12468   */\n              tag_199\n              jump\t// in\n            tag_345:\n                /* \"#utility.yul\":12402:12403   */\n              0x01\n                /* \"#utility.yul\":12395:12400   */\n              dup2\n                /* \"#utility.yul\":12391:12404   */\n              add\n                /* \"#utility.yul\":12382:12404   */\n              swap1\n              pop\n                /* \"#utility.yul\":12358:12478   */\n              jump(tag_342)\n            tag_344:\n                /* \"#utility.yul\":12298:12484   */\n              pop\n              pop\n              jump\t// out\n                /* \"#utility.yul\":12490:13033   */\n            tag_201:\n                /* \"#utility.yul\":12591:12593   */\n              0x1f\n                /* \"#utility.yul\":12586:12589   */\n              dup3\n                /* \"#utility.yul\":12583:12594   */\n              gt\n                /* \"#utility.yul\":12580:13026   */\n              iszero\n              tag_347\n              jumpi\n                /* \"#utility.yul\":12625:12663   */\n              tag_348\n                /* \"#utility.yul\":12657:12662   */\n              dup2\n                /* \"#utility.yul\":12625:12663   */\n              tag_190\n              jump\t// in\n            tag_348:\n                /* \"#utility.yul\":12709:12738   */\n              tag_349\n                /* \"#utility.yul\":12727:12737   */\n              dup5\n                /* \"#utility.yul\":12709:12738   */\n              tag_191\n              jump\t// in\n            tag_349:\n                /* \"#utility.yul\":12699:12707   */\n              dup2\n                /* \"#utility.yul\":12695:12739   */\n              add\n                /* \"#utility.yul\":12892:12894   */\n              0x20\n                /* \"#utility.yul\":12880:12890   */\n              dup6\n                /* \"#utility.yul\":12877:12895   */\n              lt\n                /* \"#utility.yul\":12874:12923   */\n              iszero\n              tag_350\n              jumpi\n                /* \"#utility.yul\":12913:12921   */\n              dup2\n                /* \"#utility.yul\":12898:12921   */\n              swap1\n              pop\n                /* \"#utility.yul\":12874:12923   */\n            tag_350:\n                /* \"#utility.yul\":12936:13016   */\n              tag_351\n                /* \"#utility.yul\":12992:13014   */\n              tag_352\n                /* \"#utility.yul\":13010:13013   */\n              dup6\n                /* \"#utility.yul\":12992:13014   */\n              tag_191\n              jump\t// in\n            tag_352:\n                /* \"#utility.yul\":12982:12990   */\n              dup4\n                /* \"#utility.yul\":12978:13015   */\n              add\n                /* \"#utility.yul\":12965:12976   */\n              dup3\n                /* \"#utility.yul\":12936:13016   */\n              tag_200\n              jump\t// in\n            tag_351:\n                /* \"#utility.yul\":12595:13026   */\n              pop\n              pop\n                /* \"#utility.yul\":12580:13026   */\n            tag_347:\n                /* \"#utility.yul\":12490:13033   */\n              pop\n              pop\n              pop\n              jump\t// out\n                /* \"#utility.yul\":13039:13156   */\n            tag_202:\n                /* \"#utility.yul\":13093:13101   */\n              0x00\n                /* \"#utility.yul\":13143:13148   */\n              dup3\n                /* \"#utility.yul\":13137:13141   */\n              dup3\n                /* \"#utility.yul\":13133:13149   */\n              shr\n                /* \"#utility.yul\":13112:13149   */\n              swap1\n              pop\n                /* \"#utility.yul\":13039:13156   */\n              swap3\n              swap2\n              pop\n              pop\n              jump\t// out\n                /* \"#utility.yul\":13162:13331   */\n            tag_203:\n                /* \"#utility.yul\":13206:13212   */\n              0x00\n                /* \"#utility.yul\":13239:13290   */\n              tag_355\n                /* \"#utility.yul\":13287:13288   */\n              0x00\n                /* \"#utility.yul\":13283:13289   */\n              not\n                /* \"#utility.yul\":13275:13280   */\n              dup5\n                /* \"#utility.yul\":13272:13273   */\n              0x08\n                /* \"#utility.yul\":13268:13281   */\n              mul\n                /* \"#utility.yul\":13239:13290   */\n              tag_202\n              jump\t// in\n            tag_355:\n                /* \"#utility.yul\":13235:13291   */\n              not\n                /* \"#utility.yul\":13320:13324   */\n              dup1\n                /* \"#utility.yul\":13314:13318   */\n              dup4\n                /* \"#utility.yul\":13310:13325   */\n              and\n                /* \"#utility.yul\":13300:13325   */\n              swap2\n              pop\n                /* \"#utility.yul\":13213:13331   */\n              pop\n                /* \"#utility.yul\":13162:13331   */\n              swap3\n              swap2\n              pop\n              pop\n              jump\t// out\n                /* \"#utility.yul\":13336:13631   */\n            tag_204:\n                /* \"#utility.yul\":13412:13416   */\n              0x00\n                /* \"#utility.yul\":13558:13587   */\n              tag_357\n                /* \"#utility.yul\":13583:13586   */\n              dup4\n                /* \"#utility.yul\":13577:13581   */\n              dup4\n                /* \"#utility.yul\":13558:13587   */\n              tag_203\n              jump\t// in\n            tag_357:\n                /* \"#utility.yul\":13550:13587   */\n              swap2\n              pop\n                /* \"#utility.yul\":13620:13623   */\n              dup3\n                /* \"#utility.yul\":13617:13618   */\n              0x02\n                /* \"#utility.yul\":13613:13624   */\n              mul\n                /* \"#utility.yul\":13607:13611   */\n              dup3\n                /* \"#utility.yul\":13604:13625   */\n              or\n                /* \"#utility.yul\":13596:13625   */\n              swap1\n              pop\n                /* \"#utility.yul\":13336:13631   */\n              swap3\n              swap2\n              pop\n              pop\n              jump\t// out\n                /* \"#utility.yul\":13636:15031   */\n            tag_137:\n                /* \"#utility.yul\":13753:13790   */\n              tag_359\n                /* \"#utility.yul\":13786:13789   */\n              dup3\n                /* \"#utility.yul\":13753:13790   */\n              tag_173\n              jump\t// in\n            tag_359:\n                /* \"#utility.yul\":13855:13873   */\n              0xffffffffffffffff\n                /* \"#utility.yul\":13847:13853   */\n              dup2\n                /* \"#utility.yul\":13844:13874   */\n              gt\n                /* \"#utility.yul\":13841:13897   */\n              iszero\n              tag_360\n              jumpi\n                /* \"#utility.yul\":13877:13895   */\n              tag_361\n              tag_180\n              jump\t// in\n            tag_361:\n                /* \"#utility.yul\":13841:13897   */\n            tag_360:\n                /* \"#utility.yul\":13921:13959   */\n              tag_362\n                /* \"#utility.yul\":13953:13957   */\n              dup3\n                /* \"#utility.yul\":13947:13958   */\n              sload\n                /* \"#utility.yul\":13921:13959   */\n              tag_105\n              jump\t// in\n            tag_362:\n                /* \"#utility.yul\":14006:14073   */\n              tag_363\n                /* \"#utility.yul\":14066:14072   */\n              dup3\n                /* \"#utility.yul\":14058:14064   */\n              dup3\n                /* \"#utility.yul\":14052:14056   */\n              dup6\n                /* \"#utility.yul\":14006:14073   */\n              tag_201\n              jump\t// in\n            tag_363:\n                /* \"#utility.yul\":14100:14101   */\n              0x00\n                /* \"#utility.yul\":14124:14128   */\n              0x20\n                /* \"#utility.yul\":14111:14128   */\n              swap1\n              pop\n                /* \"#utility.yul\":14156:14158   */\n              0x1f\n                /* \"#utility.yul\":14148:14154   */\n              dup4\n                /* \"#utility.yul\":14145:14159   */\n              gt\n                /* \"#utility.yul\":14173:14174   */\n              0x01\n                /* \"#utility.yul\":14168:14786   */\n              dup2\n              eq\n              tag_365\n              jumpi\n                /* \"#utility.yul\":14830:14831   */\n              0x00\n                /* \"#utility.yul\":14847:14853   */\n              dup5\n                /* \"#utility.yul\":14844:14921   */\n              iszero\n              tag_366\n              jumpi\n                /* \"#utility.yul\":14896:14905   */\n              dup3\n                /* \"#utility.yul\":14891:14894   */\n              dup8\n                /* \"#utility.yul\":14887:14906   */\n              add\n                /* \"#utility.yul\":14881:14907   */\n              mload\n                /* \"#utility.yul\":14872:14907   */\n              swap1\n              pop\n                /* \"#utility.yul\":14844:14921   */\n            tag_366:\n                /* \"#utility.yul\":14947:15014   */\n              tag_367\n                /* \"#utility.yul\":15007:15013   */\n              dup6\n                /* \"#utility.yul\":15000:15005   */\n              dup3\n                /* \"#utility.yul\":14947:15014   */\n              tag_204\n              jump\t// in\n            tag_367:\n                /* \"#utility.yul\":14941:14945   */\n              dup7\n                /* \"#utility.yul\":14934:15015   */\n              sstore\n                /* \"#utility.yul\":14803:15025   */\n              pop\n                /* \"#utility.yul\":14138:15025   */\n              jump(tag_364)\n                /* \"#utility.yul\":14168:14786   */\n            tag_365:\n                /* \"#utility.yul\":14220:14224   */\n              0x1f\n                /* \"#utility.yul\":14216:14225   */\n              not\n                /* \"#utility.yul\":14208:14214   */\n              dup5\n                /* \"#utility.yul\":14204:14226   */\n              and\n                /* \"#utility.yul\":14254:14291   */\n              tag_368\n                /* \"#utility.yul\":14286:14290   */\n              dup7\n                /* \"#utility.yul\":14254:14291   */\n              tag_190\n              jump\t// in\n            tag_368:\n                /* \"#utility.yul\":14313:14314   */\n              0x00\n                /* \"#utility.yul\":14327:14535   */\n            tag_369:\n                /* \"#utility.yul\":14341:14348   */\n              dup3\n                /* \"#utility.yul\":14338:14339   */\n              dup2\n                /* \"#utility.yul\":14335:14349   */\n              lt\n                /* \"#utility.yul\":14327:14535   */\n              iszero\n              tag_371\n              jumpi\n                /* \"#utility.yul\":14420:14429   */\n              dup5\n                /* \"#utility.yul\":14415:14418   */\n              dup10\n                /* \"#utility.yul\":14411:14430   */\n              add\n                /* \"#utility.yul\":14405:14431   */\n              mload\n                /* \"#utility.yul\":14397:14403   */\n              dup3\n                /* \"#utility.yul\":14390:14432   */\n              sstore\n                /* \"#utility.yul\":14471:14472   */\n              0x01\n                /* \"#utility.yul\":14463:14469   */\n              dup3\n                /* \"#utility.yul\":14459:14473   */\n              add\n                /* \"#utility.yul\":14449:14473   */\n              swap2\n              pop\n                /* \"#utility.yul\":14518:14520   */\n              0x20\n                /* \"#utility.yul\":14507:14516   */\n              dup6\n                /* \"#utility.yul\":14503:14521   */\n              add\n                /* \"#utility.yul\":14490:14521   */\n              swap5\n              pop\n                /* \"#utility.yul\":14364:14368   */\n              0x20\n                /* \"#utility.yul\":14361:14362   */\n              dup2\n                /* \"#utility.yul\":14357:14369   */\n              add\n                /* \"#utility.yul\":14352:14369   */\n              swap1\n              pop\n                /* \"#utility.yul\":14327:14535   */\n              jump(tag_369)\n            tag_371:\n                /* \"#utility.yul\":14563:14569   */\n              dup7\n                /* \"#utility.yul\":14554:14561   */\n              dup4\n                /* \"#utility.yul\":14551:14570   */\n              lt\n                /* \"#utility.yul\":14548:14727   */\n              iszero\n              tag_372\n              jumpi\n                /* \"#utility.yul\":14621:14630   */\n              dup5\n                /* \"#utility.yul\":14616:14619   */\n              dup10\n                /* \"#utility.yul\":14612:14631   */\n              add\n                /* \"#utility.yul\":14606:14632   */\n              mload\n                /* \"#utility.yul\":14664:14712   */\n              tag_373\n                /* \"#utility.yul\":14706:14710   */\n              0x1f\n                /* \"#utility.yul\":14698:14704   */\n              dup10\n                /* \"#utility.yul\":14694:14711   */\n              and\n                /* \"#utility.yul\":14683:14692   */\n              dup3\n                /* \"#utility.yul\":14664:14712   */\n              tag_203\n              jump\t// in\n            tag_373:\n                /* \"#utility.yul\":14656:14662   */\n              dup4\n                /* \"#utility.yul\":14649:14713   */\n              sstore\n                /* \"#utility.yul\":14571:14727   */\n              pop\n                /* \"#utility.yul\":14548:14727   */\n            tag_372:\n                /* \"#utility.yul\":14773:14774   */\n              0x01\n                /* \"#utility.yul\":14769:14770   */\n              0x02\n                /* \"#utility.yul\":14761:14767   */\n              dup9\n                /* \"#utility.yul\":14757:14771   */\n              mul\n                /* \"#utility.yul\":14753:14775   */\n              add\n                /* \"#utility.yul\":14747:14751   */\n              dup9\n                /* \"#utility.yul\":14740:14776   */\n              sstore\n                /* \"#utility.yul\":14175:14786   */\n              pop\n              pop\n              pop\n                /* \"#utility.yul\":14138:15025   */\n            tag_364:\n              pop\n                /* \"#utility.yul\":13728:15031   */\n              pop\n              pop\n              pop\n                /* \"#utility.yul\":13636:15031   */\n              pop\n              pop\n              jump\t// out\n                /* \"#utility.yul\":15037:15270   */\n            tag_151:\n                /* \"#utility.yul\":15076:15079   */\n              0x00\n                /* \"#utility.yul\":15099:15123   */\n              tag_375\n                /* \"#utility.yul\":15117:15122   */\n              dup3\n                /* \"#utility.yul\":15099:15123   */\n              tag_162\n              jump\t// in\n            tag_375:\n                /* \"#utility.yul\":15090:15123   */\n              swap2\n              pop\n                /* \"#utility.yul\":15145:15211   */\n              0xffffffffffffffffffffffffffffffffffffffffffffffffffffffffffffffff\n                /* \"#utility.yul\":15138:15143   */\n              dup3\n                /* \"#utility.yul\":15135:15212   */\n              sub\n                /* \"#utility.yul\":15132:15235   */\n              tag_376\n              jumpi\n                /* \"#utility.yul\":15215:15233   */\n              tag_377\n              tag_188\n              jump\t// in\n            tag_377:\n                /* \"#utility.yul\":15132:15235   */\n            tag_376:\n                /* \"#utility.yul\":15262:15263   */\n              0x01\n                /* \"#utility.yul\":15255:15260   */\n              dup3\n                /* \"#utility.yul\":15251:15264   */\n              add\n                /* \"#utility.yul\":15244:15264   */\n              swap1\n              pop\n                /* \"#utility.yul\":15037:15270   */\n              swap2\n              swap1\n              pop\n              jump\t// out\n\n            auxdata: 0xa2646970667358221220979df2c430aa4935df7119b9a80a1b49b8c8b1a2c3ba5d38307e2d858e83132d64736f6c634300080f0033\n        }\n    }\n\n    auxdata: 0xa26469706673582212206062934508953f4351b652b8099f8830feef540ff953a8640551b6aef66c595f64736f6c634300080f0033\n}\n","bytecode":{"linkReferences":{},"object":"608060405234801561001057600080fd5b506124d1806100206000396000f3fe60806040523480156200001157600080fd5b5060043610620000465760003560e01c8063339d50a5146200004b5780634acb9d4f1462000081578063d4ddd71a14620000a3575b600080fd5b620000696004803603810190620000639190620002a2565b620000c3565b60405162000078919062000319565b60405180910390f35b6200008b62000103565b6040516200009a919062000404565b60405180910390f35b620000c16004803603810190620000bb91906200058a565b62000193565b005b60008181548110620000d457600080fd5b906000526020600020016000915054906101000a900473ffffffffffffffffffffffffffffffffffffffff1681565b606060008054806020026020016040519081016040528092919081815260200182805480156200018957602002820191906000526020600020905b8160009054906101000a900473ffffffffffffffffffffffffffffffffffffffff1673ffffffffffffffffffffffffffffffffffffffff16815260200190600101908083116200013e575b5050505050905090565b6000853386868686604051620001a99062000245565b620001ba9695949392919062000738565b604051809103906000f080158015620001d7573d6000803e3d6000fd5b5090506000819080600181540180825580915050600190039060005260206000200160009091909190916101000a81548173ffffffffffffffffffffffffffffffffffffffff021916908373ffffffffffffffffffffffffffffffffffffffff160217905550505050505050565b611ce180620007bb83390190565b6000604051905090565b600080fd5b600080fd5b6000819050919050565b6200027c8162000267565b81146200028857600080fd5b50565b6000813590506200029c8162000271565b92915050565b600060208284031215620002bb57620002ba6200025d565b5b6000620002cb848285016200028b565b91505092915050565b600073ffffffffffffffffffffffffffffffffffffffff82169050919050565b60006200030182620002d4565b9050919050565b6200031381620002f4565b82525050565b600060208201905062000330600083018462000308565b92915050565b600081519050919050565b600082825260208201905092915050565b6000819050602082019050919050565b6200036d81620002f4565b82525050565b600062000381838362000362565b60208301905092915050565b6000602082019050919050565b6000620003a78262000336565b620003b3818562000341565b9350620003c08362000352565b8060005b83811015620003f7578151620003db888262000373565b9750620003e8836200038d565b925050600181019050620003c4565b5085935050505092915050565b600060208201905081810360008301526200042081846200039a565b905092915050565b600080fd5b600080fd5b6000601f19601f8301169050919050565b7f4e487b7100000000000000000000000000000000000000000000000000000000600052604160045260246000fd5b6200047d8262000432565b810181811067ffffffffffffffff821117156200049f576200049e62000443565b5b80604052505050565b6000620004b462000253565b9050620004c2828262000472565b919050565b600067ffffffffffffffff821115620004e557620004e462000443565b5b620004f08262000432565b9050602081019050919050565b82818337600083830152505050565b6000620005236200051d84620004c7565b620004a8565b9050828152602081018484840111156200054257620005416200042d565b5b6200054f848285620004fd565b509392505050565b600082601f8301126200056f576200056e62000428565b5b8135620005818482602086016200050c565b91505092915050565b600080600080600060a08688031215620005a957620005a86200025d565b5b6000620005b9888289016200028b565b955050602086013567ffffffffffffffff811115620005dd57620005dc62000262565b5b620005eb8882890162000557565b945050604086013567ffffffffffffffff8111156200060f576200060e62000262565b5b6200061d8882890162000557565b935050606086013567ffffffffffffffff81111562000641576200064062000262565b5b6200064f8882890162000557565b925050608062000662888289016200028b565b9150509295509295909350565b6200067a8162000267565b82525050565b60006200068d82620002d4565b9050919050565b6200069f8162000680565b82525050565b600081519050919050565b600082825260208201905092915050565b60005b83811015620006e1578082015181840152602081019050620006c4565b83811115620006f1576000848401525b50505050565b60006200070482620006a5565b620007108185620006b0565b935062000722818560208601620006c1565b6200072d8162000432565b840191505092915050565b600060c0820190506200074f60008301896200066f565b6200075e602083018862000694565b8181036040830152620007728187620006f7565b90508181036060830152620007888186620006f7565b905081810360808301526200079e8185620006f7565b9050620007af60a08301846200066f565b97965050505050505056fe60806040523480156200001157600080fd5b5060405162001ce138038062001ce1833981810160405281019062000037919062000305565b84600160006101000a81548173ffffffffffffffffffffffffffffffffffffffff021916908373ffffffffffffffffffffffffffffffffffffffff1602179055508560028190555083600590816200009091906200063f565b508260069081620000a291906200063f565b508160079081620000b491906200063f565b508060088190555050505050505062000726565b6000604051905090565b600080fd5b600080fd5b6000819050919050565b620000f181620000dc565b8114620000fd57600080fd5b50565b6000815190506200011181620000e6565b92915050565b600073ffffffffffffffffffffffffffffffffffffffff82169050919050565b6000620001448262000117565b9050919050565b620001568162000137565b81146200016257600080fd5b50565b60008151905062000176816200014b565b92915050565b600080fd5b600080fd5b6000601f19601f8301169050919050565b7f4e487b7100000000000000000000000000000000000000000000000000000000600052604160045260246000fd5b620001d18262000186565b810181811067ffffffffffffffff82111715620001f357620001f262000197565b5b80604052505050565b600062000208620000c8565b9050620002168282620001c6565b919050565b600067ffffffffffffffff82111562000239576200023862000197565b5b620002448262000186565b9050602081019050919050565b60005b838110156200027157808201518184015260208101905062000254565b8381111562000281576000848401525b50505050565b60006200029e62000298846200021b565b620001fc565b905082815260208101848484011115620002bd57620002bc62000181565b5b620002ca84828562000251565b509392505050565b600082601f830112620002ea57620002e96200017c565b5b8151620002fc84826020860162000287565b91505092915050565b60008060008060008060c08789031215620003255762000324620000d2565b5b60006200033589828a0162000100565b96505060206200034889828a0162000165565b955050604087015167ffffffffffffffff8111156200036c576200036b620000d7565b5b6200037a89828a01620002d2565b945050606087015167ffffffffffffffff8111156200039e576200039d620000d7565b5b620003ac89828a01620002d2565b935050608087015167ffffffffffffffff811115620003d057620003cf620000d7565b5b620003de89828a01620002d2565b92505060a0620003f189828a0162000100565b9150509295509295509295565b600081519050919050565b7f4e487b7100000000000000000000000000000000000000000000000000000000600052602260045260246000fd5b600060028204905060018216806200045157607f821691505b60208210810362000467576200046662000409565b5b50919050565b60008190508160005260206000209050919050565b60006020601f8301049050919050565b600082821b905092915050565b600060088302620004d17fffffffffffffffffffffffffffffffffffffffffffffffffffffffffffffffff8262000492565b620004dd868362000492565b95508019841693508086168417925050509392505050565b6000819050919050565b6000620005206200051a6200051484620000dc565b620004f5565b620000dc565b9050919050565b6000819050919050565b6200053c83620004ff565b620005546200054b8262000527565b8484546200049f565b825550505050565b600090565b6200056b6200055c565b6200057881848462000531565b505050565b5b81811015620005a0576200059460008262000561565b6001810190506200057e565b5050565b601f821115620005ef57620005b9816200046d565b620005c48462000482565b81016020851015620005d4578190505b620005ec620005e38562000482565b8301826200057d565b50505b505050565b600082821c905092915050565b60006200061460001984600802620005f4565b1980831691505092915050565b60006200062f838362000601565b9150826002028217905092915050565b6200064a82620003fe565b67ffffffffffffffff81111562000666576200066562000197565b5b62000672825462000438565b6200067f828285620005a4565b600060209050601f831160018114620006b75760008415620006a2578287015190505b620006ae858262000621565b8655506200071e565b601f198416620006c7866200046d565b60005b82811015620006f157848901518255600182019150602085019450602081019050620006ca565b868310156200071157848901516200070d601f89168262000601565b8355505b6001600288020188555050505b505050505050565b6115ab80620007366000396000f3fe6080604052600436106100e85760003560e01c806382fde0931161008a57806397654a8c1161005957806397654a8c146102f2578063aba831501461031d578063d7bb99ba14610348578063d7d1bbdb14610352576100e8565b806382fde093146102485780638a9cfd55146102735780638b85165d1461029c578063937e09b1146102c7576100e8565b80634051ddac116100c65780634051ddac1461017e578063481c6a75146101b15780637e7cd1b3146101dc57806381d12c5814610207576100e8565b806303441006146100ed5780630a144391146101165780633410452a14610153575b600080fd5b3480156100f957600080fd5b50610114600480360381019061010f9190610cf4565b61037b565b005b34801561012257600080fd5b5061013d60048036038101906101389190610d7f565b6104c4565b60405161014a9190610dc7565b60405180910390f35b34801561015f57600080fd5b506101686104e4565b6040516101759190610df1565b60405180910390f35b34801561018a57600080fd5b506101936104f0565b6040516101a899989796959493929190610eb4565b60405180910390f35b3480156101bd57600080fd5b506101c66106f9565b6040516101d39190610f56565b60405180910390f35b3480156101e857600080fd5b506101f161071f565b6040516101fe9190610f71565b60405180910390f35b34801561021357600080fd5b5061022e60048036038101906102299190610cf4565b6107ad565b60405161023f959493929190610f93565b60405180910390f35b34801561025457600080fd5b5061025d6108a8565b60405161026a9190610df1565b60405180910390f35b34801561027f57600080fd5b5061029a60048036038101906102959190611122565b6108ae565b005b3480156102a857600080fd5b506102b16109b6565b6040516102be9190610df1565b60405180910390f35b3480156102d357600080fd5b506102dc6109bc565b6040516102e99190610df1565b60405180910390f35b3480156102fe57600080fd5b506103076109c2565b6040516103149190610f71565b60405180910390f35b34801561032957600080fd5b50610332610a50565b60405161033f9190610f71565b60405180910390f35b610350610ade565b005b34801561035e57600080fd5b5061037960048036038101906103749190610cf4565b610b5e565b005b600160009054906101000a900473ffffffffffffffffffffffffffffffffffffffff1673ffffffffffffffffffffffffffffffffffffffff163373ffffffffffffffffffffffffffffffffffffffff16146103d557600080fd5b60008082815481106103ea576103e9611191565b5b906000526020600020906005020190506002600454610409919061121e565b81600301541161041857600080fd5b8060020160149054906101000a900460ff161561043457600080fd5b8060020160009054906101000a900473ffffffffffffffffffffffffffffffffffffffff1673ffffffffffffffffffffffffffffffffffffffff166108fc82600101549081150290604051600060405180830381858888f193505050501580156104a2573d6000803e3d6000fd5b5060018160020160146101000a81548160ff0219169083151502179055505050565b60036020528060005260406000206000915054906101000a900460ff1681565b60008080549050905090565b60008060008060006060806060600060025447600080549050600454600160009054906101000a900473ffffffffffffffffffffffffffffffffffffffff166005600660076008548380546105449061127e565b80601f01602080910402602001604051908101604052809291908181526020018280546105709061127e565b80156105bd5780601f10610592576101008083540402835291602001916105bd565b820191906000526020600020905b8154815290600101906020018083116105a057829003601f168201915b505050505093508280546105d09061127e565b80601f01602080910402602001604051908101604052809291908181526020018280546105fc9061127e565b80156106495780601f1061061e57610100808354040283529160200191610649565b820191906000526020600020905b81548152906001019060200180831161062c57829003601f168201915b5050505050925081805461065c9061127e565b80601f01602080910402602001604051908101604052809291908181526020018280546106889061127e565b80156106d55780601f106106aa576101008083540402835291602001916106d5565b820191906000526020600020905b8154815290600101906020018083116106b857829003601f168201915b50505050509150985098509850985098509850985098509850909192939495969798565b600160009054906101000a900473ffffffffffffffffffffffffffffffffffffffff1681565b6005805461072c9061127e565b80601f01602080910402602001604051908101604052809291908181526020018280546107589061127e565b80156107a55780601f1061077a576101008083540402835291602001916107a5565b820191906000526020600020905b81548152906001019060200180831161078857829003601f168201915b505050505081565b600081815481106107bd57600080fd5b90600052602060002090600502016000915090508060000180546107e09061127e565b80601f016020809104026020016040519081016040528092919081815260200182805461080c9061127e565b80156108595780601f1061082e57610100808354040283529160200191610859565b820191906000526020600020905b81548152906001019060200180831161083c57829003601f168201915b5050505050908060010154908060020160009054906101000a900473ffffffffffffffffffffffffffffffffffffffff16908060020160149054906101000a900460ff16908060030154905085565b60045481565b600160009054906101000a900473ffffffffffffffffffffffffffffffffffffffff1673ffffffffffffffffffffffffffffffffffffffff163373ffffffffffffffffffffffffffffffffffffffff161461090857600080fd5b60008060018160018154018082558091505003906000526020600020906005020190508381600001908161093c919061145b565b50828160010181905550818160020160006101000a81548173ffffffffffffffffffffffffffffffffffffffff021916908373ffffffffffffffffffffffffffffffffffffffff16021790555060008160020160146101000a81548160ff0219169083151502179055506000816003018190555050505050565b60085481565b60025481565b600680546109cf9061127e565b80601f01602080910402602001604051908101604052809291908181526020018280546109fb9061127e565b8015610a485780601f10610a1d57610100808354040283529160200191610a48565b820191906000526020600020905b815481529060010190602001808311610a2b57829003601f168201915b505050505081565b60078054610a5d9061127e565b80601f0160208091040260200160405190810160405280929190818152602001828054610a899061127e565b8015610ad65780601f10610aab57610100808354040283529160200191610ad6565b820191906000526020600020905b815481529060010190602001808311610ab957829003601f168201915b505050505081565b6002543411610aec57600080fd5b6001600360003373ffffffffffffffffffffffffffffffffffffffff1673ffffffffffffffffffffffffffffffffffffffff16815260200190815260200160002060006101000a81548160ff02191690831515021790555060046000815480929190610b579061152d565b9190505550565b6000808281548110610b7357610b72611191565b5b90600052602060002090600502019050600360003373ffffffffffffffffffffffffffffffffffffffff1673ffffffffffffffffffffffffffffffffffffffff16815260200190815260200160002060009054906101000a900460ff16610bd957600080fd5b8060040160003373ffffffffffffffffffffffffffffffffffffffff1673ffffffffffffffffffffffffffffffffffffffff16815260200190815260200160002060009054906101000a900460ff1615610c3257600080fd5b60018160040160003373ffffffffffffffffffffffffffffffffffffffff1673ffffffffffffffffffffffffffffffffffffffff16815260200190815260200160002060006101000a81548160ff021916908315150217905550806003016000815480929190610ca19061152d565b91905055505050565b6000604051905090565b600080fd5b600080fd5b6000819050919050565b610cd181610cbe565b8114610cdc57600080fd5b50565b600081359050610cee81610cc8565b92915050565b600060208284031215610d0a57610d09610cb4565b5b6000610d1884828501610cdf565b91505092915050565b600073ffffffffffffffffffffffffffffffffffffffff82169050919050565b6000610d4c82610d21565b9050919050565b610d5c81610d41565b8114610d6757600080fd5b50565b600081359050610d7981610d53565b92915050565b600060208284031215610d9557610d94610cb4565b5b6000610da384828501610d6a565b91505092915050565b60008115159050919050565b610dc181610dac565b82525050565b6000602082019050610ddc6000830184610db8565b92915050565b610deb81610cbe565b82525050565b6000602082019050610e066000830184610de2565b92915050565b610e1581610d41565b82525050565b600081519050919050565b600082825260208201905092915050565b60005b83811015610e55578082015181840152602081019050610e3a565b83811115610e64576000848401525b50505050565b6000601f19601f8301169050919050565b6000610e8682610e1b565b610e908185610e26565b9350610ea0818560208601610e37565b610ea981610e6a565b840191505092915050565b600061012082019050610eca600083018c610de2565b610ed7602083018b610de2565b610ee4604083018a610de2565b610ef16060830189610de2565b610efe6080830188610e0c565b81810360a0830152610f108187610e7b565b905081810360c0830152610f248186610e7b565b905081810360e0830152610f388185610e7b565b9050610f48610100830184610de2565b9a9950505050505050505050565b6000602082019050610f6b6000830184610e0c565b92915050565b60006020820190508181036000830152610f8b8184610e7b565b905092915050565b600060a0820190508181036000830152610fad8188610e7b565b9050610fbc6020830187610de2565b610fc96040830186610e0c565b610fd66060830185610db8565b610fe36080830184610de2565b9695505050505050565b600080fd5b600080fd5b7f4e487b7100000000000000000000000000000000000000000000000000000000600052604160045260246000fd5b61102f82610e6a565b810181811067ffffffffffffffff8211171561104e5761104d610ff7565b5b80604052505050565b6000611061610caa565b905061106d8282611026565b919050565b600067ffffffffffffffff82111561108d5761108c610ff7565b5b61109682610e6a565b9050602081019050919050565b82818337600083830152505050565b60006110c56110c084611072565b611057565b9050828152602081018484840111156110e1576110e0610ff2565b5b6110ec8482856110a3565b509392505050565b600082601f83011261110957611108610fed565b5b81356111198482602086016110b2565b91505092915050565b60008060006060848603121561113b5761113a610cb4565b5b600084013567ffffffffffffffff81111561115957611158610cb9565b5b611165868287016110f4565b935050602061117686828701610cdf565b925050604061118786828701610d6a565b9150509250925092565b7f4e487b7100000000000000000000000000000000000000000000000000000000600052603260045260246000fd5b7f4e487b7100000000000000000000000000000000000000000000000000000000600052601260045260246000fd5b7f4e487b7100000000000000000000000000000000000000000000000000000000600052601160045260246000fd5b600061122982610cbe565b915061123483610cbe565b925082611244576112436111c0565b5b828204905092915050565b7f4e487b7100000000000000000000000000000000000000000000000000000000600052602260045260246000fd5b6000600282049050600182168061129657607f821691505b6020821081036112a9576112a861124f565b5b50919050565b60008190508160005260206000209050919050565b60006020601f8301049050919050565b600082821b905092915050565b6000600883026113117fffffffffffffffffffffffffffffffffffffffffffffffffffffffffffffffff826112d4565b61131b86836112d4565b95508019841693508086168417925050509392505050565b6000819050919050565b600061135861135361134e84610cbe565b611333565b610cbe565b9050919050565b6000819050919050565b6113728361133d565b61138661137e8261135f565b8484546112e1565b825550505050565b600090565b61139b61138e565b6113a6818484611369565b505050565b5b818110156113ca576113bf600082611393565b6001810190506113ac565b5050565b601f82111561140f576113e0816112af565b6113e9846112c4565b810160208510156113f8578190505b61140c611404856112c4565b8301826113ab565b50505b505050565b600082821c905092915050565b600061143260001984600802611414565b1980831691505092915050565b600061144b8383611421565b9150826002028217905092915050565b61146482610e1b565b67ffffffffffffffff81111561147d5761147c610ff7565b5b611487825461127e565b6114928282856113ce565b600060209050601f8311600181146114c557600084156114b3578287015190505b6114bd858261143f565b865550611525565b601f1984166114d3866112af565b60005b828110156114fb578489015182556001820191506020850194506020810190506114d6565b868310156115185784890151611514601f891682611421565b8355505b6001600288020188555050505b505050505050565b600061153882610cbe565b91507fffffffffffffffffffffffffffffffffffffffffffffffffffffffffffffffff820361156a576115696111ef565b5b60018201905091905056fea2646970667358221220979df2c430aa4935df7119b9a80a1b49b8c8b1a2c3ba5d38307e2d858e83132d64736f6c634300080f0033a26469706673582212206062934508953f4351b652b8099f8830feef540ff953a8640551b6aef66c595f64736f6c634300080f0033","opcodes":"PUSH1 0x80 PUSH1 0x40 MSTORE CALLVALUE DUP1 ISZERO PUSH2 0x10 JUMPI PUSH1 0x0 DUP1 REVERT JUMPDEST POP PUSH2 0x24D1 DUP1 PUSH2 0x20 PUSH1 0x0 CODECOPY PUSH1 0x0 RETURN INVALID PUSH1 0x80 PUSH1 0x40 MSTORE CALLVALUE DUP1 ISZERO PUSH3 0x11 JUMPI PUSH1 0x0 DUP1 REVERT JUMPDEST POP PUSH1 0x4 CALLDATASIZE LT PUSH3 0x46 JUMPI PUSH1 0x0 CALLDATALOAD PUSH1 0xE0 SHR DUP1 PUSH4 0x339D50A5 EQ PUSH3 0x4B JUMPI DUP1 PUSH4 0x4ACB9D4F EQ PUSH3 0x81 JUMPI DUP1 PUSH4 0xD4DDD71A EQ PUSH3 0xA3 JUMPI JUMPDEST PUSH1 0x0 DUP1 REVERT JUMPDEST PUSH3 0x69 PUSH1 0x4 DUP1 CALLDATASIZE SUB DUP2 ADD SWAP1 PUSH3 0x63 SWAP2 SWAP1 PUSH3 0x2A2 JUMP JUMPDEST PUSH3 0xC3 JUMP JUMPDEST PUSH1 0x40 MLOAD PUSH3 0x78 SWAP2 SWAP1 PUSH3 0x319 JUMP JUMPDEST PUSH1 0x40 MLOAD DUP1 SWAP2 SUB SWAP1 RETURN JUMPDEST PUSH3 0x8B PUSH3 0x103 JUMP JUMPDEST PUSH1 0x40 MLOAD PUSH3 0x9A SWAP2 SWAP1 PUSH3 0x404 JUMP JUMPDEST PUSH1 0x40 MLOAD DUP1 SWAP2 SUB SWAP1 RETURN JUMPDEST PUSH3 0xC1 PUSH1 0x4 DUP1 CALLDATASIZE SUB DUP2 ADD SWAP1 PUSH3 0xBB SWAP2 SWAP1 PUSH3 0x58A JUMP JUMPDEST PUSH3 0x193 JUMP JUMPDEST STOP JUMPDEST PUSH1 0x0 DUP2 DUP2 SLOAD DUP2 LT PUSH3 0xD4 JUMPI PUSH1 0x0 DUP1 REVERT JUMPDEST SWAP1 PUSH1 0x0 MSTORE PUSH1 0x20 PUSH1 0x0 KECCAK256 ADD PUSH1 0x0 SWAP2 POP SLOAD SWAP1 PUSH2 0x100 EXP SWAP1 DIV PUSH20 0xFFFFFFFFFFFFFFFFFFFFFFFFFFFFFFFFFFFFFFFF AND DUP2 JUMP JUMPDEST PUSH1 0x60 PUSH1 0x0 DUP1 SLOAD DUP1 PUSH1 0x20 MUL PUSH1 0x20 ADD PUSH1 0x40 MLOAD SWAP1 DUP2 ADD PUSH1 0x40 MSTORE DUP1 SWAP3 SWAP2 SWAP1 DUP2 DUP2 MSTORE PUSH1 0x20 ADD DUP3 DUP1 SLOAD DUP1 ISZERO PUSH3 0x189 JUMPI PUSH1 0x20 MUL DUP3 ADD SWAP2 SWAP1 PUSH1 0x0 MSTORE PUSH1 0x20 PUSH1 0x0 KECCAK256 SWAP1 JUMPDEST DUP2 PUSH1 0x0 SWAP1 SLOAD SWAP1 PUSH2 0x100 EXP SWAP1 DIV PUSH20 0xFFFFFFFFFFFFFFFFFFFFFFFFFFFFFFFFFFFFFFFF AND PUSH20 0xFFFFFFFFFFFFFFFFFFFFFFFFFFFFFFFFFFFFFFFF AND DUP2 MSTORE PUSH1 0x20 ADD SWAP1 PUSH1 0x1 ADD SWAP1 DUP1 DUP4 GT PUSH3 0x13E JUMPI JUMPDEST POP POP POP POP POP SWAP1 POP SWAP1 JUMP JUMPDEST PUSH1 0x0 DUP6 CALLER DUP7 DUP7 DUP7 DUP7 PUSH1 0x40 MLOAD PUSH3 0x1A9 SWAP1 PUSH3 0x245 JUMP JUMPDEST PUSH3 0x1BA SWAP7 SWAP6 SWAP5 SWAP4 SWAP3 SWAP2 SWAP1 PUSH3 0x738 JUMP JUMPDEST PUSH1 0x40 MLOAD DUP1 SWAP2 SUB SWAP1 PUSH1 0x0 CREATE DUP1 ISZERO DUP1 ISZERO PUSH3 0x1D7 JUMPI RETURNDATASIZE PUSH1 0x0 DUP1 RETURNDATACOPY RETURNDATASIZE PUSH1 0x0 REVERT JUMPDEST POP SWAP1 POP PUSH1 0x0 DUP2 SWAP1 DUP1 PUSH1 0x1 DUP2 SLOAD ADD DUP1 DUP3 SSTORE DUP1 SWAP2 POP POP PUSH1 0x1 SWAP1 SUB SWAP1 PUSH1 0x0 MSTORE PUSH1 0x20 PUSH1 0x0 KECCAK256 ADD PUSH1 0x0 SWAP1 SWAP2 SWAP1 SWAP2 SWAP1 SWAP2 PUSH2 0x100 EXP DUP2 SLOAD DUP2 PUSH20 0xFFFFFFFFFFFFFFFFFFFFFFFFFFFFFFFFFFFFFFFF MUL NOT AND SWAP1 DUP4 PUSH20 0xFFFFFFFFFFFFFFFFFFFFFFFFFFFFFFFFFFFFFFFF AND MUL OR SWAP1 SSTORE POP POP POP POP POP POP POP JUMP JUMPDEST PUSH2 0x1CE1 DUP1 PUSH3 0x7BB DUP4 CODECOPY ADD SWAP1 JUMP JUMPDEST PUSH1 0x0 PUSH1 0x40 MLOAD SWAP1 POP SWAP1 JUMP JUMPDEST PUSH1 0x0 DUP1 REVERT JUMPDEST PUSH1 0x0 DUP1 REVERT JUMPDEST PUSH1 0x0 DUP2 SWAP1 POP SWAP2 SWAP1 POP JUMP JUMPDEST PUSH3 0x27C DUP2 PUSH3 0x267 JUMP JUMPDEST DUP2 EQ PUSH3 0x288 JUMPI PUSH1 0x0 DUP1 REVERT JUMPDEST POP JUMP JUMPDEST PUSH1 0x0 DUP2 CALLDATALOAD SWAP1 POP PUSH3 0x29C DUP2 PUSH3 0x271 JUMP JUMPDEST SWAP3 SWAP2 POP POP JUMP JUMPDEST PUSH1 0x0 PUSH1 0x20 DUP3 DUP5 SUB SLT ISZERO PUSH3 0x2BB JUMPI PUSH3 0x2BA PUSH3 0x25D JUMP JUMPDEST JUMPDEST PUSH1 0x0 PUSH3 0x2CB DUP5 DUP3 DUP6 ADD PUSH3 0x28B JUMP JUMPDEST SWAP2 POP POP SWAP3 SWAP2 POP POP JUMP JUMPDEST PUSH1 0x0 PUSH20 0xFFFFFFFFFFFFFFFFFFFFFFFFFFFFFFFFFFFFFFFF DUP3 AND SWAP1 POP SWAP2 SWAP1 POP JUMP JUMPDEST PUSH1 0x0 PUSH3 0x301 DUP3 PUSH3 0x2D4 JUMP JUMPDEST SWAP1 POP SWAP2 SWAP1 POP JUMP JUMPDEST PUSH3 0x313 DUP2 PUSH3 0x2F4 JUMP JUMPDEST DUP3 MSTORE POP POP JUMP JUMPDEST PUSH1 0x0 PUSH1 0x20 DUP3 ADD SWAP1 POP PUSH3 0x330 PUSH1 0x0 DUP4 ADD DUP5 PUSH3 0x308 JUMP JUMPDEST SWAP3 SWAP2 POP POP JUMP JUMPDEST PUSH1 0x0 DUP2 MLOAD SWAP1 POP SWAP2 SWAP1 POP JUMP JUMPDEST PUSH1 0x0 DUP3 DUP3 MSTORE PUSH1 0x20 DUP3 ADD SWAP1 POP SWAP3 SWAP2 POP POP JUMP JUMPDEST PUSH1 0x0 DUP2 SWAP1 POP PUSH1 0x20 DUP3 ADD SWAP1 POP SWAP2 SWAP1 POP JUMP JUMPDEST PUSH3 0x36D DUP2 PUSH3 0x2F4 JUMP JUMPDEST DUP3 MSTORE POP POP JUMP JUMPDEST PUSH1 0x0 PUSH3 0x381 DUP4 DUP4 PUSH3 0x362 JUMP JUMPDEST PUSH1 0x20 DUP4 ADD SWAP1 POP SWAP3 SWAP2 POP POP JUMP JUMPDEST PUSH1 0x0 PUSH1 0x20 DUP3 ADD SWAP1 POP SWAP2 SWAP1 POP JUMP JUMPDEST PUSH1 0x0 PUSH3 0x3A7 DUP3 PUSH3 0x336 JUMP JUMPDEST PUSH3 0x3B3 DUP2 DUP6 PUSH3 0x341 JUMP JUMPDEST SWAP4 POP PUSH3 0x3C0 DUP4 PUSH3 0x352 JUMP JUMPDEST DUP1 PUSH1 0x0 JUMPDEST DUP4 DUP2 LT ISZERO PUSH3 0x3F7 JUMPI DUP2 MLOAD PUSH3 0x3DB DUP9 DUP3 PUSH3 0x373 JUMP JUMPDEST SWAP8 POP PUSH3 0x3E8 DUP4 PUSH3 0x38D JUMP JUMPDEST SWAP3 POP POP PUSH1 0x1 DUP2 ADD SWAP1 POP PUSH3 0x3C4 JUMP JUMPDEST POP DUP6 SWAP4 POP POP POP POP SWAP3 SWAP2 POP POP JUMP JUMPDEST PUSH1 0x0 PUSH1 0x20 DUP3 ADD SWAP1 POP DUP2 DUP2 SUB PUSH1 0x0 DUP4 ADD MSTORE PUSH3 0x420 DUP2 DUP5 PUSH3 0x39A JUMP JUMPDEST SWAP1 POP SWAP3 SWAP2 POP POP JUMP JUMPDEST PUSH1 0x0 DUP1 REVERT JUMPDEST PUSH1 0x0 DUP1 REVERT JUMPDEST PUSH1 0x0 PUSH1 0x1F NOT PUSH1 0x1F DUP4 ADD AND SWAP1 POP SWAP2 SWAP1 POP JUMP JUMPDEST PUSH32 0x4E487B7100000000000000000000000000000000000000000000000000000000 PUSH1 0x0 MSTORE PUSH1 0x41 PUSH1 0x4 MSTORE PUSH1 0x24 PUSH1 0x0 REVERT JUMPDEST PUSH3 0x47D DUP3 PUSH3 0x432 JUMP JUMPDEST DUP2 ADD DUP2 DUP2 LT PUSH8 0xFFFFFFFFFFFFFFFF DUP3 GT OR ISZERO PUSH3 0x49F JUMPI PUSH3 0x49E PUSH3 0x443 JUMP JUMPDEST JUMPDEST DUP1 PUSH1 0x40 MSTORE POP POP POP JUMP JUMPDEST PUSH1 0x0 PUSH3 0x4B4 PUSH3 0x253 JUMP JUMPDEST SWAP1 POP PUSH3 0x4C2 DUP3 DUP3 PUSH3 0x472 JUMP JUMPDEST SWAP2 SWAP1 POP JUMP JUMPDEST PUSH1 0x0 PUSH8 0xFFFFFFFFFFFFFFFF DUP3 GT ISZERO PUSH3 0x4E5 JUMPI PUSH3 0x4E4 PUSH3 0x443 JUMP JUMPDEST JUMPDEST PUSH3 0x4F0 DUP3 PUSH3 0x432 JUMP JUMPDEST SWAP1 POP PUSH1 0x20 DUP2 ADD SWAP1 POP SWAP2 SWAP1 POP JUMP JUMPDEST DUP3 DUP2 DUP4 CALLDATACOPY PUSH1 0x0 DUP4 DUP4 ADD MSTORE POP POP POP JUMP JUMPDEST PUSH1 0x0 PUSH3 0x523 PUSH3 0x51D DUP5 PUSH3 0x4C7 JUMP JUMPDEST PUSH3 0x4A8 JUMP JUMPDEST SWAP1 POP DUP3 DUP2 MSTORE PUSH1 0x20 DUP2 ADD DUP5 DUP5 DUP5 ADD GT ISZERO PUSH3 0x542 JUMPI PUSH3 0x541 PUSH3 0x42D JUMP JUMPDEST JUMPDEST PUSH3 0x54F DUP5 DUP3 DUP6 PUSH3 0x4FD JUMP JUMPDEST POP SWAP4 SWAP3 POP POP POP JUMP JUMPDEST PUSH1 0x0 DUP3 PUSH1 0x1F DUP4 ADD SLT PUSH3 0x56F JUMPI PUSH3 0x56E PUSH3 0x428 JUMP JUMPDEST JUMPDEST DUP2 CALLDATALOAD PUSH3 0x581 DUP5 DUP3 PUSH1 0x20 DUP7 ADD PUSH3 0x50C JUMP JUMPDEST SWAP2 POP POP SWAP3 SWAP2 POP POP JUMP JUMPDEST PUSH1 0x0 DUP1 PUSH1 0x0 DUP1 PUSH1 0x0 PUSH1 0xA0 DUP7 DUP9 SUB SLT ISZERO PUSH3 0x5A9 JUMPI PUSH3 0x5A8 PUSH3 0x25D JUMP JUMPDEST JUMPDEST PUSH1 0x0 PUSH3 0x5B9 DUP9 DUP3 DUP10 ADD PUSH3 0x28B JUMP JUMPDEST SWAP6 POP POP PUSH1 0x20 DUP7 ADD CALLDATALOAD PUSH8 0xFFFFFFFFFFFFFFFF DUP2 GT ISZERO PUSH3 0x5DD JUMPI PUSH3 0x5DC PUSH3 0x262 JUMP JUMPDEST JUMPDEST PUSH3 0x5EB DUP9 DUP3 DUP10 ADD PUSH3 0x557 JUMP JUMPDEST SWAP5 POP POP PUSH1 0x40 DUP7 ADD CALLDATALOAD PUSH8 0xFFFFFFFFFFFFFFFF DUP2 GT ISZERO PUSH3 0x60F JUMPI PUSH3 0x60E PUSH3 0x262 JUMP JUMPDEST JUMPDEST PUSH3 0x61D DUP9 DUP3 DUP10 ADD PUSH3 0x557 JUMP JUMPDEST SWAP4 POP POP PUSH1 0x60 DUP7 ADD CALLDATALOAD PUSH8 0xFFFFFFFFFFFFFFFF DUP2 GT ISZERO PUSH3 0x641 JUMPI PUSH3 0x640 PUSH3 0x262 JUMP JUMPDEST JUMPDEST PUSH3 0x64F DUP9 DUP3 DUP10 ADD PUSH3 0x557 JUMP JUMPDEST SWAP3 POP POP PUSH1 0x80 PUSH3 0x662 DUP9 DUP3 DUP10 ADD PUSH3 0x28B JUMP JUMPDEST SWAP2 POP POP SWAP3 SWAP6 POP SWAP3 SWAP6 SWAP1 SWAP4 POP JUMP JUMPDEST PUSH3 0x67A DUP2 PUSH3 0x267 JUMP JUMPDEST DUP3 MSTORE POP POP JUMP JUMPDEST PUSH1 0x0 PUSH3 0x68D DUP3 PUSH3 0x2D4 JUMP JUMPDEST SWAP1 POP SWAP2 SWAP1 POP JUMP JUMPDEST PUSH3 0x69F DUP2 PUSH3 0x680 JUMP JUMPDEST DUP3 MSTORE POP POP JUMP JUMPDEST PUSH1 0x0 DUP2 MLOAD SWAP1 POP SWAP2 SWAP1 POP JUMP JUMPDEST PUSH1 0x0 DUP3 DUP3 MSTORE PUSH1 0x20 DUP3 ADD SWAP1 POP SWAP3 SWAP2 POP POP JUMP JUMPDEST PUSH1 0x0 JUMPDEST DUP4 DUP2 LT ISZERO PUSH3 0x6E1 JUMPI DUP1 DUP3 ADD MLOAD DUP2 DUP5 ADD MSTORE PUSH1 0x20 DUP2 ADD SWAP1 POP PUSH3 0x6C4 JUMP JUMPDEST DUP4 DUP2 GT ISZERO PUSH3 0x6F1 JUMPI PUSH1 0x0 DUP5 DUP5 ADD MSTORE JUMPDEST POP POP POP POP JUMP JUMPDEST PUSH1 0x0 PUSH3 0x704 DUP3 PUSH3 0x6A5 JUMP JUMPDEST PUSH3 0x710 DUP2 DUP6 PUSH3 0x6B0 JUMP JUMPDEST SWAP4 POP PUSH3 0x722 DUP2 DUP6 PUSH1 0x20 DUP7 ADD PUSH3 0x6C1 JUMP JUMPDEST PUSH3 0x72D DUP2 PUSH3 0x432 JUMP JUMPDEST DUP5 ADD SWAP2 POP POP SWAP3 SWAP2 POP POP JUMP JUMPDEST PUSH1 0x0 PUSH1 0xC0 DUP3 ADD SWAP1 POP PUSH3 0x74F PUSH1 0x0 DUP4 ADD DUP10 PUSH3 0x66F JUMP JUMPDEST PUSH3 0x75E PUSH1 0x20 DUP4 ADD DUP9 PUSH3 0x694 JUMP JUMPDEST DUP2 DUP2 SUB PUSH1 0x40 DUP4 ADD MSTORE PUSH3 0x772 DUP2 DUP8 PUSH3 0x6F7 JUMP JUMPDEST SWAP1 POP DUP2 DUP2 SUB PUSH1 0x60 DUP4 ADD MSTORE PUSH3 0x788 DUP2 DUP7 PUSH3 0x6F7 JUMP JUMPDEST SWAP1 POP DUP2 DUP2 SUB PUSH1 0x80 DUP4 ADD MSTORE PUSH3 0x79E DUP2 DUP6 PUSH3 0x6F7 JUMP JUMPDEST SWAP1 POP PUSH3 0x7AF PUSH1 0xA0 DUP4 ADD DUP5 PUSH3 0x66F JUMP JUMPDEST SWAP8 SWAP7 POP POP POP POP POP POP POP JUMP INVALID PUSH1 0x80 PUSH1 0x40 MSTORE CALLVALUE DUP1 ISZERO PUSH3 0x11 JUMPI PUSH1 0x0 DUP1 REVERT JUMPDEST POP PUSH1 0x40 MLOAD PUSH3 0x1CE1 CODESIZE SUB DUP1 PUSH3 0x1CE1 DUP4 CODECOPY DUP2 DUP2 ADD PUSH1 0x40 MSTORE DUP2 ADD SWAP1 PUSH3 0x37 SWAP2 SWAP1 PUSH3 0x305 JUMP JUMPDEST DUP5 PUSH1 0x1 PUSH1 0x0 PUSH2 0x100 EXP DUP2 SLOAD DUP2 PUSH20 0xFFFFFFFFFFFFFFFFFFFFFFFFFFFFFFFFFFFFFFFF MUL NOT AND SWAP1 DUP4 PUSH20 0xFFFFFFFFFFFFFFFFFFFFFFFFFFFFFFFFFFFFFFFF AND MUL OR SWAP1 SSTORE POP DUP6 PUSH1 0x2 DUP2 SWAP1 SSTORE POP DUP4 PUSH1 0x5 SWAP1 DUP2 PUSH3 0x90 SWAP2 SWAP1 PUSH3 0x63F JUMP JUMPDEST POP DUP3 PUSH1 0x6 SWAP1 DUP2 PUSH3 0xA2 SWAP2 SWAP1 PUSH3 0x63F JUMP JUMPDEST POP DUP2 PUSH1 0x7 SWAP1 DUP2 PUSH3 0xB4 SWAP2 SWAP1 PUSH3 0x63F JUMP JUMPDEST POP DUP1 PUSH1 0x8 DUP2 SWAP1 SSTORE POP POP POP POP POP POP POP PUSH3 0x726 JUMP JUMPDEST PUSH1 0x0 PUSH1 0x40 MLOAD SWAP1 POP SWAP1 JUMP JUMPDEST PUSH1 0x0 DUP1 REVERT JUMPDEST PUSH1 0x0 DUP1 REVERT JUMPDEST PUSH1 0x0 DUP2 SWAP1 POP SWAP2 SWAP1 POP JUMP JUMPDEST PUSH3 0xF1 DUP2 PUSH3 0xDC JUMP JUMPDEST DUP2 EQ PUSH3 0xFD JUMPI PUSH1 0x0 DUP1 REVERT JUMPDEST POP JUMP JUMPDEST PUSH1 0x0 DUP2 MLOAD SWAP1 POP PUSH3 0x111 DUP2 PUSH3 0xE6 JUMP JUMPDEST SWAP3 SWAP2 POP POP JUMP JUMPDEST PUSH1 0x0 PUSH20 0xFFFFFFFFFFFFFFFFFFFFFFFFFFFFFFFFFFFFFFFF DUP3 AND SWAP1 POP SWAP2 SWAP1 POP JUMP JUMPDEST PUSH1 0x0 PUSH3 0x144 DUP3 PUSH3 0x117 JUMP JUMPDEST SWAP1 POP SWAP2 SWAP1 POP JUMP JUMPDEST PUSH3 0x156 DUP2 PUSH3 0x137 JUMP JUMPDEST DUP2 EQ PUSH3 0x162 JUMPI PUSH1 0x0 DUP1 REVERT JUMPDEST POP JUMP JUMPDEST PUSH1 0x0 DUP2 MLOAD SWAP1 POP PUSH3 0x176 DUP2 PUSH3 0x14B JUMP JUMPDEST SWAP3 SWAP2 POP POP JUMP JUMPDEST PUSH1 0x0 DUP1 REVERT JUMPDEST PUSH1 0x0 DUP1 REVERT JUMPDEST PUSH1 0x0 PUSH1 0x1F NOT PUSH1 0x1F DUP4 ADD AND SWAP1 POP SWAP2 SWAP1 POP JUMP JUMPDEST PUSH32 0x4E487B7100000000000000000000000000000000000000000000000000000000 PUSH1 0x0 MSTORE PUSH1 0x41 PUSH1 0x4 MSTORE PUSH1 0x24 PUSH1 0x0 REVERT JUMPDEST PUSH3 0x1D1 DUP3 PUSH3 0x186 JUMP JUMPDEST DUP2 ADD DUP2 DUP2 LT PUSH8 0xFFFFFFFFFFFFFFFF DUP3 GT OR ISZERO PUSH3 0x1F3 JUMPI PUSH3 0x1F2 PUSH3 0x197 JUMP JUMPDEST JUMPDEST DUP1 PUSH1 0x40 MSTORE POP POP POP JUMP JUMPDEST PUSH1 0x0 PUSH3 0x208 PUSH3 0xC8 JUMP JUMPDEST SWAP1 POP PUSH3 0x216 DUP3 DUP3 PUSH3 0x1C6 JUMP JUMPDEST SWAP2 SWAP1 POP JUMP JUMPDEST PUSH1 0x0 PUSH8 0xFFFFFFFFFFFFFFFF DUP3 GT ISZERO PUSH3 0x239 JUMPI PUSH3 0x238 PUSH3 0x197 JUMP JUMPDEST JUMPDEST PUSH3 0x244 DUP3 PUSH3 0x186 JUMP JUMPDEST SWAP1 POP PUSH1 0x20 DUP2 ADD SWAP1 POP SWAP2 SWAP1 POP JUMP JUMPDEST PUSH1 0x0 JUMPDEST DUP4 DUP2 LT ISZERO PUSH3 0x271 JUMPI DUP1 DUP3 ADD MLOAD DUP2 DUP5 ADD MSTORE PUSH1 0x20 DUP2 ADD SWAP1 POP PUSH3 0x254 JUMP JUMPDEST DUP4 DUP2 GT ISZERO PUSH3 0x281 JUMPI PUSH1 0x0 DUP5 DUP5 ADD MSTORE JUMPDEST POP POP POP POP JUMP JUMPDEST PUSH1 0x0 PUSH3 0x29E PUSH3 0x298 DUP5 PUSH3 0x21B JUMP JUMPDEST PUSH3 0x1FC JUMP JUMPDEST SWAP1 POP DUP3 DUP2 MSTORE PUSH1 0x20 DUP2 ADD DUP5 DUP5 DUP5 ADD GT ISZERO PUSH3 0x2BD JUMPI PUSH3 0x2BC PUSH3 0x181 JUMP JUMPDEST JUMPDEST PUSH3 0x2CA DUP5 DUP3 DUP6 PUSH3 0x251 JUMP JUMPDEST POP SWAP4 SWAP3 POP POP POP JUMP JUMPDEST PUSH1 0x0 DUP3 PUSH1 0x1F DUP4 ADD SLT PUSH3 0x2EA JUMPI PUSH3 0x2E9 PUSH3 0x17C JUMP JUMPDEST JUMPDEST DUP2 MLOAD PUSH3 0x2FC DUP5 DUP3 PUSH1 0x20 DUP7 ADD PUSH3 0x287 JUMP JUMPDEST SWAP2 POP POP SWAP3 SWAP2 POP POP JUMP JUMPDEST PUSH1 0x0 DUP1 PUSH1 0x0 DUP1 PUSH1 0x0 DUP1 PUSH1 0xC0 DUP8 DUP10 SUB SLT ISZERO PUSH3 0x325 JUMPI PUSH3 0x324 PUSH3 0xD2 JUMP JUMPDEST JUMPDEST PUSH1 0x0 PUSH3 0x335 DUP10 DUP3 DUP11 ADD PUSH3 0x100 JUMP JUMPDEST SWAP7 POP POP PUSH1 0x20 PUSH3 0x348 DUP10 DUP3 DUP11 ADD PUSH3 0x165 JUMP JUMPDEST SWAP6 POP POP PUSH1 0x40 DUP8 ADD MLOAD PUSH8 0xFFFFFFFFFFFFFFFF DUP2 GT ISZERO PUSH3 0x36C JUMPI PUSH3 0x36B PUSH3 0xD7 JUMP JUMPDEST JUMPDEST PUSH3 0x37A DUP10 DUP3 DUP11 ADD PUSH3 0x2D2 JUMP JUMPDEST SWAP5 POP POP PUSH1 0x60 DUP8 ADD MLOAD PUSH8 0xFFFFFFFFFFFFFFFF DUP2 GT ISZERO PUSH3 0x39E JUMPI PUSH3 0x39D PUSH3 0xD7 JUMP JUMPDEST JUMPDEST PUSH3 0x3AC DUP10 DUP3 DUP11 ADD PUSH3 0x2D2 JUMP JUMPDEST SWAP4 POP POP PUSH1 0x80 DUP8 ADD MLOAD PUSH8 0xFFFFFFFFFFFFFFFF DUP2 GT ISZERO PUSH3 0x3D0 JUMPI PUSH3 0x3CF PUSH3 0xD7 JUMP JUMPDEST JUMPDEST PUSH3 0x3DE DUP10 DUP3 DUP11 ADD PUSH3 0x2D2 JUMP JUMPDEST SWAP3 POP POP PUSH1 0xA0 PUSH3 0x3F1 DUP10 DUP3 DUP11 ADD PUSH3 0x100 JUMP JUMPDEST SWAP2 POP POP SWAP3 SWAP6 POP SWAP3 SWAP6 POP SWAP3 SWAP6 JUMP JUMPDEST PUSH1 0x0 DUP2 MLOAD SWAP1 POP SWAP2 SWAP1 POP JUMP JUMPDEST PUSH32 0x4E487B7100000000000000000000000000000000000000000000000000000000 PUSH1 0x0 MSTORE PUSH1 0x22 PUSH1 0x4 MSTORE PUSH1 0x24 PUSH1 0x0 REVERT JUMPDEST PUSH1 0x0 PUSH1 0x2 DUP3 DIV SWAP1 POP PUSH1 0x1 DUP3 AND DUP1 PUSH3 0x451 JUMPI PUSH1 0x7F DUP3 AND SWAP2 POP JUMPDEST PUSH1 0x20 DUP3 LT DUP2 SUB PUSH3 0x467 JUMPI PUSH3 0x466 PUSH3 0x409 JUMP JUMPDEST JUMPDEST POP SWAP2 SWAP1 POP JUMP JUMPDEST PUSH1 0x0 DUP2 SWAP1 POP DUP2 PUSH1 0x0 MSTORE PUSH1 0x20 PUSH1 0x0 KECCAK256 SWAP1 POP SWAP2 SWAP1 POP JUMP JUMPDEST PUSH1 0x0 PUSH1 0x20 PUSH1 0x1F DUP4 ADD DIV SWAP1 POP SWAP2 SWAP1 POP JUMP JUMPDEST PUSH1 0x0 DUP3 DUP3 SHL SWAP1 POP SWAP3 SWAP2 POP POP JUMP JUMPDEST PUSH1 0x0 PUSH1 0x8 DUP4 MUL PUSH3 0x4D1 PUSH32 0xFFFFFFFFFFFFFFFFFFFFFFFFFFFFFFFFFFFFFFFFFFFFFFFFFFFFFFFFFFFFFFFF DUP3 PUSH3 0x492 JUMP JUMPDEST PUSH3 0x4DD DUP7 DUP4 PUSH3 0x492 JUMP JUMPDEST SWAP6 POP DUP1 NOT DUP5 AND SWAP4 POP DUP1 DUP7 AND DUP5 OR SWAP3 POP POP POP SWAP4 SWAP3 POP POP POP JUMP JUMPDEST PUSH1 0x0 DUP2 SWAP1 POP SWAP2 SWAP1 POP JUMP JUMPDEST PUSH1 0x0 PUSH3 0x520 PUSH3 0x51A PUSH3 0x514 DUP5 PUSH3 0xDC JUMP JUMPDEST PUSH3 0x4F5 JUMP JUMPDEST PUSH3 0xDC JUMP JUMPDEST SWAP1 POP SWAP2 SWAP1 POP JUMP JUMPDEST PUSH1 0x0 DUP2 SWAP1 POP SWAP2 SWAP1 POP JUMP JUMPDEST PUSH3 0x53C DUP4 PUSH3 0x4FF JUMP JUMPDEST PUSH3 0x554 PUSH3 0x54B DUP3 PUSH3 0x527 JUMP JUMPDEST DUP5 DUP5 SLOAD PUSH3 0x49F JUMP JUMPDEST DUP3 SSTORE POP POP POP POP JUMP JUMPDEST PUSH1 0x0 SWAP1 JUMP JUMPDEST PUSH3 0x56B PUSH3 0x55C JUMP JUMPDEST PUSH3 0x578 DUP2 DUP5 DUP5 PUSH3 0x531 JUMP JUMPDEST POP POP POP JUMP JUMPDEST JUMPDEST DUP2 DUP2 LT ISZERO PUSH3 0x5A0 JUMPI PUSH3 0x594 PUSH1 0x0 DUP3 PUSH3 0x561 JUMP JUMPDEST PUSH1 0x1 DUP2 ADD SWAP1 POP PUSH3 0x57E JUMP JUMPDEST POP POP JUMP JUMPDEST PUSH1 0x1F DUP3 GT ISZERO PUSH3 0x5EF JUMPI PUSH3 0x5B9 DUP2 PUSH3 0x46D JUMP JUMPDEST PUSH3 0x5C4 DUP5 PUSH3 0x482 JUMP JUMPDEST DUP2 ADD PUSH1 0x20 DUP6 LT ISZERO PUSH3 0x5D4 JUMPI DUP2 SWAP1 POP JUMPDEST PUSH3 0x5EC PUSH3 0x5E3 DUP6 PUSH3 0x482 JUMP JUMPDEST DUP4 ADD DUP3 PUSH3 0x57D JUMP JUMPDEST POP POP JUMPDEST POP POP POP JUMP JUMPDEST PUSH1 0x0 DUP3 DUP3 SHR SWAP1 POP SWAP3 SWAP2 POP POP JUMP JUMPDEST PUSH1 0x0 PUSH3 0x614 PUSH1 0x0 NOT DUP5 PUSH1 0x8 MUL PUSH3 0x5F4 JUMP JUMPDEST NOT DUP1 DUP4 AND SWAP2 POP POP SWAP3 SWAP2 POP POP JUMP JUMPDEST PUSH1 0x0 PUSH3 0x62F DUP4 DUP4 PUSH3 0x601 JUMP JUMPDEST SWAP2 POP DUP3 PUSH1 0x2 MUL DUP3 OR SWAP1 POP SWAP3 SWAP2 POP POP JUMP JUMPDEST PUSH3 0x64A DUP3 PUSH3 0x3FE JUMP JUMPDEST PUSH8 0xFFFFFFFFFFFFFFFF DUP2 GT ISZERO PUSH3 0x666 JUMPI PUSH3 0x665 PUSH3 0x197 JUMP JUMPDEST JUMPDEST PUSH3 0x672 DUP3 SLOAD PUSH3 0x438 JUMP JUMPDEST PUSH3 0x67F DUP3 DUP3 DUP6 PUSH3 0x5A4 JUMP JUMPDEST PUSH1 0x0 PUSH1 0x20 SWAP1 POP PUSH1 0x1F DUP4 GT PUSH1 0x1 DUP2 EQ PUSH3 0x6B7 JUMPI PUSH1 0x0 DUP5 ISZERO PUSH3 0x6A2 JUMPI DUP3 DUP8 ADD MLOAD SWAP1 POP JUMPDEST PUSH3 0x6AE DUP6 DUP3 PUSH3 0x621 JUMP JUMPDEST DUP7 SSTORE POP PUSH3 0x71E JUMP JUMPDEST PUSH1 0x1F NOT DUP5 AND PUSH3 0x6C7 DUP7 PUSH3 0x46D JUMP JUMPDEST PUSH1 0x0 JUMPDEST DUP3 DUP2 LT ISZERO PUSH3 0x6F1 JUMPI DUP5 DUP10 ADD MLOAD DUP3 SSTORE PUSH1 0x1 DUP3 ADD SWAP2 POP PUSH1 0x20 DUP6 ADD SWAP5 POP PUSH1 0x20 DUP2 ADD SWAP1 POP PUSH3 0x6CA JUMP JUMPDEST DUP7 DUP4 LT ISZERO PUSH3 0x711 JUMPI DUP5 DUP10 ADD MLOAD PUSH3 0x70D PUSH1 0x1F DUP10 AND DUP3 PUSH3 0x601 JUMP JUMPDEST DUP4 SSTORE POP JUMPDEST PUSH1 0x1 PUSH1 0x2 DUP9 MUL ADD DUP9 SSTORE POP POP POP JUMPDEST POP POP POP POP POP POP JUMP JUMPDEST PUSH2 0x15AB DUP1 PUSH3 0x736 PUSH1 0x0 CODECOPY PUSH1 0x0 RETURN INVALID PUSH1 0x80 PUSH1 0x40 MSTORE PUSH1 0x4 CALLDATASIZE LT PUSH2 0xE8 JUMPI PUSH1 0x0 CALLDATALOAD PUSH1 0xE0 SHR DUP1 PUSH4 0x82FDE093 GT PUSH2 0x8A JUMPI DUP1 PUSH4 0x97654A8C GT PUSH2 0x59 JUMPI DUP1 PUSH4 0x97654A8C EQ PUSH2 0x2F2 JUMPI DUP1 PUSH4 0xABA83150 EQ PUSH2 0x31D JUMPI DUP1 PUSH4 0xD7BB99BA EQ PUSH2 0x348 JUMPI DUP1 PUSH4 0xD7D1BBDB EQ PUSH2 0x352 JUMPI PUSH2 0xE8 JUMP JUMPDEST DUP1 PUSH4 0x82FDE093 EQ PUSH2 0x248 JUMPI DUP1 PUSH4 0x8A9CFD55 EQ PUSH2 0x273 JUMPI DUP1 PUSH4 0x8B85165D EQ PUSH2 0x29C JUMPI DUP1 PUSH4 0x937E09B1 EQ PUSH2 0x2C7 JUMPI PUSH2 0xE8 JUMP JUMPDEST DUP1 PUSH4 0x4051DDAC GT PUSH2 0xC6 JUMPI DUP1 PUSH4 0x4051DDAC EQ PUSH2 0x17E JUMPI DUP1 PUSH4 0x481C6A75 EQ PUSH2 0x1B1 JUMPI DUP1 PUSH4 0x7E7CD1B3 EQ PUSH2 0x1DC JUMPI DUP1 PUSH4 0x81D12C58 EQ PUSH2 0x207 JUMPI PUSH2 0xE8 JUMP JUMPDEST DUP1 PUSH4 0x3441006 EQ PUSH2 0xED JUMPI DUP1 PUSH4 0xA144391 EQ PUSH2 0x116 JUMPI DUP1 PUSH4 0x3410452A EQ PUSH2 0x153 JUMPI JUMPDEST PUSH1 0x0 DUP1 REVERT JUMPDEST CALLVALUE DUP1 ISZERO PUSH2 0xF9 JUMPI PUSH1 0x0 DUP1 REVERT JUMPDEST POP PUSH2 0x114 PUSH1 0x4 DUP1 CALLDATASIZE SUB DUP2 ADD SWAP1 PUSH2 0x10F SWAP2 SWAP1 PUSH2 0xCF4 JUMP JUMPDEST PUSH2 0x37B JUMP JUMPDEST STOP JUMPDEST CALLVALUE DUP1 ISZERO PUSH2 0x122 JUMPI PUSH1 0x0 DUP1 REVERT JUMPDEST POP PUSH2 0x13D PUSH1 0x4 DUP1 CALLDATASIZE SUB DUP2 ADD SWAP1 PUSH2 0x138 SWAP2 SWAP1 PUSH2 0xD7F JUMP JUMPDEST PUSH2 0x4C4 JUMP JUMPDEST PUSH1 0x40 MLOAD PUSH2 0x14A SWAP2 SWAP1 PUSH2 0xDC7 JUMP JUMPDEST PUSH1 0x40 MLOAD DUP1 SWAP2 SUB SWAP1 RETURN JUMPDEST CALLVALUE DUP1 ISZERO PUSH2 0x15F JUMPI PUSH1 0x0 DUP1 REVERT JUMPDEST POP PUSH2 0x168 PUSH2 0x4E4 JUMP JUMPDEST PUSH1 0x40 MLOAD PUSH2 0x175 SWAP2 SWAP1 PUSH2 0xDF1 JUMP JUMPDEST PUSH1 0x40 MLOAD DUP1 SWAP2 SUB SWAP1 RETURN JUMPDEST CALLVALUE DUP1 ISZERO PUSH2 0x18A JUMPI PUSH1 0x0 DUP1 REVERT JUMPDEST POP PUSH2 0x193 PUSH2 0x4F0 JUMP JUMPDEST PUSH1 0x40 MLOAD PUSH2 0x1A8 SWAP10 SWAP9 SWAP8 SWAP7 SWAP6 SWAP5 SWAP4 SWAP3 SWAP2 SWAP1 PUSH2 0xEB4 JUMP JUMPDEST PUSH1 0x40 MLOAD DUP1 SWAP2 SUB SWAP1 RETURN JUMPDEST CALLVALUE DUP1 ISZERO PUSH2 0x1BD JUMPI PUSH1 0x0 DUP1 REVERT JUMPDEST POP PUSH2 0x1C6 PUSH2 0x6F9 JUMP JUMPDEST PUSH1 0x40 MLOAD PUSH2 0x1D3 SWAP2 SWAP1 PUSH2 0xF56 JUMP JUMPDEST PUSH1 0x40 MLOAD DUP1 SWAP2 SUB SWAP1 RETURN JUMPDEST CALLVALUE DUP1 ISZERO PUSH2 0x1E8 JUMPI PUSH1 0x0 DUP1 REVERT JUMPDEST POP PUSH2 0x1F1 PUSH2 0x71F JUMP JUMPDEST PUSH1 0x40 MLOAD PUSH2 0x1FE SWAP2 SWAP1 PUSH2 0xF71 JUMP JUMPDEST PUSH1 0x40 MLOAD DUP1 SWAP2 SUB SWAP1 RETURN JUMPDEST CALLVALUE DUP1 ISZERO PUSH2 0x213 JUMPI PUSH1 0x0 DUP1 REVERT JUMPDEST POP PUSH2 0x22E PUSH1 0x4 DUP1 CALLDATASIZE SUB DUP2 ADD SWAP1 PUSH2 0x229 SWAP2 SWAP1 PUSH2 0xCF4 JUMP JUMPDEST PUSH2 0x7AD JUMP JUMPDEST PUSH1 0x40 MLOAD PUSH2 0x23F SWAP6 SWAP5 SWAP4 SWAP3 SWAP2 SWAP1 PUSH2 0xF93 JUMP JUMPDEST PUSH1 0x40 MLOAD DUP1 SWAP2 SUB SWAP1 RETURN JUMPDEST CALLVALUE DUP1 ISZERO PUSH2 0x254 JUMPI PUSH1 0x0 DUP1 REVERT JUMPDEST POP PUSH2 0x25D PUSH2 0x8A8 JUMP JUMPDEST PUSH1 0x40 MLOAD PUSH2 0x26A SWAP2 SWAP1 PUSH2 0xDF1 JUMP JUMPDEST PUSH1 0x40 MLOAD DUP1 SWAP2 SUB SWAP1 RETURN JUMPDEST CALLVALUE DUP1 ISZERO PUSH2 0x27F JUMPI PUSH1 0x0 DUP1 REVERT JUMPDEST POP PUSH2 0x29A PUSH1 0x4 DUP1 CALLDATASIZE SUB DUP2 ADD SWAP1 PUSH2 0x295 SWAP2 SWAP1 PUSH2 0x1122 JUMP JUMPDEST PUSH2 0x8AE JUMP JUMPDEST STOP JUMPDEST CALLVALUE DUP1 ISZERO PUSH2 0x2A8 JUMPI PUSH1 0x0 DUP1 REVERT JUMPDEST POP PUSH2 0x2B1 PUSH2 0x9B6 JUMP JUMPDEST PUSH1 0x40 MLOAD PUSH2 0x2BE SWAP2 SWAP1 PUSH2 0xDF1 JUMP JUMPDEST PUSH1 0x40 MLOAD DUP1 SWAP2 SUB SWAP1 RETURN JUMPDEST CALLVALUE DUP1 ISZERO PUSH2 0x2D3 JUMPI PUSH1 0x0 DUP1 REVERT JUMPDEST POP PUSH2 0x2DC PUSH2 0x9BC JUMP JUMPDEST PUSH1 0x40 MLOAD PUSH2 0x2E9 SWAP2 SWAP1 PUSH2 0xDF1 JUMP JUMPDEST PUSH1 0x40 MLOAD DUP1 SWAP2 SUB SWAP1 RETURN JUMPDEST CALLVALUE DUP1 ISZERO PUSH2 0x2FE JUMPI PUSH1 0x0 DUP1 REVERT JUMPDEST POP PUSH2 0x307 PUSH2 0x9C2 JUMP JUMPDEST PUSH1 0x40 MLOAD PUSH2 0x314 SWAP2 SWAP1 PUSH2 0xF71 JUMP JUMPDEST PUSH1 0x40 MLOAD DUP1 SWAP2 SUB SWAP1 RETURN JUMPDEST CALLVALUE DUP1 ISZERO PUSH2 0x329 JUMPI PUSH1 0x0 DUP1 REVERT JUMPDEST POP PUSH2 0x332 PUSH2 0xA50 JUMP JUMPDEST PUSH1 0x40 MLOAD PUSH2 0x33F SWAP2 SWAP1 PUSH2 0xF71 JUMP JUMPDEST PUSH1 0x40 MLOAD DUP1 SWAP2 SUB SWAP1 RETURN JUMPDEST PUSH2 0x350 PUSH2 0xADE JUMP JUMPDEST STOP JUMPDEST CALLVALUE DUP1 ISZERO PUSH2 0x35E JUMPI PUSH1 0x0 DUP1 REVERT JUMPDEST POP PUSH2 0x379 PUSH1 0x4 DUP1 CALLDATASIZE SUB DUP2 ADD SWAP1 PUSH2 0x374 SWAP2 SWAP1 PUSH2 0xCF4 JUMP JUMPDEST PUSH2 0xB5E JUMP JUMPDEST STOP JUMPDEST PUSH1 0x1 PUSH1 0x0 SWAP1 SLOAD SWAP1 PUSH2 0x100 EXP SWAP1 DIV PUSH20 0xFFFFFFFFFFFFFFFFFFFFFFFFFFFFFFFFFFFFFFFF AND PUSH20 0xFFFFFFFFFFFFFFFFFFFFFFFFFFFFFFFFFFFFFFFF AND CALLER PUSH20 0xFFFFFFFFFFFFFFFFFFFFFFFFFFFFFFFFFFFFFFFF AND EQ PUSH2 0x3D5 JUMPI PUSH1 0x0 DUP1 REVERT JUMPDEST PUSH1 0x0 DUP1 DUP3 DUP2 SLOAD DUP2 LT PUSH2 0x3EA JUMPI PUSH2 0x3E9 PUSH2 0x1191 JUMP JUMPDEST JUMPDEST SWAP1 PUSH1 0x0 MSTORE PUSH1 0x20 PUSH1 0x0 KECCAK256 SWAP1 PUSH1 0x5 MUL ADD SWAP1 POP PUSH1 0x2 PUSH1 0x4 SLOAD PUSH2 0x409 SWAP2 SWAP1 PUSH2 0x121E JUMP JUMPDEST DUP2 PUSH1 0x3 ADD SLOAD GT PUSH2 0x418 JUMPI PUSH1 0x0 DUP1 REVERT JUMPDEST DUP1 PUSH1 0x2 ADD PUSH1 0x14 SWAP1 SLOAD SWAP1 PUSH2 0x100 EXP SWAP1 DIV PUSH1 0xFF AND ISZERO PUSH2 0x434 JUMPI PUSH1 0x0 DUP1 REVERT JUMPDEST DUP1 PUSH1 0x2 ADD PUSH1 0x0 SWAP1 SLOAD SWAP1 PUSH2 0x100 EXP SWAP1 DIV PUSH20 0xFFFFFFFFFFFFFFFFFFFFFFFFFFFFFFFFFFFFFFFF AND PUSH20 0xFFFFFFFFFFFFFFFFFFFFFFFFFFFFFFFFFFFFFFFF AND PUSH2 0x8FC DUP3 PUSH1 0x1 ADD SLOAD SWAP1 DUP2 ISZERO MUL SWAP1 PUSH1 0x40 MLOAD PUSH1 0x0 PUSH1 0x40 MLOAD DUP1 DUP4 SUB DUP2 DUP6 DUP9 DUP9 CALL SWAP4 POP POP POP POP ISZERO DUP1 ISZERO PUSH2 0x4A2 JUMPI RETURNDATASIZE PUSH1 0x0 DUP1 RETURNDATACOPY RETURNDATASIZE PUSH1 0x0 REVERT JUMPDEST POP PUSH1 0x1 DUP2 PUSH1 0x2 ADD PUSH1 0x14 PUSH2 0x100 EXP DUP2 SLOAD DUP2 PUSH1 0xFF MUL NOT AND SWAP1 DUP4 ISZERO ISZERO MUL OR SWAP1 SSTORE POP POP POP JUMP JUMPDEST PUSH1 0x3 PUSH1 0x20 MSTORE DUP1 PUSH1 0x0 MSTORE PUSH1 0x40 PUSH1 0x0 KECCAK256 PUSH1 0x0 SWAP2 POP SLOAD SWAP1 PUSH2 0x100 EXP SWAP1 DIV PUSH1 0xFF AND DUP2 JUMP JUMPDEST PUSH1 0x0 DUP1 DUP1 SLOAD SWAP1 POP SWAP1 POP SWAP1 JUMP JUMPDEST PUSH1 0x0 DUP1 PUSH1 0x0 DUP1 PUSH1 0x0 PUSH1 0x60 DUP1 PUSH1 0x60 PUSH1 0x0 PUSH1 0x2 SLOAD SELFBALANCE PUSH1 0x0 DUP1 SLOAD SWAP1 POP PUSH1 0x4 SLOAD PUSH1 0x1 PUSH1 0x0 SWAP1 SLOAD SWAP1 PUSH2 0x100 EXP SWAP1 DIV PUSH20 0xFFFFFFFFFFFFFFFFFFFFFFFFFFFFFFFFFFFFFFFF AND PUSH1 0x5 PUSH1 0x6 PUSH1 0x7 PUSH1 0x8 SLOAD DUP4 DUP1 SLOAD PUSH2 0x544 SWAP1 PUSH2 0x127E JUMP JUMPDEST DUP1 PUSH1 0x1F ADD PUSH1 0x20 DUP1 SWAP2 DIV MUL PUSH1 0x20 ADD PUSH1 0x40 MLOAD SWAP1 DUP2 ADD PUSH1 0x40 MSTORE DUP1 SWAP3 SWAP2 SWAP1 DUP2 DUP2 MSTORE PUSH1 0x20 ADD DUP3 DUP1 SLOAD PUSH2 0x570 SWAP1 PUSH2 0x127E JUMP JUMPDEST DUP1 ISZERO PUSH2 0x5BD JUMPI DUP1 PUSH1 0x1F LT PUSH2 0x592 JUMPI PUSH2 0x100 DUP1 DUP4 SLOAD DIV MUL DUP4 MSTORE SWAP2 PUSH1 0x20 ADD SWAP2 PUSH2 0x5BD JUMP JUMPDEST DUP3 ADD SWAP2 SWAP1 PUSH1 0x0 MSTORE PUSH1 0x20 PUSH1 0x0 KECCAK256 SWAP1 JUMPDEST DUP2 SLOAD DUP2 MSTORE SWAP1 PUSH1 0x1 ADD SWAP1 PUSH1 0x20 ADD DUP1 DUP4 GT PUSH2 0x5A0 JUMPI DUP3 SWAP1 SUB PUSH1 0x1F AND DUP3 ADD SWAP2 JUMPDEST POP POP POP POP POP SWAP4 POP DUP3 DUP1 SLOAD PUSH2 0x5D0 SWAP1 PUSH2 0x127E JUMP JUMPDEST DUP1 PUSH1 0x1F ADD PUSH1 0x20 DUP1 SWAP2 DIV MUL PUSH1 0x20 ADD PUSH1 0x40 MLOAD SWAP1 DUP2 ADD PUSH1 0x40 MSTORE DUP1 SWAP3 SWAP2 SWAP1 DUP2 DUP2 MSTORE PUSH1 0x20 ADD DUP3 DUP1 SLOAD PUSH2 0x5FC SWAP1 PUSH2 0x127E JUMP JUMPDEST DUP1 ISZERO PUSH2 0x649 JUMPI DUP1 PUSH1 0x1F LT PUSH2 0x61E JUMPI PUSH2 0x100 DUP1 DUP4 SLOAD DIV MUL DUP4 MSTORE SWAP2 PUSH1 0x20 ADD SWAP2 PUSH2 0x649 JUMP JUMPDEST DUP3 ADD SWAP2 SWAP1 PUSH1 0x0 MSTORE PUSH1 0x20 PUSH1 0x0 KECCAK256 SWAP1 JUMPDEST DUP2 SLOAD DUP2 MSTORE SWAP1 PUSH1 0x1 ADD SWAP1 PUSH1 0x20 ADD DUP1 DUP4 GT PUSH2 0x62C JUMPI DUP3 SWAP1 SUB PUSH1 0x1F AND DUP3 ADD SWAP2 JUMPDEST POP POP POP POP POP SWAP3 POP DUP2 DUP1 SLOAD PUSH2 0x65C SWAP1 PUSH2 0x127E JUMP JUMPDEST DUP1 PUSH1 0x1F ADD PUSH1 0x20 DUP1 SWAP2 DIV MUL PUSH1 0x20 ADD PUSH1 0x40 MLOAD SWAP1 DUP2 ADD PUSH1 0x40 MSTORE DUP1 SWAP3 SWAP2 SWAP1 DUP2 DUP2 MSTORE PUSH1 0x20 ADD DUP3 DUP1 SLOAD PUSH2 0x688 SWAP1 PUSH2 0x127E JUMP JUMPDEST DUP1 ISZERO PUSH2 0x6D5 JUMPI DUP1 PUSH1 0x1F LT PUSH2 0x6AA JUMPI PUSH2 0x100 DUP1 DUP4 SLOAD DIV MUL DUP4 MSTORE SWAP2 PUSH1 0x20 ADD SWAP2 PUSH2 0x6D5 JUMP JUMPDEST DUP3 ADD SWAP2 SWAP1 PUSH1 0x0 MSTORE PUSH1 0x20 PUSH1 0x0 KECCAK256 SWAP1 JUMPDEST DUP2 SLOAD DUP2 MSTORE SWAP1 PUSH1 0x1 ADD SWAP1 PUSH1 0x20 ADD DUP1 DUP4 GT PUSH2 0x6B8 JUMPI DUP3 SWAP1 SUB PUSH1 0x1F AND DUP3 ADD SWAP2 JUMPDEST POP POP POP POP POP SWAP2 POP SWAP9 POP SWAP9 POP SWAP9 POP SWAP9 POP SWAP9 POP SWAP9 POP SWAP9 POP SWAP9 POP SWAP9 POP SWAP1 SWAP2 SWAP3 SWAP4 SWAP5 SWAP6 SWAP7 SWAP8 SWAP9 JUMP JUMPDEST PUSH1 0x1 PUSH1 0x0 SWAP1 SLOAD SWAP1 PUSH2 0x100 EXP SWAP1 DIV PUSH20 0xFFFFFFFFFFFFFFFFFFFFFFFFFFFFFFFFFFFFFFFF AND DUP2 JUMP JUMPDEST PUSH1 0x5 DUP1 SLOAD PUSH2 0x72C SWAP1 PUSH2 0x127E JUMP JUMPDEST DUP1 PUSH1 0x1F ADD PUSH1 0x20 DUP1 SWAP2 DIV MUL PUSH1 0x20 ADD PUSH1 0x40 MLOAD SWAP1 DUP2 ADD PUSH1 0x40 MSTORE DUP1 SWAP3 SWAP2 SWAP1 DUP2 DUP2 MSTORE PUSH1 0x20 ADD DUP3 DUP1 SLOAD PUSH2 0x758 SWAP1 PUSH2 0x127E JUMP JUMPDEST DUP1 ISZERO PUSH2 0x7A5 JUMPI DUP1 PUSH1 0x1F LT PUSH2 0x77A JUMPI PUSH2 0x100 DUP1 DUP4 SLOAD DIV MUL DUP4 MSTORE SWAP2 PUSH1 0x20 ADD SWAP2 PUSH2 0x7A5 JUMP JUMPDEST DUP3 ADD SWAP2 SWAP1 PUSH1 0x0 MSTORE PUSH1 0x20 PUSH1 0x0 KECCAK256 SWAP1 JUMPDEST DUP2 SLOAD DUP2 MSTORE SWAP1 PUSH1 0x1 ADD SWAP1 PUSH1 0x20 ADD DUP1 DUP4 GT PUSH2 0x788 JUMPI DUP3 SWAP1 SUB PUSH1 0x1F AND DUP3 ADD SWAP2 JUMPDEST POP POP POP POP POP DUP2 JUMP JUMPDEST PUSH1 0x0 DUP2 DUP2 SLOAD DUP2 LT PUSH2 0x7BD JUMPI PUSH1 0x0 DUP1 REVERT JUMPDEST SWAP1 PUSH1 0x0 MSTORE PUSH1 0x20 PUSH1 0x0 KECCAK256 SWAP1 PUSH1 0x5 MUL ADD PUSH1 0x0 SWAP2 POP SWAP1 POP DUP1 PUSH1 0x0 ADD DUP1 SLOAD PUSH2 0x7E0 SWAP1 PUSH2 0x127E JUMP JUMPDEST DUP1 PUSH1 0x1F ADD PUSH1 0x20 DUP1 SWAP2 DIV MUL PUSH1 0x20 ADD PUSH1 0x40 MLOAD SWAP1 DUP2 ADD PUSH1 0x40 MSTORE DUP1 SWAP3 SWAP2 SWAP1 DUP2 DUP2 MSTORE PUSH1 0x20 ADD DUP3 DUP1 SLOAD PUSH2 0x80C SWAP1 PUSH2 0x127E JUMP JUMPDEST DUP1 ISZERO PUSH2 0x859 JUMPI DUP1 PUSH1 0x1F LT PUSH2 0x82E JUMPI PUSH2 0x100 DUP1 DUP4 SLOAD DIV MUL DUP4 MSTORE SWAP2 PUSH1 0x20 ADD SWAP2 PUSH2 0x859 JUMP JUMPDEST DUP3 ADD SWAP2 SWAP1 PUSH1 0x0 MSTORE PUSH1 0x20 PUSH1 0x0 KECCAK256 SWAP1 JUMPDEST DUP2 SLOAD DUP2 MSTORE SWAP1 PUSH1 0x1 ADD SWAP1 PUSH1 0x20 ADD DUP1 DUP4 GT PUSH2 0x83C JUMPI DUP3 SWAP1 SUB PUSH1 0x1F AND DUP3 ADD SWAP2 JUMPDEST POP POP POP POP POP SWAP1 DUP1 PUSH1 0x1 ADD SLOAD SWAP1 DUP1 PUSH1 0x2 ADD PUSH1 0x0 SWAP1 SLOAD SWAP1 PUSH2 0x100 EXP SWAP1 DIV PUSH20 0xFFFFFFFFFFFFFFFFFFFFFFFFFFFFFFFFFFFFFFFF AND SWAP1 DUP1 PUSH1 0x2 ADD PUSH1 0x14 SWAP1 SLOAD SWAP1 PUSH2 0x100 EXP SWAP1 DIV PUSH1 0xFF AND SWAP1 DUP1 PUSH1 0x3 ADD SLOAD SWAP1 POP DUP6 JUMP JUMPDEST PUSH1 0x4 SLOAD DUP2 JUMP JUMPDEST PUSH1 0x1 PUSH1 0x0 SWAP1 SLOAD SWAP1 PUSH2 0x100 EXP SWAP1 DIV PUSH20 0xFFFFFFFFFFFFFFFFFFFFFFFFFFFFFFFFFFFFFFFF AND PUSH20 0xFFFFFFFFFFFFFFFFFFFFFFFFFFFFFFFFFFFFFFFF AND CALLER PUSH20 0xFFFFFFFFFFFFFFFFFFFFFFFFFFFFFFFFFFFFFFFF AND EQ PUSH2 0x908 JUMPI PUSH1 0x0 DUP1 REVERT JUMPDEST PUSH1 0x0 DUP1 PUSH1 0x1 DUP2 PUSH1 0x1 DUP2 SLOAD ADD DUP1 DUP3 SSTORE DUP1 SWAP2 POP POP SUB SWAP1 PUSH1 0x0 MSTORE PUSH1 0x20 PUSH1 0x0 KECCAK256 SWAP1 PUSH1 0x5 MUL ADD SWAP1 POP DUP4 DUP2 PUSH1 0x0 ADD SWAP1 DUP2 PUSH2 0x93C SWAP2 SWAP1 PUSH2 0x145B JUMP JUMPDEST POP DUP3 DUP2 PUSH1 0x1 ADD DUP2 SWAP1 SSTORE POP DUP2 DUP2 PUSH1 0x2 ADD PUSH1 0x0 PUSH2 0x100 EXP DUP2 SLOAD DUP2 PUSH20 0xFFFFFFFFFFFFFFFFFFFFFFFFFFFFFFFFFFFFFFFF MUL NOT AND SWAP1 DUP4 PUSH20 0xFFFFFFFFFFFFFFFFFFFFFFFFFFFFFFFFFFFFFFFF AND MUL OR SWAP1 SSTORE POP PUSH1 0x0 DUP2 PUSH1 0x2 ADD PUSH1 0x14 PUSH2 0x100 EXP DUP2 SLOAD DUP2 PUSH1 0xFF MUL NOT AND SWAP1 DUP4 ISZERO ISZERO MUL OR SWAP1 SSTORE POP PUSH1 0x0 DUP2 PUSH1 0x3 ADD DUP2 SWAP1 SSTORE POP POP POP POP POP JUMP JUMPDEST PUSH1 0x8 SLOAD DUP2 JUMP JUMPDEST PUSH1 0x2 SLOAD DUP2 JUMP JUMPDEST PUSH1 0x6 DUP1 SLOAD PUSH2 0x9CF SWAP1 PUSH2 0x127E JUMP JUMPDEST DUP1 PUSH1 0x1F ADD PUSH1 0x20 DUP1 SWAP2 DIV MUL PUSH1 0x20 ADD PUSH1 0x40 MLOAD SWAP1 DUP2 ADD PUSH1 0x40 MSTORE DUP1 SWAP3 SWAP2 SWAP1 DUP2 DUP2 MSTORE PUSH1 0x20 ADD DUP3 DUP1 SLOAD PUSH2 0x9FB SWAP1 PUSH2 0x127E JUMP JUMPDEST DUP1 ISZERO PUSH2 0xA48 JUMPI DUP1 PUSH1 0x1F LT PUSH2 0xA1D JUMPI PUSH2 0x100 DUP1 DUP4 SLOAD DIV MUL DUP4 MSTORE SWAP2 PUSH1 0x20 ADD SWAP2 PUSH2 0xA48 JUMP JUMPDEST DUP3 ADD SWAP2 SWAP1 PUSH1 0x0 MSTORE PUSH1 0x20 PUSH1 0x0 KECCAK256 SWAP1 JUMPDEST DUP2 SLOAD DUP2 MSTORE SWAP1 PUSH1 0x1 ADD SWAP1 PUSH1 0x20 ADD DUP1 DUP4 GT PUSH2 0xA2B JUMPI DUP3 SWAP1 SUB PUSH1 0x1F AND DUP3 ADD SWAP2 JUMPDEST POP POP POP POP POP DUP2 JUMP JUMPDEST PUSH1 0x7 DUP1 SLOAD PUSH2 0xA5D SWAP1 PUSH2 0x127E JUMP JUMPDEST DUP1 PUSH1 0x1F ADD PUSH1 0x20 DUP1 SWAP2 DIV MUL PUSH1 0x20 ADD PUSH1 0x40 MLOAD SWAP1 DUP2 ADD PUSH1 0x40 MSTORE DUP1 SWAP3 SWAP2 SWAP1 DUP2 DUP2 MSTORE PUSH1 0x20 ADD DUP3 DUP1 SLOAD PUSH2 0xA89 SWAP1 PUSH2 0x127E JUMP JUMPDEST DUP1 ISZERO PUSH2 0xAD6 JUMPI DUP1 PUSH1 0x1F LT PUSH2 0xAAB JUMPI PUSH2 0x100 DUP1 DUP4 SLOAD DIV MUL DUP4 MSTORE SWAP2 PUSH1 0x20 ADD SWAP2 PUSH2 0xAD6 JUMP JUMPDEST DUP3 ADD SWAP2 SWAP1 PUSH1 0x0 MSTORE PUSH1 0x20 PUSH1 0x0 KECCAK256 SWAP1 JUMPDEST DUP2 SLOAD DUP2 MSTORE SWAP1 PUSH1 0x1 ADD SWAP1 PUSH1 0x20 ADD DUP1 DUP4 GT PUSH2 0xAB9 JUMPI DUP3 SWAP1 SUB PUSH1 0x1F AND DUP3 ADD SWAP2 JUMPDEST POP POP POP POP POP DUP2 JUMP JUMPDEST PUSH1 0x2 SLOAD CALLVALUE GT PUSH2 0xAEC JUMPI PUSH1 0x0 DUP1 REVERT JUMPDEST PUSH1 0x1 PUSH1 0x3 PUSH1 0x0 CALLER PUSH20 0xFFFFFFFFFFFFFFFFFFFFFFFFFFFFFFFFFFFFFFFF AND PUSH20 0xFFFFFFFFFFFFFFFFFFFFFFFFFFFFFFFFFFFFFFFF AND DUP2 MSTORE PUSH1 0x20 ADD SWAP1 DUP2 MSTORE PUSH1 0x20 ADD PUSH1 0x0 KECCAK256 PUSH1 0x0 PUSH2 0x100 EXP DUP2 SLOAD DUP2 PUSH1 0xFF MUL NOT AND SWAP1 DUP4 ISZERO ISZERO MUL OR SWAP1 SSTORE POP PUSH1 0x4 PUSH1 0x0 DUP2 SLOAD DUP1 SWAP3 SWAP2 SWAP1 PUSH2 0xB57 SWAP1 PUSH2 0x152D JUMP JUMPDEST SWAP2 SWAP1 POP SSTORE POP JUMP JUMPDEST PUSH1 0x0 DUP1 DUP3 DUP2 SLOAD DUP2 LT PUSH2 0xB73 JUMPI PUSH2 0xB72 PUSH2 0x1191 JUMP JUMPDEST JUMPDEST SWAP1 PUSH1 0x0 MSTORE PUSH1 0x20 PUSH1 0x0 KECCAK256 SWAP1 PUSH1 0x5 MUL ADD SWAP1 POP PUSH1 0x3 PUSH1 0x0 CALLER PUSH20 0xFFFFFFFFFFFFFFFFFFFFFFFFFFFFFFFFFFFFFFFF AND PUSH20 0xFFFFFFFFFFFFFFFFFFFFFFFFFFFFFFFFFFFFFFFF AND DUP2 MSTORE PUSH1 0x20 ADD SWAP1 DUP2 MSTORE PUSH1 0x20 ADD PUSH1 0x0 KECCAK256 PUSH1 0x0 SWAP1 SLOAD SWAP1 PUSH2 0x100 EXP SWAP1 DIV PUSH1 0xFF AND PUSH2 0xBD9 JUMPI PUSH1 0x0 DUP1 REVERT JUMPDEST DUP1 PUSH1 0x4 ADD PUSH1 0x0 CALLER PUSH20 0xFFFFFFFFFFFFFFFFFFFFFFFFFFFFFFFFFFFFFFFF AND PUSH20 0xFFFFFFFFFFFFFFFFFFFFFFFFFFFFFFFFFFFFFFFF AND DUP2 MSTORE PUSH1 0x20 ADD SWAP1 DUP2 MSTORE PUSH1 0x20 ADD PUSH1 0x0 KECCAK256 PUSH1 0x0 SWAP1 SLOAD SWAP1 PUSH2 0x100 EXP SWAP1 DIV PUSH1 0xFF AND ISZERO PUSH2 0xC32 JUMPI PUSH1 0x0 DUP1 REVERT JUMPDEST PUSH1 0x1 DUP2 PUSH1 0x4 ADD PUSH1 0x0 CALLER PUSH20 0xFFFFFFFFFFFFFFFFFFFFFFFFFFFFFFFFFFFFFFFF AND PUSH20 0xFFFFFFFFFFFFFFFFFFFFFFFFFFFFFFFFFFFFFFFF AND DUP2 MSTORE PUSH1 0x20 ADD SWAP1 DUP2 MSTORE PUSH1 0x20 ADD PUSH1 0x0 KECCAK256 PUSH1 0x0 PUSH2 0x100 EXP DUP2 SLOAD DUP2 PUSH1 0xFF MUL NOT AND SWAP1 DUP4 ISZERO ISZERO MUL OR SWAP1 SSTORE POP DUP1 PUSH1 0x3 ADD PUSH1 0x0 DUP2 SLOAD DUP1 SWAP3 SWAP2 SWAP1 PUSH2 0xCA1 SWAP1 PUSH2 0x152D JUMP JUMPDEST SWAP2 SWAP1 POP SSTORE POP POP POP JUMP JUMPDEST PUSH1 0x0 PUSH1 0x40 MLOAD SWAP1 POP SWAP1 JUMP JUMPDEST PUSH1 0x0 DUP1 REVERT JUMPDEST PUSH1 0x0 DUP1 REVERT JUMPDEST PUSH1 0x0 DUP2 SWAP1 POP SWAP2 SWAP1 POP JUMP JUMPDEST PUSH2 0xCD1 DUP2 PUSH2 0xCBE JUMP JUMPDEST DUP2 EQ PUSH2 0xCDC JUMPI PUSH1 0x0 DUP1 REVERT JUMPDEST POP JUMP JUMPDEST PUSH1 0x0 DUP2 CALLDATALOAD SWAP1 POP PUSH2 0xCEE DUP2 PUSH2 0xCC8 JUMP JUMPDEST SWAP3 SWAP2 POP POP JUMP JUMPDEST PUSH1 0x0 PUSH1 0x20 DUP3 DUP5 SUB SLT ISZERO PUSH2 0xD0A JUMPI PUSH2 0xD09 PUSH2 0xCB4 JUMP JUMPDEST JUMPDEST PUSH1 0x0 PUSH2 0xD18 DUP5 DUP3 DUP6 ADD PUSH2 0xCDF JUMP JUMPDEST SWAP2 POP POP SWAP3 SWAP2 POP POP JUMP JUMPDEST PUSH1 0x0 PUSH20 0xFFFFFFFFFFFFFFFFFFFFFFFFFFFFFFFFFFFFFFFF DUP3 AND SWAP1 POP SWAP2 SWAP1 POP JUMP JUMPDEST PUSH1 0x0 PUSH2 0xD4C DUP3 PUSH2 0xD21 JUMP JUMPDEST SWAP1 POP SWAP2 SWAP1 POP JUMP JUMPDEST PUSH2 0xD5C DUP2 PUSH2 0xD41 JUMP JUMPDEST DUP2 EQ PUSH2 0xD67 JUMPI PUSH1 0x0 DUP1 REVERT JUMPDEST POP JUMP JUMPDEST PUSH1 0x0 DUP2 CALLDATALOAD SWAP1 POP PUSH2 0xD79 DUP2 PUSH2 0xD53 JUMP JUMPDEST SWAP3 SWAP2 POP POP JUMP JUMPDEST PUSH1 0x0 PUSH1 0x20 DUP3 DUP5 SUB SLT ISZERO PUSH2 0xD95 JUMPI PUSH2 0xD94 PUSH2 0xCB4 JUMP JUMPDEST JUMPDEST PUSH1 0x0 PUSH2 0xDA3 DUP5 DUP3 DUP6 ADD PUSH2 0xD6A JUMP JUMPDEST SWAP2 POP POP SWAP3 SWAP2 POP POP JUMP JUMPDEST PUSH1 0x0 DUP2 ISZERO ISZERO SWAP1 POP SWAP2 SWAP1 POP JUMP JUMPDEST PUSH2 0xDC1 DUP2 PUSH2 0xDAC JUMP JUMPDEST DUP3 MSTORE POP POP JUMP JUMPDEST PUSH1 0x0 PUSH1 0x20 DUP3 ADD SWAP1 POP PUSH2 0xDDC PUSH1 0x0 DUP4 ADD DUP5 PUSH2 0xDB8 JUMP JUMPDEST SWAP3 SWAP2 POP POP JUMP JUMPDEST PUSH2 0xDEB DUP2 PUSH2 0xCBE JUMP JUMPDEST DUP3 MSTORE POP POP JUMP JUMPDEST PUSH1 0x0 PUSH1 0x20 DUP3 ADD SWAP1 POP PUSH2 0xE06 PUSH1 0x0 DUP4 ADD DUP5 PUSH2 0xDE2 JUMP JUMPDEST SWAP3 SWAP2 POP POP JUMP JUMPDEST PUSH2 0xE15 DUP2 PUSH2 0xD41 JUMP JUMPDEST DUP3 MSTORE POP POP JUMP JUMPDEST PUSH1 0x0 DUP2 MLOAD SWAP1 POP SWAP2 SWAP1 POP JUMP JUMPDEST PUSH1 0x0 DUP3 DUP3 MSTORE PUSH1 0x20 DUP3 ADD SWAP1 POP SWAP3 SWAP2 POP POP JUMP JUMPDEST PUSH1 0x0 JUMPDEST DUP4 DUP2 LT ISZERO PUSH2 0xE55 JUMPI DUP1 DUP3 ADD MLOAD DUP2 DUP5 ADD MSTORE PUSH1 0x20 DUP2 ADD SWAP1 POP PUSH2 0xE3A JUMP JUMPDEST DUP4 DUP2 GT ISZERO PUSH2 0xE64 JUMPI PUSH1 0x0 DUP5 DUP5 ADD MSTORE JUMPDEST POP POP POP POP JUMP JUMPDEST PUSH1 0x0 PUSH1 0x1F NOT PUSH1 0x1F DUP4 ADD AND SWAP1 POP SWAP2 SWAP1 POP JUMP JUMPDEST PUSH1 0x0 PUSH2 0xE86 DUP3 PUSH2 0xE1B JUMP JUMPDEST PUSH2 0xE90 DUP2 DUP6 PUSH2 0xE26 JUMP JUMPDEST SWAP4 POP PUSH2 0xEA0 DUP2 DUP6 PUSH1 0x20 DUP7 ADD PUSH2 0xE37 JUMP JUMPDEST PUSH2 0xEA9 DUP2 PUSH2 0xE6A JUMP JUMPDEST DUP5 ADD SWAP2 POP POP SWAP3 SWAP2 POP POP JUMP JUMPDEST PUSH1 0x0 PUSH2 0x120 DUP3 ADD SWAP1 POP PUSH2 0xECA PUSH1 0x0 DUP4 ADD DUP13 PUSH2 0xDE2 JUMP JUMPDEST PUSH2 0xED7 PUSH1 0x20 DUP4 ADD DUP12 PUSH2 0xDE2 JUMP JUMPDEST PUSH2 0xEE4 PUSH1 0x40 DUP4 ADD DUP11 PUSH2 0xDE2 JUMP JUMPDEST PUSH2 0xEF1 PUSH1 0x60 DUP4 ADD DUP10 PUSH2 0xDE2 JUMP JUMPDEST PUSH2 0xEFE PUSH1 0x80 DUP4 ADD DUP9 PUSH2 0xE0C JUMP JUMPDEST DUP2 DUP2 SUB PUSH1 0xA0 DUP4 ADD MSTORE PUSH2 0xF10 DUP2 DUP8 PUSH2 0xE7B JUMP JUMPDEST SWAP1 POP DUP2 DUP2 SUB PUSH1 0xC0 DUP4 ADD MSTORE PUSH2 0xF24 DUP2 DUP7 PUSH2 0xE7B JUMP JUMPDEST SWAP1 POP DUP2 DUP2 SUB PUSH1 0xE0 DUP4 ADD MSTORE PUSH2 0xF38 DUP2 DUP6 PUSH2 0xE7B JUMP JUMPDEST SWAP1 POP PUSH2 0xF48 PUSH2 0x100 DUP4 ADD DUP5 PUSH2 0xDE2 JUMP JUMPDEST SWAP11 SWAP10 POP POP POP POP POP POP POP POP POP POP JUMP JUMPDEST PUSH1 0x0 PUSH1 0x20 DUP3 ADD SWAP1 POP PUSH2 0xF6B PUSH1 0x0 DUP4 ADD DUP5 PUSH2 0xE0C JUMP JUMPDEST SWAP3 SWAP2 POP POP JUMP JUMPDEST PUSH1 0x0 PUSH1 0x20 DUP3 ADD SWAP1 POP DUP2 DUP2 SUB PUSH1 0x0 DUP4 ADD MSTORE PUSH2 0xF8B DUP2 DUP5 PUSH2 0xE7B JUMP JUMPDEST SWAP1 POP SWAP3 SWAP2 POP POP JUMP JUMPDEST PUSH1 0x0 PUSH1 0xA0 DUP3 ADD SWAP1 POP DUP2 DUP2 SUB PUSH1 0x0 DUP4 ADD MSTORE PUSH2 0xFAD DUP2 DUP9 PUSH2 0xE7B JUMP JUMPDEST SWAP1 POP PUSH2 0xFBC PUSH1 0x20 DUP4 ADD DUP8 PUSH2 0xDE2 JUMP JUMPDEST PUSH2 0xFC9 PUSH1 0x40 DUP4 ADD DUP7 PUSH2 0xE0C JUMP JUMPDEST PUSH2 0xFD6 PUSH1 0x60 DUP4 ADD DUP6 PUSH2 0xDB8 JUMP JUMPDEST PUSH2 0xFE3 PUSH1 0x80 DUP4 ADD DUP5 PUSH2 0xDE2 JUMP JUMPDEST SWAP7 SWAP6 POP POP POP POP POP POP JUMP JUMPDEST PUSH1 0x0 DUP1 REVERT JUMPDEST PUSH1 0x0 DUP1 REVERT JUMPDEST PUSH32 0x4E487B7100000000000000000000000000000000000000000000000000000000 PUSH1 0x0 MSTORE PUSH1 0x41 PUSH1 0x4 MSTORE PUSH1 0x24 PUSH1 0x0 REVERT JUMPDEST PUSH2 0x102F DUP3 PUSH2 0xE6A JUMP JUMPDEST DUP2 ADD DUP2 DUP2 LT PUSH8 0xFFFFFFFFFFFFFFFF DUP3 GT OR ISZERO PUSH2 0x104E JUMPI PUSH2 0x104D PUSH2 0xFF7 JUMP JUMPDEST JUMPDEST DUP1 PUSH1 0x40 MSTORE POP POP POP JUMP JUMPDEST PUSH1 0x0 PUSH2 0x1061 PUSH2 0xCAA JUMP JUMPDEST SWAP1 POP PUSH2 0x106D DUP3 DUP3 PUSH2 0x1026 JUMP JUMPDEST SWAP2 SWAP1 POP JUMP JUMPDEST PUSH1 0x0 PUSH8 0xFFFFFFFFFFFFFFFF DUP3 GT ISZERO PUSH2 0x108D JUMPI PUSH2 0x108C PUSH2 0xFF7 JUMP JUMPDEST JUMPDEST PUSH2 0x1096 DUP3 PUSH2 0xE6A JUMP JUMPDEST SWAP1 POP PUSH1 0x20 DUP2 ADD SWAP1 POP SWAP2 SWAP1 POP JUMP JUMPDEST DUP3 DUP2 DUP4 CALLDATACOPY PUSH1 0x0 DUP4 DUP4 ADD MSTORE POP POP POP JUMP JUMPDEST PUSH1 0x0 PUSH2 0x10C5 PUSH2 0x10C0 DUP5 PUSH2 0x1072 JUMP JUMPDEST PUSH2 0x1057 JUMP JUMPDEST SWAP1 POP DUP3 DUP2 MSTORE PUSH1 0x20 DUP2 ADD DUP5 DUP5 DUP5 ADD GT ISZERO PUSH2 0x10E1 JUMPI PUSH2 0x10E0 PUSH2 0xFF2 JUMP JUMPDEST JUMPDEST PUSH2 0x10EC DUP5 DUP3 DUP6 PUSH2 0x10A3 JUMP JUMPDEST POP SWAP4 SWAP3 POP POP POP JUMP JUMPDEST PUSH1 0x0 DUP3 PUSH1 0x1F DUP4 ADD SLT PUSH2 0x1109 JUMPI PUSH2 0x1108 PUSH2 0xFED JUMP JUMPDEST JUMPDEST DUP2 CALLDATALOAD PUSH2 0x1119 DUP5 DUP3 PUSH1 0x20 DUP7 ADD PUSH2 0x10B2 JUMP JUMPDEST SWAP2 POP POP SWAP3 SWAP2 POP POP JUMP JUMPDEST PUSH1 0x0 DUP1 PUSH1 0x0 PUSH1 0x60 DUP5 DUP7 SUB SLT ISZERO PUSH2 0x113B JUMPI PUSH2 0x113A PUSH2 0xCB4 JUMP JUMPDEST JUMPDEST PUSH1 0x0 DUP5 ADD CALLDATALOAD PUSH8 0xFFFFFFFFFFFFFFFF DUP2 GT ISZERO PUSH2 0x1159 JUMPI PUSH2 0x1158 PUSH2 0xCB9 JUMP JUMPDEST JUMPDEST PUSH2 0x1165 DUP7 DUP3 DUP8 ADD PUSH2 0x10F4 JUMP JUMPDEST SWAP4 POP POP PUSH1 0x20 PUSH2 0x1176 DUP7 DUP3 DUP8 ADD PUSH2 0xCDF JUMP JUMPDEST SWAP3 POP POP PUSH1 0x40 PUSH2 0x1187 DUP7 DUP3 DUP8 ADD PUSH2 0xD6A JUMP JUMPDEST SWAP2 POP POP SWAP3 POP SWAP3 POP SWAP3 JUMP JUMPDEST PUSH32 0x4E487B7100000000000000000000000000000000000000000000000000000000 PUSH1 0x0 MSTORE PUSH1 0x32 PUSH1 0x4 MSTORE PUSH1 0x24 PUSH1 0x0 REVERT JUMPDEST PUSH32 0x4E487B7100000000000000000000000000000000000000000000000000000000 PUSH1 0x0 MSTORE PUSH1 0x12 PUSH1 0x4 MSTORE PUSH1 0x24 PUSH1 0x0 REVERT JUMPDEST PUSH32 0x4E487B7100000000000000000000000000000000000000000000000000000000 PUSH1 0x0 MSTORE PUSH1 0x11 PUSH1 0x4 MSTORE PUSH1 0x24 PUSH1 0x0 REVERT JUMPDEST PUSH1 0x0 PUSH2 0x1229 DUP3 PUSH2 0xCBE JUMP JUMPDEST SWAP2 POP PUSH2 0x1234 DUP4 PUSH2 0xCBE JUMP JUMPDEST SWAP3 POP DUP3 PUSH2 0x1244 JUMPI PUSH2 0x1243 PUSH2 0x11C0 JUMP JUMPDEST JUMPDEST DUP3 DUP3 DIV SWAP1 POP SWAP3 SWAP2 POP POP JUMP JUMPDEST PUSH32 0x4E487B7100000000000000000000000000000000000000000000000000000000 PUSH1 0x0 MSTORE PUSH1 0x22 PUSH1 0x4 MSTORE PUSH1 0x24 PUSH1 0x0 REVERT JUMPDEST PUSH1 0x0 PUSH1 0x2 DUP3 DIV SWAP1 POP PUSH1 0x1 DUP3 AND DUP1 PUSH2 0x1296 JUMPI PUSH1 0x7F DUP3 AND SWAP2 POP JUMPDEST PUSH1 0x20 DUP3 LT DUP2 SUB PUSH2 0x12A9 JUMPI PUSH2 0x12A8 PUSH2 0x124F JUMP JUMPDEST JUMPDEST POP SWAP2 SWAP1 POP JUMP JUMPDEST PUSH1 0x0 DUP2 SWAP1 POP DUP2 PUSH1 0x0 MSTORE PUSH1 0x20 PUSH1 0x0 KECCAK256 SWAP1 POP SWAP2 SWAP1 POP JUMP JUMPDEST PUSH1 0x0 PUSH1 0x20 PUSH1 0x1F DUP4 ADD DIV SWAP1 POP SWAP2 SWAP1 POP JUMP JUMPDEST PUSH1 0x0 DUP3 DUP3 SHL SWAP1 POP SWAP3 SWAP2 POP POP JUMP JUMPDEST PUSH1 0x0 PUSH1 0x8 DUP4 MUL PUSH2 0x1311 PUSH32 0xFFFFFFFFFFFFFFFFFFFFFFFFFFFFFFFFFFFFFFFFFFFFFFFFFFFFFFFFFFFFFFFF DUP3 PUSH2 0x12D4 JUMP JUMPDEST PUSH2 0x131B DUP7 DUP4 PUSH2 0x12D4 JUMP JUMPDEST SWAP6 POP DUP1 NOT DUP5 AND SWAP4 POP DUP1 DUP7 AND DUP5 OR SWAP3 POP POP POP SWAP4 SWAP3 POP POP POP JUMP JUMPDEST PUSH1 0x0 DUP2 SWAP1 POP SWAP2 SWAP1 POP JUMP JUMPDEST PUSH1 0x0 PUSH2 0x1358 PUSH2 0x1353 PUSH2 0x134E DUP5 PUSH2 0xCBE JUMP JUMPDEST PUSH2 0x1333 JUMP JUMPDEST PUSH2 0xCBE JUMP JUMPDEST SWAP1 POP SWAP2 SWAP1 POP JUMP JUMPDEST PUSH1 0x0 DUP2 SWAP1 POP SWAP2 SWAP1 POP JUMP JUMPDEST PUSH2 0x1372 DUP4 PUSH2 0x133D JUMP JUMPDEST PUSH2 0x1386 PUSH2 0x137E DUP3 PUSH2 0x135F JUMP JUMPDEST DUP5 DUP5 SLOAD PUSH2 0x12E1 JUMP JUMPDEST DUP3 SSTORE POP POP POP POP JUMP JUMPDEST PUSH1 0x0 SWAP1 JUMP JUMPDEST PUSH2 0x139B PUSH2 0x138E JUMP JUMPDEST PUSH2 0x13A6 DUP2 DUP5 DUP5 PUSH2 0x1369 JUMP JUMPDEST POP POP POP JUMP JUMPDEST JUMPDEST DUP2 DUP2 LT ISZERO PUSH2 0x13CA JUMPI PUSH2 0x13BF PUSH1 0x0 DUP3 PUSH2 0x1393 JUMP JUMPDEST PUSH1 0x1 DUP2 ADD SWAP1 POP PUSH2 0x13AC JUMP JUMPDEST POP POP JUMP JUMPDEST PUSH1 0x1F DUP3 GT ISZERO PUSH2 0x140F JUMPI PUSH2 0x13E0 DUP2 PUSH2 0x12AF JUMP JUMPDEST PUSH2 0x13E9 DUP5 PUSH2 0x12C4 JUMP JUMPDEST DUP2 ADD PUSH1 0x20 DUP6 LT ISZERO PUSH2 0x13F8 JUMPI DUP2 SWAP1 POP JUMPDEST PUSH2 0x140C PUSH2 0x1404 DUP6 PUSH2 0x12C4 JUMP JUMPDEST DUP4 ADD DUP3 PUSH2 0x13AB JUMP JUMPDEST POP POP JUMPDEST POP POP POP JUMP JUMPDEST PUSH1 0x0 DUP3 DUP3 SHR SWAP1 POP SWAP3 SWAP2 POP POP JUMP JUMPDEST PUSH1 0x0 PUSH2 0x1432 PUSH1 0x0 NOT DUP5 PUSH1 0x8 MUL PUSH2 0x1414 JUMP JUMPDEST NOT DUP1 DUP4 AND SWAP2 POP POP SWAP3 SWAP2 POP POP JUMP JUMPDEST PUSH1 0x0 PUSH2 0x144B DUP4 DUP4 PUSH2 0x1421 JUMP JUMPDEST SWAP2 POP DUP3 PUSH1 0x2 MUL DUP3 OR SWAP1 POP SWAP3 SWAP2 POP POP JUMP JUMPDEST PUSH2 0x1464 DUP3 PUSH2 0xE1B JUMP JUMPDEST PUSH8 0xFFFFFFFFFFFFFFFF DUP2 GT ISZERO PUSH2 0x147D JUMPI PUSH2 0x147C PUSH2 0xFF7 JUMP JUMPDEST JUMPDEST PUSH2 0x1487 DUP3 SLOAD PUSH2 0x127E JUMP JUMPDEST PUSH2 0x1492 DUP3 DUP3 DUP6 PUSH2 0x13CE JUMP JUMPDEST PUSH1 0x0 PUSH1 0x20 SWAP1 POP PUSH1 0x1F DUP4 GT PUSH1 0x1 DUP2 EQ PUSH2 0x14C5 JUMPI PUSH1 0x0 DUP5 ISZERO PUSH2 0x14B3 JUMPI DUP3 DUP8 ADD MLOAD SWAP1 POP JUMPDEST PUSH2 0x14BD DUP6 DUP3 PUSH2 0x143F JUMP JUMPDEST DUP7 SSTORE POP PUSH2 0x1525 JUMP JUMPDEST PUSH1 0x1F NOT DUP5 AND PUSH2 0x14D3 DUP7 PUSH2 0x12AF JUMP JUMPDEST PUSH1 0x0 JUMPDEST DUP3 DUP2 LT ISZERO PUSH2 0x14FB JUMPI DUP5 DUP10 ADD MLOAD DUP3 SSTORE PUSH1 0x1 DUP3 ADD SWAP2 POP PUSH1 0x20 DUP6 ADD SWAP5 POP PUSH1 0x20 DUP2 ADD SWAP1 POP PUSH2 0x14D6 JUMP JUMPDEST DUP7 DUP4 LT ISZERO PUSH2 0x1518 JUMPI DUP5 DUP10 ADD MLOAD PUSH2 0x1514 PUSH1 0x1F DUP10 AND DUP3 PUSH2 0x1421 JUMP JUMPDEST DUP4 SSTORE POP JUMPDEST PUSH1 0x1 PUSH1 0x2 DUP9 MUL ADD DUP9 SSTORE POP POP POP JUMPDEST POP POP POP POP POP POP JUMP JUMPDEST PUSH1 0x0 PUSH2 0x1538 DUP3 PUSH2 0xCBE JUMP JUMPDEST SWAP2 POP PUSH32 0xFFFFFFFFFFFFFFFFFFFFFFFFFFFFFFFFFFFFFFFFFFFFFFFFFFFFFFFFFFFFFFFF DUP3 SUB PUSH2 0x156A JUMPI PUSH2 0x1569 PUSH2 0x11EF JUMP JUMPDEST JUMPDEST PUSH1 0x1 DUP3 ADD SWAP1 POP SWAP2 SWAP1 POP JUMP INVALID LOG2 PUSH5 0x6970667358 0x22 SLT KECCAK256 SWAP8 SWAP14 CALLCODE 0xC4 ADDRESS 0xAA 0x49 CALLDATALOAD 0xDF PUSH18 0x19B9A80A1B49B8C8B1A2C3BA5D38307E2D85 DUP15 DUP4 SGT 0x2D PUSH5 0x736F6C6343 STOP ADDMOD 0xF STOP CALLER LOG2 PUSH5 0x6970667358 0x22 SLT KECCAK256 PUSH1 0x62 SWAP4 GASLIMIT ADDMOD SWAP6 EXTCODEHASH NUMBER MLOAD 0xB6 MSTORE 0xB8 MULMOD SWAP16 DUP9 ADDRESS INVALID 0xEF SLOAD 0xF 0xF9 MSTORE8 0xA8 PUSH5 0x551B6AEF6 PUSH13 0x595F64736F6C634300080F0033 "},"gasEstimates":{"creation":{"codeDepositCost":"1885000","executionCost":"1990","totalCost":"1886990"},"external":{"createCampaign(uint256,string,string,string,uint256)":"infinite","deployedCampaigns(uint256)":"4934","getDeployedCampaigns()":"infinite"}},"methodIdentifiers":{"createCampaign(uint256,string,string,string,uint256)":"d4ddd71a","deployedCampaigns(uint256)":"339d50a5","getDeployedCampaigns()":"4acb9d4f"}},"storageLayout":{"storage":[{"astId":4,"contract":"Campaign.sol:CampaignFactory","label":"deployedCampaigns","offset":0,"slot":"0","type":"t_array(t_address_payable)dyn_storage"}],"types":{"t_address_payable":{"encoding":"inplace","label":"address payable","numberOfBytes":"20"},"t_array(t_address_payable)dyn_storage":{"base":"t_address_payable","encoding":"dynamic_array","label":"address payable[]","numberOfBytes":"32"}}},"userdoc":{"kind":"user","methods":{},"version":1}}